{
  "address": "0x4e706CbbE94B2867BA35A989fbe9859bEC045759",
  "abi": [
    {
      "inputs": [
        {
          "internalType": "address",
          "name": "_swaps",
          "type": "address"
        },
        {
          "internalType": "address",
          "name": "_treasury",
          "type": "address"
        },
        {
          "internalType": "address",
          "name": "_oracle",
          "type": "address"
        },
        {
          "internalType": "address",
          "name": "_dex",
          "type": "address"
        }
      ],
      "stateMutability": "nonpayable",
      "type": "constructor"
    },
    {
      "anonymous": false,
      "inputs": [
        {
          "indexed": true,
          "internalType": "address",
          "name": "previousOwner",
          "type": "address"
        },
        {
          "indexed": true,
          "internalType": "address",
          "name": "newOwner",
          "type": "address"
        }
      ],
      "name": "OwnershipTransferred",
      "type": "event"
    },
    {
      "inputs": [
        {
          "internalType": "uint256",
          "name": "_amountUnderlying",
          "type": "uint256"
        }
      ],
      "name": "buySwap",
      "outputs": [],
      "stateMutability": "nonpayable",
      "type": "function"
    },
    {
      "inputs": [
        {
          "internalType": "uint256",
          "name": "_amountToRemove",
          "type": "uint256"
        }
      ],
      "name": "closeSwap",
      "outputs": [],
      "stateMutability": "nonpayable",
      "type": "function"
    },
    {
      "inputs": [],
      "name": "dex",
      "outputs": [
        {
          "internalType": "contract IUniswapV2Router02",
          "name": "",
          "type": "address"
        }
      ],
      "stateMutability": "view",
      "type": "function"
    },
    {
      "inputs": [],
      "name": "eth",
      "outputs": [
        {
          "internalType": "address",
          "name": "",
          "type": "address"
        }
      ],
      "stateMutability": "view",
      "type": "function"
    },
    {
      "inputs": [
        {
          "internalType": "uint256",
          "name": "_amountInvestment",
          "type": "uint256"
        }
      ],
      "name": "fund",
      "outputs": [],
      "stateMutability": "nonpayable",
      "type": "function"
    },
    {
      "inputs": [
        {
          "internalType": "int256",
          "name": "_amount",
          "type": "int256"
        }
      ],
      "name": "getAmountOfUnderlyingForUSD",
      "outputs": [
        {
          "internalType": "int256",
          "name": "",
          "type": "int256"
        }
      ],
      "stateMutability": "view",
      "type": "function"
    },
    {
      "inputs": [
        {
          "internalType": "uint256",
          "name": "_amountUnderlying",
          "type": "uint256"
        }
      ],
      "name": "getFlowRate",
      "outputs": [
        {
          "internalType": "int96",
          "name": "",
          "type": "int96"
        }
      ],
      "stateMutability": "view",
      "type": "function"
    },
    {
      "inputs": [
        {
          "internalType": "uint256",
          "name": "_underlyingAm",
          "type": "uint256"
        }
      ],
      "name": "getPriceUnderlyingUSD",
      "outputs": [
        {
          "internalType": "int256",
          "name": "",
          "type": "int256"
        }
      ],
      "stateMutability": "view",
      "type": "function"
    },
    {
      "inputs": [],
      "name": "oracle",
      "outputs": [
        {
          "internalType": "contract IOracle",
          "name": "",
          "type": "address"
        }
      ],
      "stateMutability": "view",
      "type": "function"
    },
    {
      "inputs": [],
      "name": "owner",
      "outputs": [
        {
          "internalType": "address",
          "name": "",
          "type": "address"
        }
      ],
      "stateMutability": "view",
      "type": "function"
    },
    {
      "inputs": [
        {
          "internalType": "uint256",
          "name": "_amountToRemove",
          "type": "uint256"
        },
        {
          "internalType": "address",
          "name": "_receiver",
          "type": "address"
        }
      ],
      "name": "removeFunds",
      "outputs": [],
      "stateMutability": "nonpayable",
      "type": "function"
    },
    {
      "inputs": [],
      "name": "renounceOwnership",
      "outputs": [],
      "stateMutability": "nonpayable",
      "type": "function"
    },
    {
      "inputs": [],
      "name": "swaps",
      "outputs": [
        {
          "internalType": "contract ISwaps",
          "name": "",
          "type": "address"
        }
      ],
      "stateMutability": "view",
      "type": "function"
    },
    {
      "inputs": [
        {
          "internalType": "address",
          "name": "newOwner",
          "type": "address"
        }
      ],
      "name": "transferOwnership",
      "outputs": [],
      "stateMutability": "nonpayable",
      "type": "function"
    },
    {
      "inputs": [],
      "name": "treasury",
      "outputs": [
        {
          "internalType": "address",
          "name": "",
          "type": "address"
        }
      ],
      "stateMutability": "view",
      "type": "function"
    },
    {
      "inputs": [],
      "name": "underlyingExposedToSwaps",
      "outputs": [
        {
          "internalType": "uint256",
          "name": "",
          "type": "uint256"
        }
      ],
      "stateMutability": "view",
      "type": "function"
    },
    {
      "inputs": [],
      "name": "underlyingInvested",
      "outputs": [
        {
          "internalType": "uint256",
          "name": "",
          "type": "uint256"
        }
      ],
      "stateMutability": "view",
      "type": "function"
    },
    {
      "inputs": [
        {
          "internalType": "int256",
          "name": "_new",
          "type": "int256"
        }
      ],
      "name": "updatePriceE18",
      "outputs": [],
      "stateMutability": "nonpayable",
      "type": "function"
    },
    {
      "stateMutability": "payable",
      "type": "receive"
    }
  ],
  "transactionHash": "0x1d1bf088987391dd3bdfb01a01cfcb040088772559eaec285e256129aac525f3",
  "args": [
    "0xa3b171dE7DD7D732140c3628AcF2760Ee196C4c6",
    "0x6D992c2a6B112F856d2D7da364b5453c6c94f60e",
    "0x80cf0e0d515f78cD6EDE4D0F07F0C574BeC09664",
    "0x7a250d5630B4cF539739dF2C5dAcb4c659F2488D"
  ],
  "numDeployments": 2,
  "solcInputHash": "7e8465d8f34503851f6828f67e870c35",
  "bytecode": "0x60a06040526002600855600c600960006101000a8154816bffffffffffffffffffffffff0219169083600b0b6bffffffffffffffffffffffff1602179055503480156200004b57600080fd5b5060405162003060380380620030608339818101604052810190620000719190620006a4565b828262000093620000876200042860201b60201c565b6200043060201b60201c565b8173ffffffffffffffffffffffffffffffffffffffff1660808173ffffffffffffffffffffffffffffffffffffffff1660601b815250508173ffffffffffffffffffffffffffffffffffffffff1663e9cbd8226040518163ffffffff1660e01b8152600401602060405180830381600087803b1580156200011357600080fd5b505af115801562000128573d6000803e3d6000fd5b505050506040513d601f19601f820116820180604052508101906200014e91906200073c565b600160006101000a81548173ffffffffffffffffffffffffffffffffffffffff021916908373ffffffffffffffffffffffffffffffffffffffff16021790555080600460006101000a81548173ffffffffffffffffffffffffffffffffffffffff021916908373ffffffffffffffffffffffffffffffffffffffff160217905550505083600560006101000a81548173ffffffffffffffffffffffffffffffffffffffff021916908373ffffffffffffffffffffffffffffffffffffffff16021790555080600760006101000a81548173ffffffffffffffffffffffffffffffffffffffff021916908373ffffffffffffffffffffffffffffffffffffffff160217905550600160009054906101000a900473ffffffffffffffffffffffffffffffffffffffff1673ffffffffffffffffffffffffffffffffffffffff1663095ea7b3827fffffffffffffffffffffffffffffffffffffffffffffffffffffffffffffffff6040518363ffffffff1660e01b8152600401620002d2929190620007d8565b602060405180830381600087803b158015620002ed57600080fd5b505af115801562000302573d6000803e3d6000fd5b505050506040513d601f19601f8201168201806040525081019062000328919062000710565b506200033a83620004f460201b60201c565b600760009054906101000a900473ffffffffffffffffffffffffffffffffffffffff1673ffffffffffffffffffffffffffffffffffffffff1663ad5c46486040518163ffffffff1660e01b815260040160206040518083038186803b158015620003a357600080fd5b505afa158015620003b8573d6000803e3d6000fd5b505050506040513d601f19601f82011682018060405250810190620003de919062000678565b600660006101000a81548173ffffffffffffffffffffffffffffffffffffffff021916908373ffffffffffffffffffffffffffffffffffffffff1602179055505050505062000992565b600033905090565b60008060009054906101000a900473ffffffffffffffffffffffffffffffffffffffff169050816000806101000a81548173ffffffffffffffffffffffffffffffffffffffff021916908373ffffffffffffffffffffffffffffffffffffffff1602179055508173ffffffffffffffffffffffffffffffffffffffff168173ffffffffffffffffffffffffffffffffffffffff167f8be0079c531659141344cd1fd0a4f28419497f9722a3daafe3b4186f6b6457e060405160405180910390a35050565b620005046200042860201b60201c565b73ffffffffffffffffffffffffffffffffffffffff166200052a6200060a60201b60201c565b73ffffffffffffffffffffffffffffffffffffffff161462000583576040517f08c379a00000000000000000000000000000000000000000000000000000000081526004016200057a9062000827565b60405180910390fd5b600073ffffffffffffffffffffffffffffffffffffffff168173ffffffffffffffffffffffffffffffffffffffff161415620005f6576040517f08c379a0000000000000000000000000000000000000000000000000000000008152600401620005ed9062000805565b60405180910390fd5b62000607816200043060201b60201c565b50565b60008060009054906101000a900473ffffffffffffffffffffffffffffffffffffffff16905090565b600081519050620006448162000944565b92915050565b6000815190506200065b816200095e565b92915050565b600081519050620006728162000978565b92915050565b6000602082840312156200068b57600080fd5b60006200069b8482850162000633565b91505092915050565b60008060008060808587031215620006bb57600080fd5b6000620006cb8782880162000633565b9450506020620006de8782880162000633565b9350506040620006f18782880162000633565b9250506060620007048782880162000633565b91505092959194509250565b6000602082840312156200072357600080fd5b600062000733848285016200064a565b91505092915050565b6000602082840312156200074f57600080fd5b60006200075f8482850162000661565b91505092915050565b62000773816200085a565b82525050565b6200078481620008b8565b82525050565b60006200079960268362000849565b9150620007a682620008cc565b604082019050919050565b6000620007c060208362000849565b9150620007cd826200091b565b602082019050919050565b6000604082019050620007ef600083018562000768565b620007fe602083018462000779565b9392505050565b6000602082019050818103600083015262000820816200078a565b9050919050565b600060208201905081810360008301526200084281620007b1565b9050919050565b600082825260208201905092915050565b600062000867826200088e565b9050919050565b60008115159050919050565b600062000887826200085a565b9050919050565b600073ffffffffffffffffffffffffffffffffffffffff82169050919050565b6000819050919050565b6000620008c582620008ae565b9050919050565b7f4f776e61626c653a206e6577206f776e657220697320746865207a65726f206160008201527f6464726573730000000000000000000000000000000000000000000000000000602082015250565b7f4f776e61626c653a2063616c6c6572206973206e6f7420746865206f776e6572600082015250565b6200094f816200085a565b81146200095b57600080fd5b50565b62000969816200086e565b81146200097557600080fd5b50565b62000983816200087a565b81146200098f57600080fd5b50565b60805160601c6126a1620009bf600039600081816107e90152818161137101526114c501526126a16000f3fe60806040526004361061010d5760003560e01c80638c7c9e0c11610095578063bb2d6f9d11610064578063bb2d6f9d14610366578063ca1d209d14610391578063e43c520d146103ba578063e7a926eb146103e3578063f2fde38b1461040c57610114565b80638c7c9e0c146102aa5780638da5cb5b146102d55780639583f0f2146103005780639fa538be1461032957610114565b8063692058c2116100dc578063692058c2146101d5578063715018a61461020057806376d560d7146102175780637dc0d1d01461025457806384039edc1461027f57610114565b806338f7d50f146101195780633e4d9912146101565780634c9841851461017f57806361d027b3146101aa57610114565b3661011457005b600080fd5b34801561012557600080fd5b50610140600480360381019061013b919061177b565b610435565b60405161014d9190611aa3565b60405180910390f35b34801561016257600080fd5b5061017d600480360381019061017891906117a4565b61047c565b005b34801561018b57600080fd5b506101946107c1565b6040516101a19190611a52565b60405180910390f35b3480156101b657600080fd5b506101bf6107e7565b6040516101cc91906119a0565b60405180910390f35b3480156101e157600080fd5b506101ea61080b565b6040516101f79190611a6d565b60405180910390f35b34801561020c57600080fd5b50610215610831565b005b34801561022357600080fd5b5061023e6004803603810190610239919061177b565b6108b9565b60405161024b9190611a88565b60405180910390f35b34801561026057600080fd5b506102696109ba565b6040516102769190611a37565b60405180910390f35b34801561028b57600080fd5b506102946109e0565b6040516102a19190611b7e565b60405180910390f35b3480156102b657600080fd5b506102bf6109e6565b6040516102cc91906119a0565b60405180910390f35b3480156102e157600080fd5b506102ea610a0c565b6040516102f791906119a0565b60405180910390f35b34801561030c57600080fd5b506103276004803603810190610322919061177b565b610a35565b005b34801561033557600080fd5b50610350600480360381019061034b9190611716565b610aac565b60405161035d9190611a88565b60405180910390f35b34801561037257600080fd5b5061037b610bad565b6040516103889190611b7e565b60405180910390f35b34801561039d57600080fd5b506103b860048036038101906103b3919061177b565b610bb3565b005b3480156103c657600080fd5b506103e160048036038101906103dc919061177b565b610eb4565b005b3480156103ef57600080fd5b5061040a60048036038101906104059190611716565b610f60565b005b34801561041857600080fd5b50610433600480360381019061042e9190611683565b610f6a565b005b60006064600960009054906101000a9004600b0b6104616301e143208561045c9190611e34565b6108b9565b61046b91906120ed565b6104759190611dca565b9050919050565b610484611062565b73ffffffffffffffffffffffffffffffffffffffff166104a2610a0c565b73ffffffffffffffffffffffffffffffffffffffff16146104f8576040517f08c379a00000000000000000000000000000000000000000000000000000000081526004016104ef90611b1e565b60405180910390fd5b4782111561053b576040517f08c379a000000000000000000000000000000000000000000000000000000000815260040161053290611b5e565b60405180910390fd5b610545828261106a565b6000600267ffffffffffffffff811115610588577f4e487b7100000000000000000000000000000000000000000000000000000000600052604160045260246000fd5b6040519080825280602002602001820160405280156105b65781602001602082028036833780820191505090505b509050600660009054906101000a900473ffffffffffffffffffffffffffffffffffffffff1681600081518110610616577f4e487b7100000000000000000000000000000000000000000000000000000000600052603260045260246000fd5b602002602001019073ffffffffffffffffffffffffffffffffffffffff16908173ffffffffffffffffffffffffffffffffffffffff1681525050600160009054906101000a900473ffffffffffffffffffffffffffffffffffffffff16816001815181106106ad577f4e487b7100000000000000000000000000000000000000000000000000000000600052603260045260246000fd5b602002602001019073ffffffffffffffffffffffffffffffffffffffff16908173ffffffffffffffffffffffffffffffffffffffff168152505060006106f3848361113b565b9050600760009054906101000a900473ffffffffffffffffffffffffffffffffffffffff1673ffffffffffffffffffffffffffffffffffffffff16637ff36ab585838587601e426107449190611d0a565b6040518663ffffffff1660e01b81526004016107639493929190611bc9565b6000604051808303818588803b15801561077c57600080fd5b505af1158015610790573d6000803e3d6000fd5b50505050506040513d6000823e3d601f19601f820116820180604052508101906107ba91906116ac565b5050505050565b600560009054906101000a900473ffffffffffffffffffffffffffffffffffffffff1681565b7f000000000000000000000000000000000000000000000000000000000000000081565b600760009054906101000a900473ffffffffffffffffffffffffffffffffffffffff1681565b610839611062565b73ffffffffffffffffffffffffffffffffffffffff16610857610a0c565b73ffffffffffffffffffffffffffffffffffffffff16146108ad576040517f08c379a00000000000000000000000000000000000000000000000000000000081526004016108a490611b1e565b60405180910390fd5b6108b7600061126d565b565b6000806000600460009054906101000a900473ffffffffffffffffffffffffffffffffffffffff1673ffffffffffffffffffffffffffffffffffffffff1663b95ed06f600660009054906101000a900473ffffffffffffffffffffffffffffffffffffffff166040518263ffffffff1660e01b815260040161093b91906119a0565b604080518083038186803b15801561095257600080fd5b505afa158015610966573d6000803e3d6000fd5b505050506040513d601f19601f8201168201806040525081019061098a919061173f565b9150915080600a61099b9190611eb8565b82856109a79190611fd6565b6109b19190611d60565b92505050919050565b600460009054906101000a900473ffffffffffffffffffffffffffffffffffffffff1681565b60025481565b600660009054906101000a900473ffffffffffffffffffffffffffffffffffffffff1681565b60008060009054906101000a900473ffffffffffffffffffffffffffffffffffffffff16905090565b80600354610a439190611d0a565b60025411610a86576040517f08c379a0000000000000000000000000000000000000000000000000000000008152600401610a7d90611abe565b60405180910390fd5b8060036000828254610a989190611d0a565b92505081905550610aa93382611331565b50565b6000806000600460009054906101000a900473ffffffffffffffffffffffffffffffffffffffff1673ffffffffffffffffffffffffffffffffffffffff1663b95ed06f600660009054906101000a900473ffffffffffffffffffffffffffffffffffffffff166040518263ffffffff1660e01b8152600401610b2e91906119a0565b604080518083038186803b158015610b4557600080fd5b505afa158015610b59573d6000803e3d6000fd5b505050506040513d601f19601f82011682018060405250810190610b7d919061173f565b91509150818482600a610b909190611eb8565b610b9a9190611fd6565b610ba49190611d60565b92505050919050565b60035481565b610bbb611062565b73ffffffffffffffffffffffffffffffffffffffff16610bd9610a0c565b73ffffffffffffffffffffffffffffffffffffffff1614610c2f576040517f08c379a0000000000000000000000000000000000000000000000000000000008152600401610c2690611b1e565b60405180910390fd5b610c38816113f0565b6000600267ffffffffffffffff811115610c7b577f4e487b7100000000000000000000000000000000000000000000000000000000600052604160045260246000fd5b604051908082528060200260200182016040528015610ca95781602001602082028036833780820191505090505b509050600160009054906101000a900473ffffffffffffffffffffffffffffffffffffffff1681600081518110610d09577f4e487b7100000000000000000000000000000000000000000000000000000000600052603260045260246000fd5b602002602001019073ffffffffffffffffffffffffffffffffffffffff16908173ffffffffffffffffffffffffffffffffffffffff1681525050600660009054906101000a900473ffffffffffffffffffffffffffffffffffffffff1681600181518110610da0577f4e487b7100000000000000000000000000000000000000000000000000000000600052603260045260246000fd5b602002602001019073ffffffffffffffffffffffffffffffffffffffff16908173ffffffffffffffffffffffffffffffffffffffff16815250506000610de6838361113b565b9050600760009054906101000a900473ffffffffffffffffffffffffffffffffffffffff1673ffffffffffffffffffffffffffffffffffffffff166318cbafe584838530601e42610e379190611d0a565b6040518663ffffffff1660e01b8152600401610e57959493929190611c15565b600060405180830381600087803b158015610e7157600080fd5b505af1158015610e85573d6000803e3d6000fd5b505050506040513d6000823e3d601f19601f82011682018060405250810190610eae91906116ac565b50505050565b600560009054906101000a900473ffffffffffffffffffffffffffffffffffffffff1673ffffffffffffffffffffffffffffffffffffffff163373ffffffffffffffffffffffffffffffffffffffff1614610f44576040517f08c379a0000000000000000000000000000000000000000000000000000000008152600401610f3b90611b3e565b60405180910390fd5b8060036000828254610f569190612236565b9250508190555050565b8060088190555050565b610f72611062565b73ffffffffffffffffffffffffffffffffffffffff16610f90610a0c565b73ffffffffffffffffffffffffffffffffffffffff1614610fe6576040517f08c379a0000000000000000000000000000000000000000000000000000000008152600401610fdd90611b1e565b60405180910390fd5b600073ffffffffffffffffffffffffffffffffffffffff168173ffffffffffffffffffffffffffffffffffffffff161415611056576040517f08c379a000000000000000000000000000000000000000000000000000000000815260040161104d90611ade565b60405180910390fd5b61105f8161126d565b50565b600033905090565b611072611062565b73ffffffffffffffffffffffffffffffffffffffff16611090610a0c565b73ffffffffffffffffffffffffffffffffffffffff16146110e6576040517f08c379a00000000000000000000000000000000000000000000000000000000081526004016110dd90611b1e565b60405180910390fd5b816003546110f49190611d0a565b60025411611137576040517f08c379a000000000000000000000000000000000000000000000000000000000815260040161112e90611afe565b60405180910390fd5b5050565b600080600760009054906101000a900473ffffffffffffffffffffffffffffffffffffffff1673ffffffffffffffffffffffffffffffffffffffff1663d06ca61f85856040518363ffffffff1660e01b815260040161119b929190611b99565b60006040518083038186803b1580156111b357600080fd5b505afa1580156111c7573d6000803e3d6000fd5b505050506040513d6000823e3d601f19601f820116820180604052508101906111f091906116ac565b600184516111fe9190612236565b81518110611235577f4e487b7100000000000000000000000000000000000000000000000000000000600052603260045260246000fd5b6020026020010151905060646005606461124f9190612236565b8261125a91906121dc565b6112649190611e34565b91505092915050565b60008060009054906101000a900473ffffffffffffffffffffffffffffffffffffffff169050816000806101000a81548173ffffffffffffffffffffffffffffffffffffffff021916908373ffffffffffffffffffffffffffffffffffffffff1602179055508173ffffffffffffffffffffffffffffffffffffffff168173ffffffffffffffffffffffffffffffffffffffff167f8be0079c531659141344cd1fd0a4f28419497f9722a3daafe3b4186f6b6457e060405160405180910390a35050565b600560009054906101000a900473ffffffffffffffffffffffffffffffffffffffff1673ffffffffffffffffffffffffffffffffffffffff166357ae14a47f00000000000000000000000000000000000000000000000000000000000000008461139a85610435565b856040518563ffffffff1660e01b81526004016113ba94939291906119bb565b600060405180830381600087803b1580156113d457600080fd5b505af11580156113e8573d6000803e3d6000fd5b505050505050565b6113f8611062565b73ffffffffffffffffffffffffffffffffffffffff16611416610a0c565b73ffffffffffffffffffffffffffffffffffffffff161461146c576040517f08c379a000000000000000000000000000000000000000000000000000000000815260040161146390611b1e565b60405180910390fd5b806002600082825461147e9190611d0a565b92505081905550600160009054906101000a900473ffffffffffffffffffffffffffffffffffffffff1673ffffffffffffffffffffffffffffffffffffffff166323b872dd7f000000000000000000000000000000000000000000000000000000000000000030846040518463ffffffff1660e01b815260040161150493929190611a00565b602060405180830381600087803b15801561151e57600080fd5b505af1158015611532573d6000803e3d6000fd5b505050506040513d601f19601f8201168201806040525081019061155691906116ed565b5050565b600061156d61156884611c94565b611c6f565b9050808382526020820190508285602086028201111561158c57600080fd5b60005b858110156115bc57816115a28882611659565b84526020840193506020830192505060018101905061158f565b5050509392505050565b6000813590506115d5816125f8565b92915050565b600082601f8301126115ec57600080fd5b81516115fc84826020860161155a565b91505092915050565b6000815190506116148161260f565b92915050565b60008135905061162981612626565b92915050565b60008151905061163e81612626565b92915050565b6000813590506116538161263d565b92915050565b6000815190506116688161263d565b92915050565b60008151905061167d81612654565b92915050565b60006020828403121561169557600080fd5b60006116a3848285016115c6565b91505092915050565b6000602082840312156116be57600080fd5b600082015167ffffffffffffffff8111156116d857600080fd5b6116e4848285016115db565b91505092915050565b6000602082840312156116ff57600080fd5b600061170d84828501611605565b91505092915050565b60006020828403121561172857600080fd5b60006117368482850161161a565b91505092915050565b6000806040838503121561175257600080fd5b60006117608582860161162f565b92505060206117718582860161166e565b9150509250929050565b60006020828403121561178d57600080fd5b600061179b84828501611644565b91505092915050565b600080604083850312156117b757600080fd5b60006117c585828601611644565b92505060206117d6858286016115c6565b9150509250929050565b60006117ec83836117f8565b60208301905092915050565b6118018161226a565b82525050565b6118108161226a565b82525050565b600061182182611cd0565b61182b8185611ce8565b935061183683611cc0565b8060005b8381101561186757815161184e88826117e0565b975061185983611cdb565b92505060018101905061183a565b5085935050505092915050565b61187d816122d6565b82525050565b61188c816122fa565b82525050565b61189b8161231e565b82525050565b6118aa81612288565b82525050565b6118b981612292565b82525050565b60006118cc604583611cf9565b91506118d78261241e565b606082019050919050565b60006118ef602683611cf9565b91506118fa82612493565b604082019050919050565b6000611912604583611cf9565b915061191d826124e2565b606082019050919050565b6000611935602083611cf9565b915061194082612557565b602082019050919050565b6000611958603c83611cf9565b915061196382612580565b604082019050919050565b600061197b601a83611cf9565b9150611986826125cf565b602082019050919050565b61199a816122bf565b82525050565b60006020820190506119b56000830184611807565b92915050565b60006080820190506119d06000830187611807565b6119dd6020830186611807565b6119ea60408301856118b0565b6119f76060830184611991565b95945050505050565b6000606082019050611a156000830186611807565b611a226020830185611807565b611a2f6040830184611991565b949350505050565b6000602082019050611a4c6000830184611874565b92915050565b6000602082019050611a676000830184611883565b92915050565b6000602082019050611a826000830184611892565b92915050565b6000602082019050611a9d60008301846118a1565b92915050565b6000602082019050611ab860008301846118b0565b92915050565b60006020820190508181036000830152611ad7816118bf565b9050919050565b60006020820190508181036000830152611af7816118e2565b9050919050565b60006020820190508181036000830152611b1781611905565b9050919050565b60006020820190508181036000830152611b3781611928565b9050919050565b60006020820190508181036000830152611b578161194b565b9050919050565b60006020820190508181036000830152611b778161196e565b9050919050565b6000602082019050611b936000830184611991565b92915050565b6000604082019050611bae6000830185611991565b8181036020830152611bc08184611816565b90509392505050565b6000608082019050611bde6000830187611991565b8181036020830152611bf08186611816565b9050611bff6040830185611807565b611c0c6060830184611991565b95945050505050565b600060a082019050611c2a6000830188611991565b611c376020830187611991565b8181036040830152611c498186611816565b9050611c586060830185611807565b611c656080830184611991565b9695505050505050565b6000611c79611c8a565b9050611c858282612342565b919050565b6000604051905090565b600067ffffffffffffffff821115611caf57611cae6123d1565b5b602082029050602081019050919050565b6000819050602082019050919050565b600081519050919050565b6000602082019050919050565b600082825260208201905092915050565b600082825260208201905092915050565b6000611d15826122bf565b9150611d20836122bf565b9250827fffffffffffffffffffffffffffffffffffffffffffffffffffffffffffffffff03821115611d5557611d54612373565b5b828201905092915050565b6000611d6b82612288565b9150611d7683612288565b925082611d8657611d856123a2565b5b600160000383147f800000000000000000000000000000000000000000000000000000000000000083141615611dbf57611dbe612373565b5b828205905092915050565b6000611dd582612292565b9150611de083612292565b925082611df057611def6123a2565b5b600160000383147fffffffffffffffffffffffffffffffffffffffff80000000000000000000000083141615611e2957611e28612373565b5b828205905092915050565b6000611e3f826122bf565b9150611e4a836122bf565b925082611e5a57611e596123a2565b5b828204905092915050565b6000808291508390505b6001851115611eaf57808604811115611e8b57611e8a612373565b5b6001851615611e9a5780820291505b8081029050611ea885612411565b9450611e6f565b94509492505050565b6000611ec3826122bf565b9150611ece836122c9565b9250611efb7fffffffffffffffffffffffffffffffffffffffffffffffffffffffffffffffff8484611f03565b905092915050565b600082611f135760019050611fcf565b81611f215760009050611fcf565b8160018114611f375760028114611f4157611f70565b6001915050611fcf565b60ff841115611f5357611f52612373565b5b8360020a915084821115611f6a57611f69612373565b5b50611fcf565b5060208310610133831016604e8410600b8410161715611fa55782820a905083811115611fa057611f9f612373565b5b611fcf565b611fb28484846001611e65565b92509050818404811115611fc957611fc8612373565b5b81810290505b9392505050565b6000611fe182612288565b9150611fec83612288565b9250827f7fffffffffffffffffffffffffffffffffffffffffffffffffffffffffffffff048211600084136000841316161561202b5761202a612373565b5b817f8000000000000000000000000000000000000000000000000000000000000000058312600084126000841316161561206857612067612373565b5b827f800000000000000000000000000000000000000000000000000000000000000005821260008413600084121616156120a5576120a4612373565b5b827f7fffffffffffffffffffffffffffffffffffffffffffffffffffffffffffffff05821260008412600084121616156120e2576120e1612373565b5b828202905092915050565b60006120f882612292565b915061210383612292565b9250826b7fffffffffffffffffffffff048211600084136000841316161561212e5761212d612373565b5b817fffffffffffffffffffffffffffffffffffffffff800000000000000000000000058312600084126000841316161561216b5761216a612373565b5b827fffffffffffffffffffffffffffffffffffffffff80000000000000000000000005821260008413600084121616156121a8576121a7612373565b5b826b7fffffffffffffffffffffff05821260008412600084121616156121d1576121d0612373565b5b828202905092915050565b60006121e7826122bf565b91506121f2836122bf565b9250817fffffffffffffffffffffffffffffffffffffffffffffffffffffffffffffffff048311821515161561222b5761222a612373565b5b828202905092915050565b6000612241826122bf565b915061224c836122bf565b92508282101561225f5761225e612373565b5b828203905092915050565b60006122758261229f565b9050919050565b60008115159050919050565b6000819050919050565b600081600b0b9050919050565b600073ffffffffffffffffffffffffffffffffffffffff82169050919050565b6000819050919050565b600060ff82169050919050565b60006122e1826122e8565b9050919050565b60006122f38261229f565b9050919050565b60006123058261230c565b9050919050565b60006123178261229f565b9050919050565b600061232982612330565b9050919050565b600061233b8261229f565b9050919050565b61234b82612400565b810181811067ffffffffffffffff8211171561236a576123696123d1565b5b80604052505050565b7f4e487b7100000000000000000000000000000000000000000000000000000000600052601160045260246000fd5b7f4e487b7100000000000000000000000000000000000000000000000000000000600052601260045260246000fd5b7f4e487b7100000000000000000000000000000000000000000000000000000000600052604160045260246000fd5b6000601f19601f8301169050919050565b60008160011c9050919050565b7f54686572652773206e6f7420656e6f756768206672656520617373657473206960008201527f6e207468697320737472617465677920746f20696e766573742074686973206160208201527f6d6f756e74000000000000000000000000000000000000000000000000000000604082015250565b7f4f776e61626c653a206e6577206f776e657220697320746865207a65726f206160008201527f6464726573730000000000000000000000000000000000000000000000000000602082015250565b7f54686572652773206e6f7420656e6f756768206672656520617373657473206960008201527f6e207468697320737472617465677920746f2072656d6f76652074686973206160208201527f6d6f756e74000000000000000000000000000000000000000000000000000000604082015250565b7f4f776e61626c653a2063616c6c6572206973206e6f7420746865206f776e6572600082015250565b7f53747261746567795374616e646172643a204f6e6c7920537761707320636f6e60008201527f74726163742063616e2063616c6c20746869732066756e6374696f6e00000000602082015250565b7f4e6f7420656e6f7567682065746820696e207374726174656779000000000000600082015250565b6126018161226a565b811461260c57600080fd5b50565b6126188161227c565b811461262357600080fd5b50565b61262f81612288565b811461263a57600080fd5b50565b612646816122bf565b811461265157600080fd5b50565b61265d816122c9565b811461266857600080fd5b5056fea2646970667358221220eb0033872fe5ac64797a6ecc9ba202e6ea0f80e9102e2ccef82a16649844693264736f6c63430008040033",
  "devdoc": {
    "author": "Caron Case (carsonpcase@gmail.com) contract to standardize what strategies do ",
    "kind": "dev",
    "methods": {
      "buySwap(uint256)": {
        "details": "function to buy swap on the strategy. Can only be done if it's free"
      },
      "fund(uint256)": {
        "details": "fund function to provide funds to the strategy override to provide with the actual logic of the investment strategy"
      },
      "owner()": {
        "details": "Returns the address of the current owner."
      },
      "removeFunds(uint256,address)": {
        "details": "function for owner (treasury) to remove funds "
      },
      "renounceOwnership()": {
        "details": "Leaves the contract without owner. It will not be possible to call `onlyOwner` functions anymore. Can only be called by the current owner. NOTE: Renouncing ownership will leave the contract without an owner, thereby removing any functionality that is only available to the owner."
      },
      "transferOwnership(address)": {
        "details": "Transfers ownership of the contract to a new account (`newOwner`). Can only be called by the current owner."
      }
    },
    "title": "ETHHODLStrategy",
    "version": 1
  },
  "userdoc": {
    "kind": "user",
    "methods": {},
    "version": 1
  },
  "storageLayout": {
    "storage": [
      {
        "astId": 7,
        "contract": "contracts/strategies/ETHHODLStrategy.sol:ETHHODLStrategy",
        "label": "_owner",
        "offset": 0,
        "slot": "0",
        "type": "t_address"
      },
      {
        "astId": 1015,
        "contract": "contracts/strategies/ETHHODLStrategy.sol:ETHHODLStrategy",
        "label": "stablecoin",
        "offset": 0,
        "slot": "1",
        "type": "t_address"
      },
      {
        "astId": 1017,
        "contract": "contracts/strategies/ETHHODLStrategy.sol:ETHHODLStrategy",
        "label": "underlyingInvested",
        "offset": 0,
        "slot": "2",
        "type": "t_uint256"
      },
      {
        "astId": 1019,
        "contract": "contracts/strategies/ETHHODLStrategy.sol:ETHHODLStrategy",
        "label": "underlyingExposedToSwaps",
        "offset": 0,
        "slot": "3",
        "type": "t_uint256"
      },
      {
        "astId": 1022,
        "contract": "contracts/strategies/ETHHODLStrategy.sol:ETHHODLStrategy",
        "label": "oracle",
        "offset": 0,
        "slot": "4",
        "type": "t_contract(IOracle)996"
      },
      {
        "astId": 1025,
        "contract": "contracts/strategies/ETHHODLStrategy.sol:ETHHODLStrategy",
        "label": "swaps",
        "offset": 0,
        "slot": "5",
        "type": "t_contract(ISwaps)1008"
      },
      {
        "astId": 609,
        "contract": "contracts/strategies/ETHHODLStrategy.sol:ETHHODLStrategy",
        "label": "eth",
        "offset": 0,
        "slot": "6",
        "type": "t_address"
      },
      {
        "astId": 612,
        "contract": "contracts/strategies/ETHHODLStrategy.sol:ETHHODLStrategy",
        "label": "dex",
        "offset": 0,
        "slot": "7",
        "type": "t_contract(IUniswapV2Router02)600"
      },
      {
        "astId": 618,
        "contract": "contracts/strategies/ETHHODLStrategy.sol:ETHHODLStrategy",
        "label": "priceUSD",
        "offset": 0,
        "slot": "8",
        "type": "t_int256"
      },
      {
        "astId": 621,
        "contract": "contracts/strategies/ETHHODLStrategy.sol:ETHHODLStrategy",
        "label": "apr",
        "offset": 0,
        "slot": "9",
        "type": "t_int96"
      }
    ],
    "types": {
      "t_address": {
        "encoding": "inplace",
        "label": "address",
        "numberOfBytes": "20"
      },
      "t_contract(IOracle)996": {
        "encoding": "inplace",
        "label": "contract IOracle",
        "numberOfBytes": "20"
      },
      "t_contract(ISwaps)1008": {
        "encoding": "inplace",
        "label": "contract ISwaps",
        "numberOfBytes": "20"
      },
      "t_contract(IUniswapV2Router02)600": {
        "encoding": "inplace",
        "label": "contract IUniswapV2Router02",
        "numberOfBytes": "20"
      },
      "t_int256": {
        "encoding": "inplace",
        "label": "int256",
        "numberOfBytes": "32"
      },
      "t_int96": {
        "encoding": "inplace",
        "label": "int96",
        "numberOfBytes": "12"
      },
      "t_uint256": {
        "encoding": "inplace",
        "label": "uint256",
        "numberOfBytes": "32"
      }
    }
  }
}