{
  "address": "0x9770CAdd2EC906589F01B4f59071F12962029082",
  "abi": [
    {
      "inputs": [
        {
          "internalType": "address",
          "name": "_token",
          "type": "address"
        }
      ],
      "stateMutability": "nonpayable",
      "type": "constructor"
    },
    {
      "anonymous": false,
      "inputs": [
        {
          "indexed": true,
          "internalType": "address",
          "name": "owner",
          "type": "address"
        },
        {
          "indexed": true,
          "internalType": "address",
          "name": "spender",
          "type": "address"
        },
        {
          "indexed": false,
          "internalType": "uint256",
          "name": "value",
          "type": "uint256"
        }
      ],
      "name": "Approval",
      "type": "event"
    },
    {
      "anonymous": false,
      "inputs": [
        {
          "indexed": true,
          "internalType": "address",
          "name": "delegator",
          "type": "address"
        },
        {
          "indexed": true,
          "internalType": "address",
          "name": "fromDelegate",
          "type": "address"
        },
        {
          "indexed": true,
          "internalType": "address",
          "name": "toDelegate",
          "type": "address"
        }
      ],
      "name": "DelegateChanged",
      "type": "event"
    },
    {
      "anonymous": false,
      "inputs": [
        {
          "indexed": true,
          "internalType": "address",
          "name": "delegate",
          "type": "address"
        },
        {
          "indexed": false,
          "internalType": "uint256",
          "name": "previousBalance",
          "type": "uint256"
        },
        {
          "indexed": false,
          "internalType": "uint256",
          "name": "newBalance",
          "type": "uint256"
        }
      ],
      "name": "DelegateVotesChanged",
      "type": "event"
    },
    {
      "anonymous": false,
      "inputs": [
        {
          "indexed": true,
          "internalType": "address",
          "name": "previousOwner",
          "type": "address"
        },
        {
          "indexed": true,
          "internalType": "address",
          "name": "newOwner",
          "type": "address"
        }
      ],
      "name": "OwnershipTransferred",
      "type": "event"
    },
    {
      "anonymous": false,
      "inputs": [
        {
          "indexed": true,
          "internalType": "address",
          "name": "from",
          "type": "address"
        },
        {
          "indexed": true,
          "internalType": "address",
          "name": "to",
          "type": "address"
        },
        {
          "indexed": false,
          "internalType": "uint256",
          "name": "value",
          "type": "uint256"
        }
      ],
      "name": "Transfer",
      "type": "event"
    },
    {
      "inputs": [],
      "name": "DOMAIN_SEPARATOR",
      "outputs": [
        {
          "internalType": "bytes32",
          "name": "",
          "type": "bytes32"
        }
      ],
      "stateMutability": "view",
      "type": "function"
    },
    {
      "inputs": [
        {
          "internalType": "address",
          "name": "owner",
          "type": "address"
        },
        {
          "internalType": "address",
          "name": "spender",
          "type": "address"
        }
      ],
      "name": "allowance",
      "outputs": [
        {
          "internalType": "uint256",
          "name": "",
          "type": "uint256"
        }
      ],
      "stateMutability": "view",
      "type": "function"
    },
    {
      "inputs": [
        {
          "internalType": "address",
          "name": "spender",
          "type": "address"
        },
        {
          "internalType": "uint256",
          "name": "amount",
          "type": "uint256"
        }
      ],
      "name": "approve",
      "outputs": [
        {
          "internalType": "bool",
          "name": "",
          "type": "bool"
        }
      ],
      "stateMutability": "nonpayable",
      "type": "function"
    },
    {
      "inputs": [
        {
          "internalType": "address",
          "name": "account",
          "type": "address"
        }
      ],
      "name": "balanceOf",
      "outputs": [
        {
          "internalType": "uint256",
          "name": "",
          "type": "uint256"
        }
      ],
      "stateMutability": "view",
      "type": "function"
    },
    {
      "inputs": [
        {
          "internalType": "address",
          "name": "account",
          "type": "address"
        },
        {
          "internalType": "uint32",
          "name": "pos",
          "type": "uint32"
        }
      ],
      "name": "checkpoints",
      "outputs": [
        {
          "components": [
            {
              "internalType": "uint32",
              "name": "fromBlock",
              "type": "uint32"
            },
            {
              "internalType": "uint224",
              "name": "votes",
              "type": "uint224"
            }
          ],
          "internalType": "struct ERC20Votes.Checkpoint",
          "name": "",
          "type": "tuple"
        }
      ],
      "stateMutability": "view",
      "type": "function"
    },
    {
      "inputs": [],
      "name": "decimals",
      "outputs": [
        {
          "internalType": "uint8",
          "name": "",
          "type": "uint8"
        }
      ],
      "stateMutability": "view",
      "type": "function"
    },
    {
      "inputs": [
        {
          "internalType": "address",
          "name": "spender",
          "type": "address"
        },
        {
          "internalType": "uint256",
          "name": "subtractedValue",
          "type": "uint256"
        }
      ],
      "name": "decreaseAllowance",
      "outputs": [
        {
          "internalType": "bool",
          "name": "",
          "type": "bool"
        }
      ],
      "stateMutability": "nonpayable",
      "type": "function"
    },
    {
      "inputs": [
        {
          "internalType": "address",
          "name": "delegatee",
          "type": "address"
        }
      ],
      "name": "delegate",
      "outputs": [],
      "stateMutability": "nonpayable",
      "type": "function"
    },
    {
      "inputs": [
        {
          "internalType": "address",
          "name": "delegatee",
          "type": "address"
        },
        {
          "internalType": "uint256",
          "name": "nonce",
          "type": "uint256"
        },
        {
          "internalType": "uint256",
          "name": "expiry",
          "type": "uint256"
        },
        {
          "internalType": "uint8",
          "name": "v",
          "type": "uint8"
        },
        {
          "internalType": "bytes32",
          "name": "r",
          "type": "bytes32"
        },
        {
          "internalType": "bytes32",
          "name": "s",
          "type": "bytes32"
        }
      ],
      "name": "delegateBySig",
      "outputs": [],
      "stateMutability": "nonpayable",
      "type": "function"
    },
    {
      "inputs": [
        {
          "internalType": "address",
          "name": "account",
          "type": "address"
        }
      ],
      "name": "delegates",
      "outputs": [
        {
          "internalType": "address",
          "name": "",
          "type": "address"
        }
      ],
      "stateMutability": "view",
      "type": "function"
    },
    {
      "inputs": [],
      "name": "devShare",
      "outputs": [
        {
          "internalType": "uint256",
          "name": "",
          "type": "uint256"
        }
      ],
      "stateMutability": "view",
      "type": "function"
    },
    {
      "inputs": [
        {
          "internalType": "uint256",
          "name": "blockNumber",
          "type": "uint256"
        }
      ],
      "name": "getPastTotalSupply",
      "outputs": [
        {
          "internalType": "uint256",
          "name": "",
          "type": "uint256"
        }
      ],
      "stateMutability": "view",
      "type": "function"
    },
    {
      "inputs": [
        {
          "internalType": "address",
          "name": "account",
          "type": "address"
        },
        {
          "internalType": "uint256",
          "name": "blockNumber",
          "type": "uint256"
        }
      ],
      "name": "getPastVotes",
      "outputs": [
        {
          "internalType": "uint256",
          "name": "",
          "type": "uint256"
        }
      ],
      "stateMutability": "view",
      "type": "function"
    },
    {
      "inputs": [
        {
          "internalType": "address",
          "name": "account",
          "type": "address"
        }
      ],
      "name": "getVotes",
      "outputs": [
        {
          "internalType": "uint256",
          "name": "",
          "type": "uint256"
        }
      ],
      "stateMutability": "view",
      "type": "function"
    },
    {
      "inputs": [
        {
          "internalType": "address",
          "name": "spender",
          "type": "address"
        },
        {
          "internalType": "uint256",
          "name": "addedValue",
          "type": "uint256"
        }
      ],
      "name": "increaseAllowance",
      "outputs": [
        {
          "internalType": "bool",
          "name": "",
          "type": "bool"
        }
      ],
      "stateMutability": "nonpayable",
      "type": "function"
    },
    {
      "inputs": [
        {
          "internalType": "uint256",
          "name": "_share",
          "type": "uint256"
        }
      ],
      "name": "leave",
      "outputs": [],
      "stateMutability": "nonpayable",
      "type": "function"
    },
    {
      "inputs": [
        {
          "internalType": "address",
          "name": "_to",
          "type": "address"
        },
        {
          "internalType": "uint256",
          "name": "_amount",
          "type": "uint256"
        }
      ],
      "name": "mint",
      "outputs": [],
      "stateMutability": "nonpayable",
      "type": "function"
    },
    {
      "inputs": [],
      "name": "name",
      "outputs": [
        {
          "internalType": "string",
          "name": "",
          "type": "string"
        }
      ],
      "stateMutability": "view",
      "type": "function"
    },
    {
      "inputs": [
        {
          "internalType": "address",
          "name": "owner",
          "type": "address"
        }
      ],
      "name": "nonces",
      "outputs": [
        {
          "internalType": "uint256",
          "name": "",
          "type": "uint256"
        }
      ],
      "stateMutability": "view",
      "type": "function"
    },
    {
      "inputs": [
        {
          "internalType": "address",
          "name": "account",
          "type": "address"
        }
      ],
      "name": "numCheckpoints",
      "outputs": [
        {
          "internalType": "uint32",
          "name": "",
          "type": "uint32"
        }
      ],
      "stateMutability": "view",
      "type": "function"
    },
    {
      "inputs": [],
      "name": "owner",
      "outputs": [
        {
          "internalType": "address",
          "name": "",
          "type": "address"
        }
      ],
      "stateMutability": "view",
      "type": "function"
    },
    {
      "inputs": [
        {
          "internalType": "address",
          "name": "owner",
          "type": "address"
        },
        {
          "internalType": "address",
          "name": "spender",
          "type": "address"
        },
        {
          "internalType": "uint256",
          "name": "value",
          "type": "uint256"
        },
        {
          "internalType": "uint256",
          "name": "deadline",
          "type": "uint256"
        },
        {
          "internalType": "uint8",
          "name": "v",
          "type": "uint8"
        },
        {
          "internalType": "bytes32",
          "name": "r",
          "type": "bytes32"
        },
        {
          "internalType": "bytes32",
          "name": "s",
          "type": "bytes32"
        }
      ],
      "name": "permit",
      "outputs": [],
      "stateMutability": "nonpayable",
      "type": "function"
    },
    {
      "inputs": [],
      "name": "renounceOwnership",
      "outputs": [],
      "stateMutability": "nonpayable",
      "type": "function"
    },
    {
      "inputs": [],
      "name": "symbol",
      "outputs": [
        {
          "internalType": "string",
          "name": "",
          "type": "string"
        }
      ],
      "stateMutability": "view",
      "type": "function"
    },
    {
      "inputs": [],
      "name": "token",
      "outputs": [
        {
          "internalType": "contract IERC20",
          "name": "",
          "type": "address"
        }
      ],
      "stateMutability": "view",
      "type": "function"
    },
    {
      "inputs": [],
      "name": "totalSupply",
      "outputs": [
        {
          "internalType": "uint256",
          "name": "",
          "type": "uint256"
        }
      ],
      "stateMutability": "view",
      "type": "function"
    },
    {
      "inputs": [
        {
          "internalType": "address",
          "name": "to",
          "type": "address"
        },
        {
          "internalType": "uint256",
          "name": "amount",
          "type": "uint256"
        }
      ],
      "name": "transfer",
      "outputs": [
        {
          "internalType": "bool",
          "name": "",
          "type": "bool"
        }
      ],
      "stateMutability": "nonpayable",
      "type": "function"
    },
    {
      "inputs": [
        {
          "internalType": "address",
          "name": "from",
          "type": "address"
        },
        {
          "internalType": "address",
          "name": "to",
          "type": "address"
        },
        {
          "internalType": "uint256",
          "name": "amount",
          "type": "uint256"
        }
      ],
      "name": "transferFrom",
      "outputs": [
        {
          "internalType": "bool",
          "name": "",
          "type": "bool"
        }
      ],
      "stateMutability": "nonpayable",
      "type": "function"
    },
    {
      "inputs": [
        {
          "internalType": "address",
          "name": "newOwner",
          "type": "address"
        }
      ],
      "name": "transferOwnership",
      "outputs": [],
      "stateMutability": "nonpayable",
      "type": "function"
    },
    {
      "inputs": [],
      "name": "withdrawal",
      "outputs": [],
      "stateMutability": "nonpayable",
      "type": "function"
    }
  ],
  "transactionHash": "0x324fda64750cd2cbc31ac2d12e077c16436a57e7511b099044b74a1275e5806f",
  "args": [
    "0xC975Ab048002DB8C3914094116AF50ef6cF6136c"
  ],
  "numDeployments": 1,
  "solcInputHash": "7cb62472b26103e9c67679bc2886b7c4",
  "bytecode": "0x6101606040527f6e71edae12b1b97f4d1f60370fef10105fa2faae0126114a169c64845d6126c96101409081525067a688906bd8b00000600b553480156200004657600080fd5b5060405162005c1f38038062005c1f83398181016040528101906200006c919062000e10565b6040518060400160405280600f81526020017f476f7665726e616e6365546f6b656e0000000000000000000000000000000000815250806040518060400160405280600181526020017f31000000000000000000000000000000000000000000000000000000000000008152506040518060400160405280600f81526020017f476f7665726e616e6365546f6b656e00000000000000000000000000000000008152506040518060400160405280600281526020017f475400000000000000000000000000000000000000000000000000000000000081525081600390805190602001906200015d92919062000d49565b5080600490805190602001906200017692919062000d49565b50505060008280519060200120905060008280519060200120905060007f8b73c3c69bb8fe3d512ecc4cf759cc79239f7b179b0ffacaa9a75d522b39400f90508260e081815250508161010081815250504660a08181525050620001e2818484620002ab60201b60201c565b608081815250503073ffffffffffffffffffffffffffffffffffffffff1660c08173ffffffffffffffffffffffffffffffffffffffff1660601b815250508061012081815250505050505050506200024f62000243620002e760201b60201c565b620002ef60201b60201c565b80600a60006101000a81548173ffffffffffffffffffffffffffffffffffffffff021916908373ffffffffffffffffffffffffffffffffffffffff160217905550620002a433600b54620003b560201b60201c565b50620012ef565b60008383834630604051602001620002c895949392919062000f0b565b6040516020818303038152906040528051906020012090509392505050565b600033905090565b6000600960009054906101000a900473ffffffffffffffffffffffffffffffffffffffff16905081600960006101000a81548173ffffffffffffffffffffffffffffffffffffffff021916908373ffffffffffffffffffffffffffffffffffffffff1602179055508173ffffffffffffffffffffffffffffffffffffffff168173ffffffffffffffffffffffffffffffffffffffff167f8be0079c531659141344cd1fd0a4f28419497f9722a3daafe3b4186f6b6457e060405160405180910390a35050565b620003cc8282620003d060201b6200180a1760201c565b5050565b620003e782826200048e60201b620018971760201c565b620003f76200060760201b60201c565b7bffffffffffffffffffffffffffffffffffffffffffffffffffffffff16620004256200062b60201b60201c565b111562000469576040517f08c379a0000000000000000000000000000000000000000000000000000000008152600401620004609062000f68565b60405180910390fd5b6200048860086200063560201b620019f717836200064d60201b60201c565b50505050565b600073ffffffffffffffffffffffffffffffffffffffff168273ffffffffffffffffffffffffffffffffffffffff16141562000501576040517f08c379a0000000000000000000000000000000000000000000000000000000008152600401620004f89062000fce565b60405180910390fd5b62000515600083836200096a60201b60201c565b80600260008282546200052991906200104b565b92505081905550806000808473ffffffffffffffffffffffffffffffffffffffff1673ffffffffffffffffffffffffffffffffffffffff16815260200190815260200160002060008282546200058091906200104b565b925050819055508173ffffffffffffffffffffffffffffffffffffffff16600073ffffffffffffffffffffffffffffffffffffffff167fddf252ad1be2c89b69c2b068fc378daa952ba7f163c4a11628f55a4df523b3ef83604051620005e7919062000ff0565b60405180910390a362000603600083836200096f60201b60201c565b5050565b60007bffffffffffffffffffffffffffffffffffffffffffffffffffffffff905090565b6000600254905090565b600081836200064591906200104b565b905092915050565b60008060008580549050905060008114620006e65785600182620006729190620010a8565b81548110620006aa577f4e487b7100000000000000000000000000000000000000000000000000000000600052603260045260246000fd5b9060005260206000200160000160049054906101000a90047bffffffffffffffffffffffffffffffffffffffffffffffffffffffff16620006e9565b60005b7bffffffffffffffffffffffffffffffffffffffffffffffffffffffff1692506200071583858760201c565b91506000811180156200079257504386600183620007349190620010a8565b815481106200076c577f4e487b7100000000000000000000000000000000000000000000000000000000600052603260045260246000fd5b9060005260206000200160000160009054906101000a900463ffffffff1663ffffffff16145b156200085757620007ae826200098c60201b62001a0d1760201c565b86600183620007be9190620010a8565b81548110620007f6577f4e487b7100000000000000000000000000000000000000000000000000000000600052603260045260246000fd5b9060005260206000200160000160046101000a8154817bffffffffffffffffffffffffffffffffffffffffffffffffffffffff02191690837bffffffffffffffffffffffffffffffffffffffffffffffffffffffff16021790555062000961565b8560405180604001604052806200087943620009fa60201b62001a781760201c565b63ffffffff1681526020016200089a856200098c60201b62001a0d1760201c565b7bffffffffffffffffffffffffffffffffffffffffffffffffffffffff168152509080600181540180825580915050600190039060005260206000200160009091909190915060008201518160000160006101000a81548163ffffffff021916908363ffffffff16021790555060208201518160000160046101000a8154817bffffffffffffffffffffffffffffffffffffffffffffffffffffffff02191690837bffffffffffffffffffffffffffffffffffffffffffffffffffffffff16021790555050505b50935093915050565b505050565b6200098783838362000a5060201b62001acb1760201c565b505050565b60007bffffffffffffffffffffffffffffffffffffffffffffffffffffffff8016821115620009f2576040517f08c379a0000000000000000000000000000000000000000000000000000000008152600401620009e99062000f8a565b60405180910390fd5b819050919050565b600063ffffffff801682111562000a48576040517f08c379a000000000000000000000000000000000000000000000000000000000815260040162000a3f9062000fac565b60405180910390fd5b819050919050565b62000a6883838362000aa060201b62001af61760201c565b62000a9b62000a7d8462000aa560201b60201c565b62000a8e8462000aa560201b60201c565b8362000b0e60201b60201c565b505050565b505050565b6000600660008373ffffffffffffffffffffffffffffffffffffffff1673ffffffffffffffffffffffffffffffffffffffff16815260200190815260200160002060009054906101000a900473ffffffffffffffffffffffffffffffffffffffff169050919050565b8173ffffffffffffffffffffffffffffffffffffffff168373ffffffffffffffffffffffffffffffffffffffff161415801562000b4b5750600081115b1562000d2c57600073ffffffffffffffffffffffffffffffffffffffff168373ffffffffffffffffffffffffffffffffffffffff161462000c3e5760008062000be5600760008773ffffffffffffffffffffffffffffffffffffffff1673ffffffffffffffffffffffffffffffffffffffff16815260200190815260200160002062000d3160201b62001afb17856200064d60201b60201c565b915091508473ffffffffffffffffffffffffffffffffffffffff167fdec2bacdd2f05b59de34da9b523dff8be42e5e38e818c82fdb0bae774387a724838360405162000c339291906200100d565b60405180910390a250505b600073ffffffffffffffffffffffffffffffffffffffff168273ffffffffffffffffffffffffffffffffffffffff161462000d2b5760008062000cd2600760008673ffffffffffffffffffffffffffffffffffffffff1673ffffffffffffffffffffffffffffffffffffffff1681526020019081526020016000206200063560201b620019f717856200064d60201b60201c565b915091508373ffffffffffffffffffffffffffffffffffffffff167fdec2bacdd2f05b59de34da9b523dff8be42e5e38e818c82fdb0bae774387a724838360405162000d209291906200100d565b60405180910390a250505b5b505050565b6000818362000d419190620010a8565b905092915050565b82805462000d57906200112b565b90600052602060002090601f01602090048101928262000d7b576000855562000dc7565b82601f1062000d9657805160ff191683800117855562000dc7565b8280016001018555821562000dc7579182015b8281111562000dc657825182559160200191906001019062000da9565b5b50905062000dd6919062000dda565b5090565b5b8082111562000df557600081600090555060010162000ddb565b5090565b60008151905062000e0a81620012d5565b92915050565b60006020828403121562000e2357600080fd5b600062000e338482850162000df9565b91505092915050565b62000e4781620010e3565b82525050565b62000e5881620010f7565b82525050565b600062000e6d6030836200103a565b915062000e7a82620011bf565b604082019050919050565b600062000e946027836200103a565b915062000ea1826200120e565b604082019050919050565b600062000ebb6026836200103a565b915062000ec8826200125d565b604082019050919050565b600062000ee2601f836200103a565b915062000eef82620012ac565b602082019050919050565b62000f058162001121565b82525050565b600060a08201905062000f22600083018862000e4d565b62000f31602083018762000e4d565b62000f40604083018662000e4d565b62000f4f606083018562000efa565b62000f5e608083018462000e3c565b9695505050505050565b6000602082019050818103600083015262000f838162000e5e565b9050919050565b6000602082019050818103600083015262000fa58162000e85565b9050919050565b6000602082019050818103600083015262000fc78162000eac565b9050919050565b6000602082019050818103600083015262000fe98162000ed3565b9050919050565b600060208201905062001007600083018462000efa565b92915050565b600060408201905062001024600083018562000efa565b62001033602083018462000efa565b9392505050565b600082825260208201905092915050565b6000620010588262001121565b9150620010658362001121565b9250827fffffffffffffffffffffffffffffffffffffffffffffffffffffffffffffffff038211156200109d576200109c62001161565b5b828201905092915050565b6000620010b58262001121565b9150620010c28362001121565b925082821015620010d857620010d762001161565b5b828203905092915050565b6000620010f08262001101565b9050919050565b6000819050919050565b600073ffffffffffffffffffffffffffffffffffffffff82169050919050565b6000819050919050565b600060028204905060018216806200114457607f821691505b602082108114156200115b576200115a62001190565b5b50919050565b7f4e487b7100000000000000000000000000000000000000000000000000000000600052601160045260246000fd5b7f4e487b7100000000000000000000000000000000000000000000000000000000600052602260045260246000fd5b7f4552433230566f7465733a20746f74616c20737570706c79207269736b73206f60008201527f766572666c6f77696e6720766f74657300000000000000000000000000000000602082015250565b7f53616665436173743a2076616c756520646f65736e27742066697420696e203260008201527f3234206269747300000000000000000000000000000000000000000000000000602082015250565b7f53616665436173743a2076616c756520646f65736e27742066697420696e203360008201527f3220626974730000000000000000000000000000000000000000000000000000602082015250565b7f45524332303a206d696e7420746f20746865207a65726f206164647265737300600082015250565b620012e081620010e3565b8114620012ec57600080fd5b50565b60805160a05160c05160601c60e0516101005161012051610140516148d26200134d60003960006114340152600061209f015260006120e1015260006120c001526000611ff50152600061204b0152600061207401526148d26000f3fe608060405234801561001057600080fd5b50600436106101da5760003560e01c80637ecebe0011610104578063aed04fae116100a2578063dd62ed3e11610071578063dd62ed3e14610591578063f1127ed8146105c1578063f2fde38b146105f1578063fc0c546a1461060d576101da565b8063aed04fae14610531578063c3cda5201461054f578063d4e932921461056b578063d505accf14610575576101da565b806395d89b41116100de57806395d89b41146104835780639ab24eb0146104a1578063a457c2d7146104d1578063a9059cbb14610501576101da565b80637ecebe00146104055780638da5cb5b146104355780638e539e8c14610453576101da565b80633a46b1a81161017c57806367dfd4c91161014b57806367dfd4c91461037f5780636fcfff451461039b57806370a08231146103cb578063715018a6146103fb576101da565b80633a46b1a8146102e757806340c10f1914610317578063587cde1e146103335780635c19a95c14610363576101da565b806323b872dd116101b857806323b872dd1461024b578063313ce5671461027b5780633644e5151461029957806339509351146102b7576101da565b806306fdde03146101df578063095ea7b3146101fd57806318160ddd1461022d575b600080fd5b6101e761062b565b6040516101f49190613b42565b60405180910390f35b6102176004803603810190610212919061334b565b6106bd565b60405161022491906139b3565b60405180910390f35b6102356106e0565b6040516102429190613e7f565b60405180910390f35b6102656004803603810190610260919061325e565b6106ea565b60405161027291906139b3565b60405180910390f35b610283610719565b6040516102909190613ede565b60405180910390f35b6102a1610722565b6040516102ae91906139ce565b60405180910390f35b6102d160048036038101906102cc919061334b565b610731565b6040516102de91906139b3565b60405180910390f35b61030160048036038101906102fc919061334b565b6107db565b60405161030e9190613e7f565b60405180910390f35b610331600480360381019061032c919061334b565b61086f565b005b61034d600480360381019061034891906131f9565b6108f9565b60405161035a919061396f565b60405180910390f35b61037d600480360381019061037891906131f9565b610962565b005b61039960048036038101906103949190613475565b610976565b005b6103b560048036038101906103b091906131f9565b610b06565b6040516103c29190613ec3565b60405180910390f35b6103e560048036038101906103e091906131f9565b610b5a565b6040516103f29190613e7f565b60405180910390f35b610403610ba2565b005b61041f600480360381019061041a91906131f9565b610c2a565b60405161042c9190613e7f565b60405180910390f35b61043d610c7a565b60405161044a919061396f565b60405180910390f35b61046d60048036038101906104689190613475565b610ca4565b60405161047a9190613e7f565b60405180910390f35b61048b610cfa565b6040516104989190613b42565b60405180910390f35b6104bb60048036038101906104b691906131f9565b610d8c565b6040516104c89190613e7f565b60405180910390f35b6104eb60048036038101906104e6919061334b565b610ec3565b6040516104f891906139b3565b60405180910390f35b61051b6004803603810190610516919061334b565b610fad565b60405161052891906139b3565b60405180910390f35b610539610fd0565b6040516105469190613e7f565b60405180910390f35b61056960048036038101906105649190613387565b610fd6565b005b6105736110da565b005b61058f600480360381019061058a91906132ad565b6113ed565b005b6105ab60048036038101906105a69190613222565b61152f565b6040516105b89190613e7f565b60405180910390f35b6105db60048036038101906105d69190613410565b6115b6565b6040516105e89190613e64565b60405180910390f35b61060b600480360381019061060691906131f9565b6116ec565b005b6106156117e4565b6040516106229190613b27565b60405180910390f35b60606003805461063a90614123565b80601f016020809104026020016040519081016040528092919081815260200182805461066690614123565b80156106b35780601f10610688576101008083540402835291602001916106b3565b820191906000526020600020905b81548152906001019060200180831161069657829003601f168201915b5050505050905090565b6000806106c8611b11565b90506106d5818585611b19565b600191505092915050565b6000600254905090565b6000806106f5611b11565b9050610702858285611ce4565b61070d858585611d70565b60019150509392505050565b60006012905090565b600061072c611ff1565b905090565b60008061073c611b11565b90506107d0818585600160008673ffffffffffffffffffffffffffffffffffffffff1673ffffffffffffffffffffffffffffffffffffffff16815260200190815260200160002060008973ffffffffffffffffffffffffffffffffffffffff1673ffffffffffffffffffffffffffffffffffffffff168152602001908152602001600020546107cb9190613f20565b611b19565b600191505092915050565b600043821061081f576040517f08c379a000000000000000000000000000000000000000000000000000000000815260040161081690613ba4565b60405180910390fd5b610867600760008573ffffffffffffffffffffffffffffffffffffffff1673ffffffffffffffffffffffffffffffffffffffff1681526020019081526020016000208361210b565b905092915050565b610877611b11565b73ffffffffffffffffffffffffffffffffffffffff16610895610c7a565b73ffffffffffffffffffffffffffffffffffffffff16146108eb576040517f08c379a00000000000000000000000000000000000000000000000000000000081526004016108e290613d64565b60405180910390fd5b6108f58282612263565b5050565b6000600660008373ffffffffffffffffffffffffffffffffffffffff1673ffffffffffffffffffffffffffffffffffffffff16815260200190815260200160002060009054906101000a900473ffffffffffffffffffffffffffffffffffffffff169050919050565b61097361096d611b11565b82612271565b50565b60006109806106e0565b9050600081600a60009054906101000a900473ffffffffffffffffffffffffffffffffffffffff1673ffffffffffffffffffffffffffffffffffffffff166370a08231306040518263ffffffff1660e01b81526004016109e0919061396f565b60206040518083038186803b1580156109f857600080fd5b505afa158015610a0c573d6000803e3d6000fd5b505050506040513d601f19601f82011682018060405250810190610a30919061349e565b84610a3b9190613fa7565b610a459190613f76565b9050610a51338461238b565b600a60009054906101000a900473ffffffffffffffffffffffffffffffffffffffff1673ffffffffffffffffffffffffffffffffffffffff1663a9059cbb33836040518363ffffffff1660e01b8152600401610aae92919061398a565b602060405180830381600087803b158015610ac857600080fd5b505af1158015610adc573d6000803e3d6000fd5b505050506040513d601f19601f82011682018060405250810190610b00919061344c565b50505050565b6000610b53600760008473ffffffffffffffffffffffffffffffffffffffff1673ffffffffffffffffffffffffffffffffffffffff16815260200190815260200160002080549050611a78565b9050919050565b60008060008373ffffffffffffffffffffffffffffffffffffffff1673ffffffffffffffffffffffffffffffffffffffff168152602001908152602001600020549050919050565b610baa611b11565b73ffffffffffffffffffffffffffffffffffffffff16610bc8610c7a565b73ffffffffffffffffffffffffffffffffffffffff1614610c1e576040517f08c379a0000000000000000000000000000000000000000000000000000000008152600401610c1590613d64565b60405180910390fd5b610c286000612399565b565b6000610c73600560008473ffffffffffffffffffffffffffffffffffffffff1673ffffffffffffffffffffffffffffffffffffffff16815260200190815260200160002061245f565b9050919050565b6000600960009054906101000a900473ffffffffffffffffffffffffffffffffffffffff16905090565b6000438210610ce8576040517f08c379a0000000000000000000000000000000000000000000000000000000008152600401610cdf90613ba4565b60405180910390fd5b610cf360088361210b565b9050919050565b606060048054610d0990614123565b80601f0160208091040260200160405190810160405280929190818152602001828054610d3590614123565b8015610d825780601f10610d5757610100808354040283529160200191610d82565b820191906000526020600020905b815481529060010190602001808311610d6557829003601f168201915b5050505050905090565b600080600760008473ffffffffffffffffffffffffffffffffffffffff1673ffffffffffffffffffffffffffffffffffffffff16815260200190815260200160002080549050905060008114610e9a57600760008473ffffffffffffffffffffffffffffffffffffffff1673ffffffffffffffffffffffffffffffffffffffff168152602001908152602001600020600182610e289190614001565b81548110610e5f577f4e487b7100000000000000000000000000000000000000000000000000000000600052603260045260246000fd5b9060005260206000200160000160049054906101000a90047bffffffffffffffffffffffffffffffffffffffffffffffffffffffff16610e9d565b60005b7bffffffffffffffffffffffffffffffffffffffffffffffffffffffff16915050919050565b600080610ece611b11565b90506000600160008373ffffffffffffffffffffffffffffffffffffffff1673ffffffffffffffffffffffffffffffffffffffff16815260200190815260200160002060008673ffffffffffffffffffffffffffffffffffffffff1673ffffffffffffffffffffffffffffffffffffffff16815260200190815260200160002054905083811015610f94576040517f08c379a0000000000000000000000000000000000000000000000000000000008152600401610f8b90613e24565b60405180910390fd5b610fa18286868403611b19565b60019250505092915050565b600080610fb8611b11565b9050610fc5818585611d70565b600191505092915050565b600b5481565b83421115611019576040517f08c379a000000000000000000000000000000000000000000000000000000000815260040161101090613bc4565b60405180910390fd5b600061107b6110737fe48329057bfd03d55e49b547132e39cffd9c1820ad7b9d4c5307691425d15adf8989896040516020016110589493929190613a4a565b6040516020818303038152906040528051906020012061246d565b858585612487565b9050611086816124b2565b86146110c7576040517f08c379a00000000000000000000000000000000000000000000000000000000081526004016110be90613c24565b60405180910390fd5b6110d18188612271565b50505050505050565b6000600a60009054906101000a900473ffffffffffffffffffffffffffffffffffffffff1673ffffffffffffffffffffffffffffffffffffffff166370a08231336040518263ffffffff1660e01b8152600401611137919061396f565b60206040518083038186803b15801561114f57600080fd5b505afa158015611163573d6000803e3d6000fd5b505050506040513d601f19601f82011682018060405250810190611187919061349e565b905060006111936106e0565b9050600081600a60009054906101000a900473ffffffffffffffffffffffffffffffffffffffff1673ffffffffffffffffffffffffffffffffffffffff166370a08231306040518263ffffffff1660e01b81526004016111f3919061396f565b60206040518083038186803b15801561120b57600080fd5b505afa15801561121f573d6000803e3d6000fd5b505050506040513d601f19601f82011682018060405250810190611243919061349e565b8461124e9190613fa7565b6112589190613f76565b9050828111156113e857600a60009054906101000a900473ffffffffffffffffffffffffffffffffffffffff1673ffffffffffffffffffffffffffffffffffffffff1663a9059cbb3385846112ad9190614001565b6040518363ffffffff1660e01b81526004016112ca92919061398a565b602060405180830381600087803b1580156112e457600080fd5b505af11580156112f8573d6000803e3d6000fd5b505050506040513d601f19601f8201168201806040525081019061131c919061344c565b506113e733600a60009054906101000a900473ffffffffffffffffffffffffffffffffffffffff1673ffffffffffffffffffffffffffffffffffffffff166370a08231306040518263ffffffff1660e01b815260040161137c919061396f565b60206040518083038186803b15801561139457600080fd5b505afa1580156113a8573d6000803e3d6000fd5b505050506040513d601f19601f820116820180604052508101906113cc919061349e565b84866113d89190613fa7565b6113e29190613f76565b61238b565b5b505050565b83421115611430576040517f08c379a000000000000000000000000000000000000000000000000000000000815260040161142790613ca4565b60405180910390fd5b60007f000000000000000000000000000000000000000000000000000000000000000088888861145f8c6124b2565b89604051602001611475969594939291906139e9565b60405160208183030381529060405280519060200120905060006114988261246d565b905060006114a882878787612487565b90508973ffffffffffffffffffffffffffffffffffffffff168173ffffffffffffffffffffffffffffffffffffffff1614611518576040517f08c379a000000000000000000000000000000000000000000000000000000000815260040161150f90613d24565b60405180910390fd5b6115238a8a8a611b19565b50505050505050505050565b6000600160008473ffffffffffffffffffffffffffffffffffffffff1673ffffffffffffffffffffffffffffffffffffffff16815260200190815260200160002060008373ffffffffffffffffffffffffffffffffffffffff1673ffffffffffffffffffffffffffffffffffffffff16815260200190815260200160002054905092915050565b6115be613128565b600760008473ffffffffffffffffffffffffffffffffffffffff1673ffffffffffffffffffffffffffffffffffffffff1681526020019081526020016000208263ffffffff168154811061163b577f4e487b7100000000000000000000000000000000000000000000000000000000600052603260045260246000fd5b906000526020600020016040518060400160405290816000820160009054906101000a900463ffffffff1663ffffffff1663ffffffff1681526020016000820160049054906101000a90047bffffffffffffffffffffffffffffffffffffffffffffffffffffffff167bffffffffffffffffffffffffffffffffffffffffffffffffffffffff167bffffffffffffffffffffffffffffffffffffffffffffffffffffffff1681525050905092915050565b6116f4611b11565b73ffffffffffffffffffffffffffffffffffffffff16611712610c7a565b73ffffffffffffffffffffffffffffffffffffffff1614611768576040517f08c379a000000000000000000000000000000000000000000000000000000000815260040161175f90613d64565b60405180910390fd5b600073ffffffffffffffffffffffffffffffffffffffff168173ffffffffffffffffffffffffffffffffffffffff1614156117d8576040517f08c379a00000000000000000000000000000000000000000000000000000000081526004016117cf90613c44565b60405180910390fd5b6117e181612399565b50565b600a60009054906101000a900473ffffffffffffffffffffffffffffffffffffffff1681565b6118148282611897565b61181c612510565b7bffffffffffffffffffffffffffffffffffffffffffffffffffffffff166118426106e0565b1115611883576040517f08c379a000000000000000000000000000000000000000000000000000000000815260040161187a90613d44565b60405180910390fd5b61189160086119f783612534565b50505050565b600073ffffffffffffffffffffffffffffffffffffffff168273ffffffffffffffffffffffffffffffffffffffff161415611907576040517f08c379a00000000000000000000000000000000000000000000000000000000081526004016118fe90613e44565b60405180910390fd5b6119136000838361281e565b80600260008282546119259190613f20565b92505081905550806000808473ffffffffffffffffffffffffffffffffffffffff1673ffffffffffffffffffffffffffffffffffffffff168152602001908152602001600020600082825461197a9190613f20565b925050819055508173ffffffffffffffffffffffffffffffffffffffff16600073ffffffffffffffffffffffffffffffffffffffff167fddf252ad1be2c89b69c2b068fc378daa952ba7f163c4a11628f55a4df523b3ef836040516119df9190613e7f565b60405180910390a36119f360008383612823565b5050565b60008183611a059190613f20565b905092915050565b60007bffffffffffffffffffffffffffffffffffffffffffffffffffffffff8016821115611a70576040517f08c379a0000000000000000000000000000000000000000000000000000000008152600401611a6790613d84565b60405180910390fd5b819050919050565b600063ffffffff8016821115611ac3576040517f08c379a0000000000000000000000000000000000000000000000000000000008152600401611aba90613de4565b60405180910390fd5b819050919050565b611ad6838383611af6565b611af1611ae2846108f9565b611aeb846108f9565b83612833565b505050565b505050565b60008183611b099190614001565b905092915050565b600033905090565b600073ffffffffffffffffffffffffffffffffffffffff168373ffffffffffffffffffffffffffffffffffffffff161415611b89576040517f08c379a0000000000000000000000000000000000000000000000000000000008152600401611b8090613e04565b60405180910390fd5b600073ffffffffffffffffffffffffffffffffffffffff168273ffffffffffffffffffffffffffffffffffffffff161415611bf9576040517f08c379a0000000000000000000000000000000000000000000000000000000008152600401611bf090613c64565b60405180910390fd5b80600160008573ffffffffffffffffffffffffffffffffffffffff1673ffffffffffffffffffffffffffffffffffffffff16815260200190815260200160002060008473ffffffffffffffffffffffffffffffffffffffff1673ffffffffffffffffffffffffffffffffffffffff168152602001908152602001600020819055508173ffffffffffffffffffffffffffffffffffffffff168373ffffffffffffffffffffffffffffffffffffffff167f8c5be1e5ebec7d5bd14f71427d1e84f3dd0314c0f7b2291e5b200ac8c7c3b92583604051611cd79190613e7f565b60405180910390a3505050565b6000611cf0848461152f565b90507fffffffffffffffffffffffffffffffffffffffffffffffffffffffffffffffff8114611d6a5781811015611d5c576040517f08c379a0000000000000000000000000000000000000000000000000000000008152600401611d5390613c84565b60405180910390fd5b611d698484848403611b19565b5b50505050565b600073ffffffffffffffffffffffffffffffffffffffff168373ffffffffffffffffffffffffffffffffffffffff161415611de0576040517f08c379a0000000000000000000000000000000000000000000000000000000008152600401611dd790613dc4565b60405180910390fd5b600073ffffffffffffffffffffffffffffffffffffffff168273ffffffffffffffffffffffffffffffffffffffff161415611e50576040517f08c379a0000000000000000000000000000000000000000000000000000000008152600401611e4790613b84565b60405180910390fd5b611e5b83838361281e565b60008060008573ffffffffffffffffffffffffffffffffffffffff1673ffffffffffffffffffffffffffffffffffffffff16815260200190815260200160002054905081811015611ee1576040517f08c379a0000000000000000000000000000000000000000000000000000000008152600401611ed890613cc4565b60405180910390fd5b8181036000808673ffffffffffffffffffffffffffffffffffffffff1673ffffffffffffffffffffffffffffffffffffffff16815260200190815260200160002081905550816000808573ffffffffffffffffffffffffffffffffffffffff1673ffffffffffffffffffffffffffffffffffffffff1681526020019081526020016000206000828254611f749190613f20565b925050819055508273ffffffffffffffffffffffffffffffffffffffff168473ffffffffffffffffffffffffffffffffffffffff167fddf252ad1be2c89b69c2b068fc378daa952ba7f163c4a11628f55a4df523b3ef84604051611fd89190613e7f565b60405180910390a3611feb848484612823565b50505050565b60007f000000000000000000000000000000000000000000000000000000000000000073ffffffffffffffffffffffffffffffffffffffff163073ffffffffffffffffffffffffffffffffffffffff1614801561206d57507f000000000000000000000000000000000000000000000000000000000000000046145b1561209a577f00000000000000000000000000000000000000000000000000000000000000009050612108565b6121057f00000000000000000000000000000000000000000000000000000000000000007f00000000000000000000000000000000000000000000000000000000000000007f0000000000000000000000000000000000000000000000000000000000000000612a2c565b90505b90565b6000808380549050905060005b818110156121b057600061212c8284612a66565b905084868281548110612168577f4e487b7100000000000000000000000000000000000000000000000000000000600052603260045260246000fd5b9060005260206000200160000160009054906101000a900463ffffffff1663ffffffff16111561219a578092506121aa565b6001816121a79190613f20565b91505b50612118565b6000821461223857846001836121c69190614001565b815481106121fd577f4e487b7100000000000000000000000000000000000000000000000000000000600052603260045260246000fd5b9060005260206000200160000160049054906101000a90047bffffffffffffffffffffffffffffffffffffffffffffffffffffffff1661223b565b60005b7bffffffffffffffffffffffffffffffffffffffffffffffffffffffff169250505092915050565b61226d828261180a565b5050565b600061227c836108f9565b9050600061228984610b5a565b905082600660008673ffffffffffffffffffffffffffffffffffffffff1673ffffffffffffffffffffffffffffffffffffffff16815260200190815260200160002060006101000a81548173ffffffffffffffffffffffffffffffffffffffff021916908373ffffffffffffffffffffffffffffffffffffffff1602179055508273ffffffffffffffffffffffffffffffffffffffff168273ffffffffffffffffffffffffffffffffffffffff168573ffffffffffffffffffffffffffffffffffffffff167f3134e8a2e6d97e929a7e54011ea5485d7d196dd5f0ba4d4ef95803e8e3fc257f60405160405180910390a4612385828483612833565b50505050565b6123958282612a8c565b5050565b6000600960009054906101000a900473ffffffffffffffffffffffffffffffffffffffff16905081600960006101000a81548173ffffffffffffffffffffffffffffffffffffffff021916908373ffffffffffffffffffffffffffffffffffffffff1602179055508173ffffffffffffffffffffffffffffffffffffffff168173ffffffffffffffffffffffffffffffffffffffff167f8be0079c531659141344cd1fd0a4f28419497f9722a3daafe3b4186f6b6457e060405160405180910390a35050565b600081600001549050919050565b600061248061247a611ff1565b83612aaa565b9050919050565b600080600061249887878787612add565b915091506124a581612bea565b8192505050949350505050565b600080600560008473ffffffffffffffffffffffffffffffffffffffff1673ffffffffffffffffffffffffffffffffffffffff16815260200190815260200160002090506124ff8161245f565b915061250a81612f3b565b50919050565b60007bffffffffffffffffffffffffffffffffffffffffffffffffffffffff905090565b600080600085805490509050600081146125c857856001826125569190614001565b8154811061258d577f4e487b7100000000000000000000000000000000000000000000000000000000600052603260045260246000fd5b9060005260206000200160000160049054906101000a90047bffffffffffffffffffffffffffffffffffffffffffffffffffffffff166125cb565b60005b7bffffffffffffffffffffffffffffffffffffffffffffffffffffffff1692506125f983858763ffffffff16565b9150600081118015612672575043866001836126159190614001565b8154811061264c577f4e487b7100000000000000000000000000000000000000000000000000000000600052603260045260246000fd5b9060005260206000200160000160009054906101000a900463ffffffff1663ffffffff16145b156127255761268082611a0d565b8660018361268e9190614001565b815481106126c5577f4e487b7100000000000000000000000000000000000000000000000000000000600052603260045260246000fd5b9060005260206000200160000160046101000a8154817bffffffffffffffffffffffffffffffffffffffffffffffffffffffff02191690837bffffffffffffffffffffffffffffffffffffffffffffffffffffffff160217905550612815565b85604051806040016040528061273a43611a78565b63ffffffff16815260200161274e85611a0d565b7bffffffffffffffffffffffffffffffffffffffffffffffffffffffff168152509080600181540180825580915050600190039060005260206000200160009091909190915060008201518160000160006101000a81548163ffffffff021916908363ffffffff16021790555060208201518160000160046101000a8154817bffffffffffffffffffffffffffffffffffffffffffffffffffffffff02191690837bffffffffffffffffffffffffffffffffffffffffffffffffffffffff16021790555050505b50935093915050565b505050565b61282e838383611acb565b505050565b8173ffffffffffffffffffffffffffffffffffffffff168373ffffffffffffffffffffffffffffffffffffffff161415801561286f5750600081115b15612a2757600073ffffffffffffffffffffffffffffffffffffffff168373ffffffffffffffffffffffffffffffffffffffff161461294d576000806128f6600760008773ffffffffffffffffffffffffffffffffffffffff1673ffffffffffffffffffffffffffffffffffffffff168152602001908152602001600020611afb85612534565b915091508473ffffffffffffffffffffffffffffffffffffffff167fdec2bacdd2f05b59de34da9b523dff8be42e5e38e818c82fdb0bae774387a7248383604051612942929190613e9a565b60405180910390a250505b600073ffffffffffffffffffffffffffffffffffffffff168273ffffffffffffffffffffffffffffffffffffffff1614612a26576000806129cf600760008673ffffffffffffffffffffffffffffffffffffffff1673ffffffffffffffffffffffffffffffffffffffff1681526020019081526020016000206119f785612534565b915091508373ffffffffffffffffffffffffffffffffffffffff167fdec2bacdd2f05b59de34da9b523dff8be42e5e38e818c82fdb0bae774387a7248383604051612a1b929190613e9a565b60405180910390a250505b5b505050565b60008383834630604051602001612a47959493929190613a8f565b6040516020818303038152906040528051906020012090509392505050565b60006002828418612a779190613f76565b828416612a849190613f20565b905092915050565b612a968282612f51565b612aa46008611afb83612534565b50505050565b60008282604051602001612abf929190613938565b60405160208183030381529060405280519060200120905092915050565b6000807f7fffffffffffffffffffffffffffffff5d576e7357a4501ddfe92f46681b20a08360001c1115612b18576000600391509150612be1565b601b8560ff1614158015612b305750601c8560ff1614155b15612b42576000600491509150612be1565b600060018787878760405160008152602001604052604051612b679493929190613ae2565b6020604051602081039080840390855afa158015612b89573d6000803e3d6000fd5b505050602060405103519050600073ffffffffffffffffffffffffffffffffffffffff168173ffffffffffffffffffffffffffffffffffffffff161415612bd857600060019250925050612be1565b80600092509250505b94509492505050565b60006004811115612c24577f4e487b7100000000000000000000000000000000000000000000000000000000600052602160045260246000fd5b816004811115612c5d577f4e487b7100000000000000000000000000000000000000000000000000000000600052602160045260246000fd5b1415612c6857612f38565b60016004811115612ca2577f4e487b7100000000000000000000000000000000000000000000000000000000600052602160045260246000fd5b816004811115612cdb577f4e487b7100000000000000000000000000000000000000000000000000000000600052602160045260246000fd5b1415612d1c576040517f08c379a0000000000000000000000000000000000000000000000000000000008152600401612d1390613b64565b60405180910390fd5b60026004811115612d56577f4e487b7100000000000000000000000000000000000000000000000000000000600052602160045260246000fd5b816004811115612d8f577f4e487b7100000000000000000000000000000000000000000000000000000000600052602160045260246000fd5b1415612dd0576040517f08c379a0000000000000000000000000000000000000000000000000000000008152600401612dc790613c04565b60405180910390fd5b60036004811115612e0a577f4e487b7100000000000000000000000000000000000000000000000000000000600052602160045260246000fd5b816004811115612e43577f4e487b7100000000000000000000000000000000000000000000000000000000600052602160045260246000fd5b1415612e84576040517f08c379a0000000000000000000000000000000000000000000000000000000008152600401612e7b90613ce4565b60405180910390fd5b600480811115612ebd577f4e487b7100000000000000000000000000000000000000000000000000000000600052602160045260246000fd5b816004811115612ef6577f4e487b7100000000000000000000000000000000000000000000000000000000600052602160045260246000fd5b1415612f37576040517f08c379a0000000000000000000000000000000000000000000000000000000008152600401612f2e90613d04565b60405180910390fd5b5b50565b6001816000016000828254019250508190555050565b600073ffffffffffffffffffffffffffffffffffffffff168273ffffffffffffffffffffffffffffffffffffffff161415612fc1576040517f08c379a0000000000000000000000000000000000000000000000000000000008152600401612fb890613da4565b60405180910390fd5b612fcd8260008361281e565b60008060008473ffffffffffffffffffffffffffffffffffffffff1673ffffffffffffffffffffffffffffffffffffffff16815260200190815260200160002054905081811015613053576040517f08c379a000000000000000000000000000000000000000000000000000000000815260040161304a90613be4565b60405180910390fd5b8181036000808573ffffffffffffffffffffffffffffffffffffffff1673ffffffffffffffffffffffffffffffffffffffff1681526020019081526020016000208190555081600260008282546130aa9190614001565b92505081905550600073ffffffffffffffffffffffffffffffffffffffff168373ffffffffffffffffffffffffffffffffffffffff167fddf252ad1be2c89b69c2b068fc378daa952ba7f163c4a11628f55a4df523b3ef8460405161310f9190613e7f565b60405180910390a361312383600084612823565b505050565b6040518060400160405280600063ffffffff16815260200160007bffffffffffffffffffffffffffffffffffffffffffffffffffffffff1681525090565b60008135905061317581614812565b92915050565b60008151905061318a81614829565b92915050565b60008135905061319f81614840565b92915050565b6000813590506131b481614857565b92915050565b6000815190506131c981614857565b92915050565b6000813590506131de8161486e565b92915050565b6000813590506131f381614885565b92915050565b60006020828403121561320b57600080fd5b600061321984828501613166565b91505092915050565b6000806040838503121561323557600080fd5b600061324385828601613166565b925050602061325485828601613166565b9150509250929050565b60008060006060848603121561327357600080fd5b600061328186828701613166565b935050602061329286828701613166565b92505060406132a3868287016131a5565b9150509250925092565b600080600080600080600060e0888a0312156132c857600080fd5b60006132d68a828b01613166565b97505060206132e78a828b01613166565b96505060406132f88a828b016131a5565b95505060606133098a828b016131a5565b945050608061331a8a828b016131e4565b93505060a061332b8a828b01613190565b92505060c061333c8a828b01613190565b91505092959891949750929550565b6000806040838503121561335e57600080fd5b600061336c85828601613166565b925050602061337d858286016131a5565b9150509250929050565b60008060008060008060c087890312156133a057600080fd5b60006133ae89828a01613166565b96505060206133bf89828a016131a5565b95505060406133d089828a016131a5565b94505060606133e189828a016131e4565b93505060806133f289828a01613190565b92505060a061340389828a01613190565b9150509295509295509295565b6000806040838503121561342357600080fd5b600061343185828601613166565b9250506020613442858286016131cf565b9150509250929050565b60006020828403121561345e57600080fd5b600061346c8482850161317b565b91505092915050565b60006020828403121561348757600080fd5b6000613495848285016131a5565b91505092915050565b6000602082840312156134b057600080fd5b60006134be848285016131ba565b91505092915050565b6134d081614035565b82525050565b6134df81614047565b82525050565b6134ee81614053565b82525050565b61350561350082614053565b614155565b82525050565b613514816140cc565b82525050565b600061352582613ef9565b61352f8185613f04565b935061353f8185602086016140f0565b613548816141ec565b840191505092915050565b6000613560601883613f04565b915061356b826141fd565b602082019050919050565b6000613583602383613f04565b915061358e82614226565b604082019050919050565b60006135a6601f83613f04565b91506135b182614275565b602082019050919050565b60006135c9601d83613f04565b91506135d48261429e565b602082019050919050565b60006135ec602283613f04565b91506135f7826142c7565b604082019050919050565b600061360f601f83613f04565b915061361a82614316565b602082019050919050565b6000613632601983613f04565b915061363d8261433f565b602082019050919050565b6000613655602683613f04565b915061366082614368565b604082019050919050565b6000613678602283613f04565b9150613683826143b7565b604082019050919050565b600061369b600283613f15565b91506136a682614406565b600282019050919050565b60006136be601d83613f04565b91506136c98261442f565b602082019050919050565b60006136e1601d83613f04565b91506136ec82614458565b602082019050919050565b6000613704602683613f04565b915061370f82614481565b604082019050919050565b6000613727602283613f04565b9150613732826144d0565b604082019050919050565b600061374a602283613f04565b91506137558261451f565b604082019050919050565b600061376d601e83613f04565b91506137788261456e565b602082019050919050565b6000613790603083613f04565b915061379b82614597565b604082019050919050565b60006137b3602083613f04565b91506137be826145e6565b602082019050919050565b60006137d6602783613f04565b91506137e18261460f565b604082019050919050565b60006137f9602183613f04565b91506138048261465e565b604082019050919050565b600061381c602583613f04565b9150613827826146ad565b604082019050919050565b600061383f602683613f04565b915061384a826146fc565b604082019050919050565b6000613862602483613f04565b915061386d8261474b565b604082019050919050565b6000613885602583613f04565b91506138908261479a565b604082019050919050565b60006138a8601f83613f04565b91506138b3826147e9565b602082019050919050565b6040820160008201516138d4600085018261390b565b5060208201516138e760208501826138ed565b50505050565b6138f68161407d565b82525050565b613905816140a5565b82525050565b613914816140af565b82525050565b613923816140af565b82525050565b613932816140bf565b82525050565b60006139438261368e565b915061394f82856134f4565b60208201915061395f82846134f4565b6020820191508190509392505050565b600060208201905061398460008301846134c7565b92915050565b600060408201905061399f60008301856134c7565b6139ac60208301846138fc565b9392505050565b60006020820190506139c860008301846134d6565b92915050565b60006020820190506139e360008301846134e5565b92915050565b600060c0820190506139fe60008301896134e5565b613a0b60208301886134c7565b613a1860408301876134c7565b613a2560608301866138fc565b613a3260808301856138fc565b613a3f60a08301846138fc565b979650505050505050565b6000608082019050613a5f60008301876134e5565b613a6c60208301866134c7565b613a7960408301856138fc565b613a8660608301846138fc565b95945050505050565b600060a082019050613aa460008301886134e5565b613ab160208301876134e5565b613abe60408301866134e5565b613acb60608301856138fc565b613ad860808301846134c7565b9695505050505050565b6000608082019050613af760008301876134e5565b613b046020830186613929565b613b1160408301856134e5565b613b1e60608301846134e5565b95945050505050565b6000602082019050613b3c600083018461350b565b92915050565b60006020820190508181036000830152613b5c818461351a565b905092915050565b60006020820190508181036000830152613b7d81613553565b9050919050565b60006020820190508181036000830152613b9d81613576565b9050919050565b60006020820190508181036000830152613bbd81613599565b9050919050565b60006020820190508181036000830152613bdd816135bc565b9050919050565b60006020820190508181036000830152613bfd816135df565b9050919050565b60006020820190508181036000830152613c1d81613602565b9050919050565b60006020820190508181036000830152613c3d81613625565b9050919050565b60006020820190508181036000830152613c5d81613648565b9050919050565b60006020820190508181036000830152613c7d8161366b565b9050919050565b60006020820190508181036000830152613c9d816136b1565b9050919050565b60006020820190508181036000830152613cbd816136d4565b9050919050565b60006020820190508181036000830152613cdd816136f7565b9050919050565b60006020820190508181036000830152613cfd8161371a565b9050919050565b60006020820190508181036000830152613d1d8161373d565b9050919050565b60006020820190508181036000830152613d3d81613760565b9050919050565b60006020820190508181036000830152613d5d81613783565b9050919050565b60006020820190508181036000830152613d7d816137a6565b9050919050565b60006020820190508181036000830152613d9d816137c9565b9050919050565b60006020820190508181036000830152613dbd816137ec565b9050919050565b60006020820190508181036000830152613ddd8161380f565b9050919050565b60006020820190508181036000830152613dfd81613832565b9050919050565b60006020820190508181036000830152613e1d81613855565b9050919050565b60006020820190508181036000830152613e3d81613878565b9050919050565b60006020820190508181036000830152613e5d8161389b565b9050919050565b6000604082019050613e7960008301846138be565b92915050565b6000602082019050613e9460008301846138fc565b92915050565b6000604082019050613eaf60008301856138fc565b613ebc60208301846138fc565b9392505050565b6000602082019050613ed8600083018461391a565b92915050565b6000602082019050613ef36000830184613929565b92915050565b600081519050919050565b600082825260208201905092915050565b600081905092915050565b6000613f2b826140a5565b9150613f36836140a5565b9250827fffffffffffffffffffffffffffffffffffffffffffffffffffffffffffffffff03821115613f6b57613f6a61415f565b5b828201905092915050565b6000613f81826140a5565b9150613f8c836140a5565b925082613f9c57613f9b61418e565b5b828204905092915050565b6000613fb2826140a5565b9150613fbd836140a5565b9250817fffffffffffffffffffffffffffffffffffffffffffffffffffffffffffffffff0483118215151615613ff657613ff561415f565b5b828202905092915050565b600061400c826140a5565b9150614017836140a5565b92508282101561402a5761402961415f565b5b828203905092915050565b60006140408261405d565b9050919050565b60008115159050919050565b6000819050919050565b600073ffffffffffffffffffffffffffffffffffffffff82169050919050565b60007bffffffffffffffffffffffffffffffffffffffffffffffffffffffff82169050919050565b6000819050919050565b600063ffffffff82169050919050565b600060ff82169050919050565b60006140d7826140de565b9050919050565b60006140e98261405d565b9050919050565b60005b8381101561410e5780820151818401526020810190506140f3565b8381111561411d576000848401525b50505050565b6000600282049050600182168061413b57607f821691505b6020821081141561414f5761414e6141bd565b5b50919050565b6000819050919050565b7f4e487b7100000000000000000000000000000000000000000000000000000000600052601160045260246000fd5b7f4e487b7100000000000000000000000000000000000000000000000000000000600052601260045260246000fd5b7f4e487b7100000000000000000000000000000000000000000000000000000000600052602260045260246000fd5b6000601f19601f8301169050919050565b7f45434453413a20696e76616c6964207369676e61747572650000000000000000600082015250565b7f45524332303a207472616e7366657220746f20746865207a65726f206164647260008201527f6573730000000000000000000000000000000000000000000000000000000000602082015250565b7f4552433230566f7465733a20626c6f636b206e6f7420796574206d696e656400600082015250565b7f4552433230566f7465733a207369676e61747572652065787069726564000000600082015250565b7f45524332303a206275726e20616d6f756e7420657863656564732062616c616e60008201527f6365000000000000000000000000000000000000000000000000000000000000602082015250565b7f45434453413a20696e76616c6964207369676e6174757265206c656e67746800600082015250565b7f4552433230566f7465733a20696e76616c6964206e6f6e636500000000000000600082015250565b7f4f776e61626c653a206e6577206f776e657220697320746865207a65726f206160008201527f6464726573730000000000000000000000000000000000000000000000000000602082015250565b7f45524332303a20617070726f766520746f20746865207a65726f20616464726560008201527f7373000000000000000000000000000000000000000000000000000000000000602082015250565b7f1901000000000000000000000000000000000000000000000000000000000000600082015250565b7f45524332303a20696e73756666696369656e7420616c6c6f77616e6365000000600082015250565b7f45524332305065726d69743a206578706972656420646561646c696e65000000600082015250565b7f45524332303a207472616e7366657220616d6f756e742065786365656473206260008201527f616c616e63650000000000000000000000000000000000000000000000000000602082015250565b7f45434453413a20696e76616c6964207369676e6174757265202773272076616c60008201527f7565000000000000000000000000000000000000000000000000000000000000602082015250565b7f45434453413a20696e76616c6964207369676e6174757265202776272076616c60008201527f7565000000000000000000000000000000000000000000000000000000000000602082015250565b7f45524332305065726d69743a20696e76616c6964207369676e61747572650000600082015250565b7f4552433230566f7465733a20746f74616c20737570706c79207269736b73206f60008201527f766572666c6f77696e6720766f74657300000000000000000000000000000000602082015250565b7f4f776e61626c653a2063616c6c6572206973206e6f7420746865206f776e6572600082015250565b7f53616665436173743a2076616c756520646f65736e27742066697420696e203260008201527f3234206269747300000000000000000000000000000000000000000000000000602082015250565b7f45524332303a206275726e2066726f6d20746865207a65726f2061646472657360008201527f7300000000000000000000000000000000000000000000000000000000000000602082015250565b7f45524332303a207472616e736665722066726f6d20746865207a65726f20616460008201527f6472657373000000000000000000000000000000000000000000000000000000602082015250565b7f53616665436173743a2076616c756520646f65736e27742066697420696e203360008201527f3220626974730000000000000000000000000000000000000000000000000000602082015250565b7f45524332303a20617070726f76652066726f6d20746865207a65726f2061646460008201527f7265737300000000000000000000000000000000000000000000000000000000602082015250565b7f45524332303a2064656372656173656420616c6c6f77616e63652062656c6f7760008201527f207a65726f000000000000000000000000000000000000000000000000000000602082015250565b7f45524332303a206d696e7420746f20746865207a65726f206164647265737300600082015250565b61481b81614035565b811461482657600080fd5b50565b61483281614047565b811461483d57600080fd5b50565b61484981614053565b811461485457600080fd5b50565b614860816140a5565b811461486b57600080fd5b50565b614877816140af565b811461488257600080fd5b50565b61488e816140bf565b811461489957600080fd5b5056fea264697066735822122045bf7a13c93133594793aa56ba0d6bfb31bd547a9d48413a50e15420b329a87b64736f6c63430008040033",
  "devdoc": {
    "kind": "dev",
    "methods": {
      "DOMAIN_SEPARATOR()": {
        "details": "See {IERC20Permit-DOMAIN_SEPARATOR}."
      },
      "allowance(address,address)": {
        "details": "See {IERC20-allowance}."
      },
      "approve(address,uint256)": {
        "details": "See {IERC20-approve}. NOTE: If `amount` is the maximum `uint256`, the allowance is not updated on `transferFrom`. This is semantically equivalent to an infinite approval. Requirements: - `spender` cannot be the zero address."
      },
      "balanceOf(address)": {
        "details": "See {IERC20-balanceOf}."
      },
      "checkpoints(address,uint32)": {
        "details": "Get the `pos`-th checkpoint for `account`."
      },
      "decimals()": {
        "details": "Returns the number of decimals used to get its user representation. For example, if `decimals` equals `2`, a balance of `505` tokens should be displayed to a user as `5.05` (`505 / 10 ** 2`). Tokens usually opt for a value of 18, imitating the relationship between Ether and Wei. This is the value {ERC20} uses, unless this function is overridden; NOTE: This information is only used for _display_ purposes: it in no way affects any of the arithmetic of the contract, including {IERC20-balanceOf} and {IERC20-transfer}."
      },
      "decreaseAllowance(address,uint256)": {
        "details": "Atomically decreases the allowance granted to `spender` by the caller. This is an alternative to {approve} that can be used as a mitigation for problems described in {IERC20-approve}. Emits an {Approval} event indicating the updated allowance. Requirements: - `spender` cannot be the zero address. - `spender` must have allowance for the caller of at least `subtractedValue`."
      },
      "delegate(address)": {
        "details": "Delegate votes from the sender to `delegatee`."
      },
      "delegateBySig(address,uint256,uint256,uint8,bytes32,bytes32)": {
        "details": "Delegates votes from signer to `delegatee`"
      },
      "delegates(address)": {
        "details": "Get the address `account` is currently delegating to."
      },
      "getPastTotalSupply(uint256)": {
        "details": "Retrieve the `totalSupply` at the end of `blockNumber`. Note, this value is the sum of all balances. It is but NOT the sum of all the delegated votes! Requirements: - `blockNumber` must have been already mined"
      },
      "getPastVotes(address,uint256)": {
        "details": "Retrieve the number of votes for `account` at the end of `blockNumber`. Requirements: - `blockNumber` must have been already mined"
      },
      "getVotes(address)": {
        "details": "Gets the current votes balance for `account`"
      },
      "increaseAllowance(address,uint256)": {
        "details": "Atomically increases the allowance granted to `spender` by the caller. This is an alternative to {approve} that can be used as a mitigation for problems described in {IERC20-approve}. Emits an {Approval} event indicating the updated allowance. Requirements: - `spender` cannot be the zero address."
      },
      "name()": {
        "details": "Returns the name of the token."
      },
      "nonces(address)": {
        "details": "See {IERC20Permit-nonces}."
      },
      "numCheckpoints(address)": {
        "details": "Get number of checkpoints for `account`."
      },
      "owner()": {
        "details": "Returns the address of the current owner."
      },
      "permit(address,address,uint256,uint256,uint8,bytes32,bytes32)": {
        "details": "See {IERC20Permit-permit}."
      },
      "renounceOwnership()": {
        "details": "Leaves the contract without owner. It will not be possible to call `onlyOwner` functions anymore. Can only be called by the current owner. NOTE: Renouncing ownership will leave the contract without an owner, thereby removing any functionality that is only available to the owner."
      },
      "symbol()": {
        "details": "Returns the symbol of the token, usually a shorter version of the name."
      },
      "totalSupply()": {
        "details": "See {IERC20-totalSupply}."
      },
      "transfer(address,uint256)": {
        "details": "See {IERC20-transfer}. Requirements: - `to` cannot be the zero address. - the caller must have a balance of at least `amount`."
      },
      "transferFrom(address,address,uint256)": {
        "details": "See {IERC20-transferFrom}. Emits an {Approval} event indicating the updated allowance. This is not required by the EIP. See the note at the beginning of {ERC20}. NOTE: Does not update the allowance if the current allowance is the maximum `uint256`. Requirements: - `from` and `to` cannot be the zero address. - `from` must have a balance of at least `amount`. - the caller must have allowance for ``from``'s tokens of at least `amount`."
      },
      "transferOwnership(address)": {
        "details": "Transfers ownership of the contract to a new account (`newOwner`). Can only be called by the current owner."
      }
    },
    "version": 1
  },
  "userdoc": {
    "kind": "user",
    "methods": {},
    "version": 1
  },
  "storageLayout": {
    "storage": [
      {
        "astId": 3239,
        "contract": "contracts/GovernanceToken.sol:GovernanceToken",
        "label": "_balances",
        "offset": 0,
        "slot": "0",
        "type": "t_mapping(t_address,t_uint256)"
      },
      {
        "astId": 3245,
        "contract": "contracts/GovernanceToken.sol:GovernanceToken",
        "label": "_allowances",
        "offset": 0,
        "slot": "1",
        "type": "t_mapping(t_address,t_mapping(t_address,t_uint256))"
      },
      {
        "astId": 3247,
        "contract": "contracts/GovernanceToken.sol:GovernanceToken",
        "label": "_totalSupply",
        "offset": 0,
        "slot": "2",
        "type": "t_uint256"
      },
      {
        "astId": 3249,
        "contract": "contracts/GovernanceToken.sol:GovernanceToken",
        "label": "_name",
        "offset": 0,
        "slot": "3",
        "type": "t_string_storage"
      },
      {
        "astId": 3251,
        "contract": "contracts/GovernanceToken.sol:GovernanceToken",
        "label": "_symbol",
        "offset": 0,
        "slot": "4",
        "type": "t_string_storage"
      },
      {
        "astId": 4683,
        "contract": "contracts/GovernanceToken.sol:GovernanceToken",
        "label": "_nonces",
        "offset": 0,
        "slot": "5",
        "type": "t_mapping(t_address,t_struct(Counter)6598_storage)"
      },
      {
        "astId": 3915,
        "contract": "contracts/GovernanceToken.sol:GovernanceToken",
        "label": "_delegates",
        "offset": 0,
        "slot": "6",
        "type": "t_mapping(t_address,t_address)"
      },
      {
        "astId": 3921,
        "contract": "contracts/GovernanceToken.sol:GovernanceToken",
        "label": "_checkpoints",
        "offset": 0,
        "slot": "7",
        "type": "t_mapping(t_address,t_array(t_struct(Checkpoint)3906_storage)dyn_storage)"
      },
      {
        "astId": 3925,
        "contract": "contracts/GovernanceToken.sol:GovernanceToken",
        "label": "_totalSupplyCheckpoints",
        "offset": 0,
        "slot": "8",
        "type": "t_array(t_struct(Checkpoint)3906_storage)dyn_storage"
      },
      {
        "astId": 389,
        "contract": "contracts/GovernanceToken.sol:GovernanceToken",
        "label": "_owner",
        "offset": 0,
        "slot": "9",
        "type": "t_address"
      },
      {
        "astId": 10256,
        "contract": "contracts/GovernanceToken.sol:GovernanceToken",
        "label": "token",
        "offset": 0,
        "slot": "10",
        "type": "t_contract(IERC20)3889"
      },
      {
        "astId": 10259,
        "contract": "contracts/GovernanceToken.sol:GovernanceToken",
        "label": "devShare",
        "offset": 0,
        "slot": "11",
        "type": "t_uint256"
      }
    ],
    "types": {
      "t_address": {
        "encoding": "inplace",
        "label": "address",
        "numberOfBytes": "20"
      },
      "t_array(t_struct(Checkpoint)3906_storage)dyn_storage": {
        "base": "t_struct(Checkpoint)3906_storage",
        "encoding": "dynamic_array",
        "label": "struct ERC20Votes.Checkpoint[]",
        "numberOfBytes": "32"
      },
      "t_contract(IERC20)3889": {
        "encoding": "inplace",
        "label": "contract IERC20",
        "numberOfBytes": "20"
      },
      "t_mapping(t_address,t_address)": {
        "encoding": "mapping",
        "key": "t_address",
        "label": "mapping(address => address)",
        "numberOfBytes": "32",
        "value": "t_address"
      },
      "t_mapping(t_address,t_array(t_struct(Checkpoint)3906_storage)dyn_storage)": {
        "encoding": "mapping",
        "key": "t_address",
        "label": "mapping(address => struct ERC20Votes.Checkpoint[])",
        "numberOfBytes": "32",
        "value": "t_array(t_struct(Checkpoint)3906_storage)dyn_storage"
      },
      "t_mapping(t_address,t_mapping(t_address,t_uint256))": {
        "encoding": "mapping",
        "key": "t_address",
        "label": "mapping(address => mapping(address => uint256))",
        "numberOfBytes": "32",
        "value": "t_mapping(t_address,t_uint256)"
      },
      "t_mapping(t_address,t_struct(Counter)6598_storage)": {
        "encoding": "mapping",
        "key": "t_address",
        "label": "mapping(address => struct Counters.Counter)",
        "numberOfBytes": "32",
        "value": "t_struct(Counter)6598_storage"
      },
      "t_mapping(t_address,t_uint256)": {
        "encoding": "mapping",
        "key": "t_address",
        "label": "mapping(address => uint256)",
        "numberOfBytes": "32",
        "value": "t_uint256"
      },
      "t_string_storage": {
        "encoding": "bytes",
        "label": "string",
        "numberOfBytes": "32"
      },
      "t_struct(Checkpoint)3906_storage": {
        "encoding": "inplace",
        "label": "struct ERC20Votes.Checkpoint",
        "members": [
          {
            "astId": 3903,
            "contract": "contracts/GovernanceToken.sol:GovernanceToken",
            "label": "fromBlock",
            "offset": 0,
            "slot": "0",
            "type": "t_uint32"
          },
          {
            "astId": 3905,
            "contract": "contracts/GovernanceToken.sol:GovernanceToken",
            "label": "votes",
            "offset": 4,
            "slot": "0",
            "type": "t_uint224"
          }
        ],
        "numberOfBytes": "32"
      },
      "t_struct(Counter)6598_storage": {
        "encoding": "inplace",
        "label": "struct Counters.Counter",
        "members": [
          {
            "astId": 6597,
            "contract": "contracts/GovernanceToken.sol:GovernanceToken",
            "label": "_value",
            "offset": 0,
            "slot": "0",
            "type": "t_uint256"
          }
        ],
        "numberOfBytes": "32"
      },
      "t_uint224": {
        "encoding": "inplace",
        "label": "uint224",
        "numberOfBytes": "28"
      },
      "t_uint256": {
        "encoding": "inplace",
        "label": "uint256",
        "numberOfBytes": "32"
      },
      "t_uint32": {
        "encoding": "inplace",
        "label": "uint32",
        "numberOfBytes": "4"
      }
    }
  }
}