{
  "address": "0xa3b171dE7DD7D732140c3628AcF2760Ee196C4c6",
  "abi": [
    {
      "inputs": [
        {
          "internalType": "contract ISuperfluid",
          "name": "host",
          "type": "address"
        },
        {
          "internalType": "contract IConstantFlowAgreementV1",
          "name": "cfa",
          "type": "address"
        },
        {
          "internalType": "address",
          "name": "_token",
          "type": "address"
        }
      ],
      "stateMutability": "nonpayable",
      "type": "constructor"
    },
    {
      "anonymous": false,
      "inputs": [
        {
          "indexed": true,
          "internalType": "address",
          "name": "owner",
          "type": "address"
        },
        {
          "indexed": true,
          "internalType": "address",
          "name": "approved",
          "type": "address"
        },
        {
          "indexed": true,
          "internalType": "uint256",
          "name": "tokenId",
          "type": "uint256"
        }
      ],
      "name": "Approval",
      "type": "event"
    },
    {
      "anonymous": false,
      "inputs": [
        {
          "indexed": true,
          "internalType": "address",
          "name": "owner",
          "type": "address"
        },
        {
          "indexed": true,
          "internalType": "address",
          "name": "operator",
          "type": "address"
        },
        {
          "indexed": false,
          "internalType": "bool",
          "name": "approved",
          "type": "bool"
        }
      ],
      "name": "ApprovalForAll",
      "type": "event"
    },
    {
      "anonymous": false,
      "inputs": [
        {
          "indexed": false,
          "internalType": "bytes32",
          "name": "_id",
          "type": "bytes32"
        },
        {
          "indexed": false,
          "internalType": "int96",
          "name": "_flowTerminated",
          "type": "int96"
        }
      ],
      "name": "CaughtTermination",
      "type": "event"
    },
    {
      "anonymous": false,
      "inputs": [
        {
          "indexed": false,
          "internalType": "string",
          "name": "message",
          "type": "string"
        }
      ],
      "name": "Error",
      "type": "event"
    },
    {
      "anonymous": false,
      "inputs": [
        {
          "indexed": false,
          "internalType": "address",
          "name": "_receiver",
          "type": "address"
        },
        {
          "indexed": false,
          "internalType": "address",
          "name": "_payer",
          "type": "address"
        }
      ],
      "name": "NewSwap",
      "type": "event"
    },
    {
      "anonymous": false,
      "inputs": [
        {
          "indexed": true,
          "internalType": "address",
          "name": "previousOwner",
          "type": "address"
        },
        {
          "indexed": true,
          "internalType": "address",
          "name": "newOwner",
          "type": "address"
        }
      ],
      "name": "OwnershipTransferred",
      "type": "event"
    },
    {
      "anonymous": false,
      "inputs": [
        {
          "indexed": true,
          "internalType": "address",
          "name": "from",
          "type": "address"
        },
        {
          "indexed": true,
          "internalType": "address",
          "name": "to",
          "type": "address"
        },
        {
          "indexed": true,
          "internalType": "uint256",
          "name": "tokenId",
          "type": "uint256"
        }
      ],
      "name": "Transfer",
      "type": "event"
    },
    {
      "inputs": [
        {
          "internalType": "contract ISuperToken",
          "name": "",
          "type": "address"
        },
        {
          "internalType": "address",
          "name": "",
          "type": "address"
        },
        {
          "internalType": "bytes32",
          "name": "",
          "type": "bytes32"
        },
        {
          "internalType": "bytes",
          "name": "",
          "type": "bytes"
        },
        {
          "internalType": "bytes",
          "name": "",
          "type": "bytes"
        },
        {
          "internalType": "bytes",
          "name": "",
          "type": "bytes"
        }
      ],
      "name": "afterAgreementCreated",
      "outputs": [
        {
          "internalType": "bytes",
          "name": "",
          "type": "bytes"
        }
      ],
      "stateMutability": "nonpayable",
      "type": "function"
    },
    {
      "inputs": [
        {
          "internalType": "contract ISuperToken",
          "name": "_superToken",
          "type": "address"
        },
        {
          "internalType": "address",
          "name": "_agreementClass",
          "type": "address"
        },
        {
          "internalType": "bytes32",
          "name": "_agreementId",
          "type": "bytes32"
        },
        {
          "internalType": "bytes",
          "name": "",
          "type": "bytes"
        },
        {
          "internalType": "bytes",
          "name": "",
          "type": "bytes"
        },
        {
          "internalType": "bytes",
          "name": "_ctx",
          "type": "bytes"
        }
      ],
      "name": "afterAgreementTerminated",
      "outputs": [
        {
          "internalType": "bytes",
          "name": "newCtx",
          "type": "bytes"
        }
      ],
      "stateMutability": "nonpayable",
      "type": "function"
    },
    {
      "inputs": [
        {
          "internalType": "contract ISuperToken",
          "name": "",
          "type": "address"
        },
        {
          "internalType": "address",
          "name": "",
          "type": "address"
        },
        {
          "internalType": "bytes32",
          "name": "",
          "type": "bytes32"
        },
        {
          "internalType": "bytes",
          "name": "",
          "type": "bytes"
        },
        {
          "internalType": "bytes",
          "name": "",
          "type": "bytes"
        },
        {
          "internalType": "bytes",
          "name": "",
          "type": "bytes"
        }
      ],
      "name": "afterAgreementUpdated",
      "outputs": [
        {
          "internalType": "bytes",
          "name": "",
          "type": "bytes"
        }
      ],
      "stateMutability": "nonpayable",
      "type": "function"
    },
    {
      "inputs": [
        {
          "internalType": "address",
          "name": "to",
          "type": "address"
        },
        {
          "internalType": "uint256",
          "name": "tokenId",
          "type": "uint256"
        }
      ],
      "name": "approve",
      "outputs": [],
      "stateMutability": "nonpayable",
      "type": "function"
    },
    {
      "inputs": [
        {
          "internalType": "address",
          "name": "owner",
          "type": "address"
        }
      ],
      "name": "balanceOf",
      "outputs": [
        {
          "internalType": "uint256",
          "name": "",
          "type": "uint256"
        }
      ],
      "stateMutability": "view",
      "type": "function"
    },
    {
      "inputs": [
        {
          "internalType": "contract ISuperToken",
          "name": "",
          "type": "address"
        },
        {
          "internalType": "address",
          "name": "",
          "type": "address"
        },
        {
          "internalType": "bytes32",
          "name": "",
          "type": "bytes32"
        },
        {
          "internalType": "bytes",
          "name": "",
          "type": "bytes"
        },
        {
          "internalType": "bytes",
          "name": "",
          "type": "bytes"
        }
      ],
      "name": "beforeAgreementCreated",
      "outputs": [
        {
          "internalType": "bytes",
          "name": "",
          "type": "bytes"
        }
      ],
      "stateMutability": "view",
      "type": "function"
    },
    {
      "inputs": [
        {
          "internalType": "contract ISuperToken",
          "name": "",
          "type": "address"
        },
        {
          "internalType": "address",
          "name": "",
          "type": "address"
        },
        {
          "internalType": "bytes32",
          "name": "",
          "type": "bytes32"
        },
        {
          "internalType": "bytes",
          "name": "",
          "type": "bytes"
        },
        {
          "internalType": "bytes",
          "name": "",
          "type": "bytes"
        }
      ],
      "name": "beforeAgreementTerminated",
      "outputs": [
        {
          "internalType": "bytes",
          "name": "",
          "type": "bytes"
        }
      ],
      "stateMutability": "view",
      "type": "function"
    },
    {
      "inputs": [
        {
          "internalType": "contract ISuperToken",
          "name": "",
          "type": "address"
        },
        {
          "internalType": "address",
          "name": "",
          "type": "address"
        },
        {
          "internalType": "bytes32",
          "name": "",
          "type": "bytes32"
        },
        {
          "internalType": "bytes",
          "name": "",
          "type": "bytes"
        },
        {
          "internalType": "bytes",
          "name": "",
          "type": "bytes"
        }
      ],
      "name": "beforeAgreementUpdated",
      "outputs": [
        {
          "internalType": "bytes",
          "name": "",
          "type": "bytes"
        }
      ],
      "stateMutability": "view",
      "type": "function"
    },
    {
      "inputs": [
        {
          "internalType": "bytes32",
          "name": "_agreementId",
          "type": "bytes32"
        }
      ],
      "name": "emergencySettle",
      "outputs": [],
      "stateMutability": "nonpayable",
      "type": "function"
    },
    {
      "inputs": [
        {
          "internalType": "bytes32",
          "name": "",
          "type": "bytes32"
        }
      ],
      "name": "flowIDToReceiverNFT",
      "outputs": [
        {
          "internalType": "uint256",
          "name": "",
          "type": "uint256"
        }
      ],
      "stateMutability": "view",
      "type": "function"
    },
    {
      "inputs": [
        {
          "internalType": "uint256",
          "name": "tokenId",
          "type": "uint256"
        }
      ],
      "name": "getApproved",
      "outputs": [
        {
          "internalType": "address",
          "name": "",
          "type": "address"
        }
      ],
      "stateMutability": "view",
      "type": "function"
    },
    {
      "inputs": [],
      "name": "index",
      "outputs": [
        {
          "internalType": "uint256",
          "name": "",
          "type": "uint256"
        }
      ],
      "stateMutability": "view",
      "type": "function"
    },
    {
      "inputs": [
        {
          "internalType": "address",
          "name": "owner",
          "type": "address"
        },
        {
          "internalType": "address",
          "name": "operator",
          "type": "address"
        }
      ],
      "name": "isApprovedForAll",
      "outputs": [
        {
          "internalType": "bool",
          "name": "",
          "type": "bool"
        }
      ],
      "stateMutability": "view",
      "type": "function"
    },
    {
      "inputs": [],
      "name": "name",
      "outputs": [
        {
          "internalType": "string",
          "name": "",
          "type": "string"
        }
      ],
      "stateMutability": "view",
      "type": "function"
    },
    {
      "inputs": [
        {
          "internalType": "address",
          "name": "_receiver",
          "type": "address"
        },
        {
          "internalType": "address",
          "name": "_payer",
          "type": "address"
        },
        {
          "internalType": "int96",
          "name": "_requiredFlowRate",
          "type": "int96"
        },
        {
          "internalType": "uint256",
          "name": "_amountUnderlying",
          "type": "uint256"
        }
      ],
      "name": "newSwap",
      "outputs": [],
      "stateMutability": "nonpayable",
      "type": "function"
    },
    {
      "inputs": [],
      "name": "owner",
      "outputs": [
        {
          "internalType": "address",
          "name": "",
          "type": "address"
        }
      ],
      "stateMutability": "view",
      "type": "function"
    },
    {
      "inputs": [
        {
          "internalType": "uint256",
          "name": "tokenId",
          "type": "uint256"
        }
      ],
      "name": "ownerOf",
      "outputs": [
        {
          "internalType": "address",
          "name": "",
          "type": "address"
        }
      ],
      "stateMutability": "view",
      "type": "function"
    },
    {
      "inputs": [
        {
          "internalType": "uint256",
          "name": "",
          "type": "uint256"
        }
      ],
      "name": "receiverAssetsOwed",
      "outputs": [
        {
          "internalType": "int96",
          "name": "flowRateForAssets",
          "type": "int96"
        },
        {
          "internalType": "uint256",
          "name": "amountUnderlyingExposed",
          "type": "uint256"
        },
        {
          "internalType": "uint256",
          "name": "lockedCollateral",
          "type": "uint256"
        },
        {
          "internalType": "int256",
          "name": "priceUSD",
          "type": "int256"
        },
        {
          "internalType": "address",
          "name": "strategy",
          "type": "address"
        }
      ],
      "stateMutability": "view",
      "type": "function"
    },
    {
      "inputs": [],
      "name": "renounceOwnership",
      "outputs": [],
      "stateMutability": "nonpayable",
      "type": "function"
    },
    {
      "inputs": [
        {
          "internalType": "address",
          "name": "from",
          "type": "address"
        },
        {
          "internalType": "address",
          "name": "to",
          "type": "address"
        },
        {
          "internalType": "uint256",
          "name": "tokenId",
          "type": "uint256"
        }
      ],
      "name": "safeTransferFrom",
      "outputs": [],
      "stateMutability": "nonpayable",
      "type": "function"
    },
    {
      "inputs": [
        {
          "internalType": "address",
          "name": "from",
          "type": "address"
        },
        {
          "internalType": "address",
          "name": "to",
          "type": "address"
        },
        {
          "internalType": "uint256",
          "name": "tokenId",
          "type": "uint256"
        },
        {
          "internalType": "bytes",
          "name": "_data",
          "type": "bytes"
        }
      ],
      "name": "safeTransferFrom",
      "outputs": [],
      "stateMutability": "nonpayable",
      "type": "function"
    },
    {
      "inputs": [
        {
          "internalType": "address",
          "name": "operator",
          "type": "address"
        },
        {
          "internalType": "bool",
          "name": "approved",
          "type": "bool"
        }
      ],
      "name": "setApprovalForAll",
      "outputs": [],
      "stateMutability": "nonpayable",
      "type": "function"
    },
    {
      "inputs": [
        {
          "internalType": "bytes4",
          "name": "interfaceId",
          "type": "bytes4"
        }
      ],
      "name": "supportsInterface",
      "outputs": [
        {
          "internalType": "bool",
          "name": "",
          "type": "bool"
        }
      ],
      "stateMutability": "view",
      "type": "function"
    },
    {
      "inputs": [],
      "name": "symbol",
      "outputs": [
        {
          "internalType": "string",
          "name": "",
          "type": "string"
        }
      ],
      "stateMutability": "view",
      "type": "function"
    },
    {
      "inputs": [],
      "name": "token",
      "outputs": [
        {
          "internalType": "contract ISuperToken",
          "name": "",
          "type": "address"
        }
      ],
      "stateMutability": "view",
      "type": "function"
    },
    {
      "inputs": [
        {
          "internalType": "uint256",
          "name": "tokenId",
          "type": "uint256"
        }
      ],
      "name": "tokenURI",
      "outputs": [
        {
          "internalType": "string",
          "name": "",
          "type": "string"
        }
      ],
      "stateMutability": "view",
      "type": "function"
    },
    {
      "inputs": [
        {
          "internalType": "address",
          "name": "from",
          "type": "address"
        },
        {
          "internalType": "address",
          "name": "to",
          "type": "address"
        },
        {
          "internalType": "uint256",
          "name": "tokenId",
          "type": "uint256"
        }
      ],
      "name": "transferFrom",
      "outputs": [],
      "stateMutability": "nonpayable",
      "type": "function"
    },
    {
      "inputs": [
        {
          "internalType": "address",
          "name": "newOwner",
          "type": "address"
        }
      ],
      "name": "transferOwnership",
      "outputs": [],
      "stateMutability": "nonpayable",
      "type": "function"
    }
  ],
  "transactionHash": "0xad800e2742321f52d6a4e23cdfeb541acf2c9f542381f575e99c9a5b9e7f83e3",
  "args": [
    "0xeD5B5b32110c3Ded02a07c8b8e97513FAfb883B6",
    "0xF4C5310E51F6079F601a5fb7120bC72a70b96e2A",
    "0xC975Ab048002DB8C3914094116AF50ef6cF6136c"
  ],
  "numDeployments": 1,
  "solcInputHash": "7cb62472b26103e9c67679bc2886b7c4",
  "bytecode": "0x608060405260006007553480156200001657600080fd5b5060405162005ba938038062005ba983398181016040528101906200003c919062000446565b6040518060400160405280601181526020017f546f74616c2052657475726e20537761700000000000000000000000000000008152506040518060400160405280600381526020017f54525300000000000000000000000000000000000000000000000000000000008152508160009080519060200190620000c092919062000351565b508060019080519060200190620000d992919062000351565b505050620000fc620000f06200028360201b60201c565b6200028b60201b60201c565b82600860006101000a81548173ffffffffffffffffffffffffffffffffffffffff021916908373ffffffffffffffffffffffffffffffffffffffff16021790555081600960006101000a81548173ffffffffffffffffffffffffffffffffffffffff021916908373ffffffffffffffffffffffffffffffffffffffff16021790555080600a60006101000a81548173ffffffffffffffffffffffffffffffffffffffff021916908373ffffffffffffffffffffffffffffffffffffffff1602179055506000640800000000640200000000641000000000640400000000640100000000600117171717179050600860009054906101000a900473ffffffffffffffffffffffffffffffffffffffff1673ffffffffffffffffffffffffffffffffffffffff1663ad3915c8826040518263ffffffff1660e01b8152600401620002459190620004ad565b600060405180830381600087803b1580156200026057600080fd5b505af115801562000275573d6000803e3d6000fd5b5050505050505050620005e3565b600033905090565b6000600660009054906101000a900473ffffffffffffffffffffffffffffffffffffffff16905081600660006101000a81548173ffffffffffffffffffffffffffffffffffffffff021916908373ffffffffffffffffffffffffffffffffffffffff1602179055508173ffffffffffffffffffffffffffffffffffffffff168173ffffffffffffffffffffffffffffffffffffffff167f8be0079c531659141344cd1fd0a4f28419497f9722a3daafe3b4186f6b6457e060405160405180910390a35050565b8280546200035f9062000530565b90600052602060002090601f016020900481019282620003835760008555620003cf565b82601f106200039e57805160ff1916838001178555620003cf565b82800160010185558215620003cf579182015b82811115620003ce578251825591602001919060010190620003b1565b5b509050620003de9190620003e2565b5090565b5b80821115620003fd576000816000905550600101620003e3565b5090565b600081519050620004128162000595565b92915050565b6000815190506200042981620005af565b92915050565b6000815190506200044081620005c9565b92915050565b6000806000606084860312156200045c57600080fd5b60006200046c868287016200042f565b93505060206200047f8682870162000418565b9250506040620004928682870162000401565b9150509250925092565b620004a78162000526565b82525050565b6000602082019050620004c460008301846200049c565b92915050565b6000620004d78262000506565b9050919050565b6000620004eb82620004ca565b9050919050565b6000620004ff82620004ca565b9050919050565b600073ffffffffffffffffffffffffffffffffffffffff82169050919050565b6000819050919050565b600060028204905060018216806200054957607f821691505b6020821081141562000560576200055f62000566565b5b50919050565b7f4e487b7100000000000000000000000000000000000000000000000000000000600052602260045260246000fd5b620005a081620004ca565b8114620005ac57600080fd5b50565b620005ba81620004de565b8114620005c657600080fd5b50565b620005d481620004f2565b8114620005e057600080fd5b50565b6155b680620005f36000396000f3fe608060405234801561001057600080fd5b50600436106101c45760003560e01c80636352211e116100f9578063b88d4fde11610097578063e985e9c511610071578063e985e9c514610553578063f2fde38b14610583578063f95d41491461059f578063fc0c546a146105cf576101c4565b8063b88d4fde146104d7578063c87b56dd146104f3578063d86ed3e514610523576101c4565b8063884d1f40116100d3578063884d1f401461044f5780638da5cb5b1461047f57806395d89b411461049d578063a22cb465146104bb576101c4565b80636352211e146103e557806370a0823114610415578063715018a614610445576101c4565b80632986c0e51161016657806342842e0e1161014057806342842e0e1461034d57806353c11f991461036957806357ae14a4146103995780635f9e7d77146103b5576101c4565b80632986c0e5146102cb5780632f066600146102e957806330d9c9151461031d576101c4565b8063095ea7b3116101a2578063095ea7b3146102475780631991cc2214610263578063230dbd291461027f57806323b872dd146102af576101c4565b806301ffc9a7146101c957806306fdde03146101f9578063081812fc14610217575b600080fd5b6101e360048036038101906101de91906139c6565b6105ed565b6040516101f09190614246565b60405180910390f35b6102016106cf565b60405161020e9190614471565b60405180910390f35b610231600480360381019061022c9190613c11565b610761565b60405161023e919061418d565b60405180910390f35b610261600480360381019061025c919061390f565b6107e6565b005b61027d60048036038101906102789190613974565b6108fe565b005b61029960048036038101906102949190613b09565b610ceb565b6040516102a6919061428a565b60405180910390f35b6102c960048036038101906102c49190613809565b610d28565b005b6102d3610d88565b6040516102e091906147d3565b60405180910390f35b61030360048036038101906102fe9190613c11565b610d8e565b60405161031495949392919061441e565b60405180910390f35b61033760048036038101906103329190613a59565b610df1565b604051610344919061428a565b60405180910390f35b61036760048036038101906103629190613809565b610e2e565b005b610383600480360381019061037e9190613b09565b610e4e565b604051610390919061428a565b60405180910390f35b6103b360048036038101906103ae91906137a6565b61140c565b005b6103cf60048036038101906103ca9190613a59565b6116f4565b6040516103dc919061428a565b60405180910390f35b6103ff60048036038101906103fa9190613c11565b611731565b60405161040c919061418d565b60405180910390f35b61042f600480360381019061042a9190613741565b6117e3565b60405161043c91906147d3565b60405180910390f35b61044d61189b565b005b61046960048036038101906104649190613a59565b611923565b604051610476919061428a565b60405180910390f35b610487611960565b604051610494919061418d565b60405180910390f35b6104a561198a565b6040516104b29190614471565b60405180910390f35b6104d560048036038101906104d091906138d3565b611a1c565b005b6104f160048036038101906104ec9190613858565b611a32565b005b61050d60048036038101906105089190613c11565b611a94565b60405161051a9190614471565b60405180910390f35b61053d60048036038101906105389190613b09565b611b3b565b60405161054a919061428a565b60405180910390f35b61056d6004803603810190610568919061376a565b611b78565b60405161057a9190614246565b60405180910390f35b61059d60048036038101906105989190613741565b611c0c565b005b6105b960048036038101906105b49190613974565b611d04565b6040516105c691906147d3565b60405180910390f35b6105d7611d1c565b6040516105e491906142ef565b60405180910390f35b60007f80ac58cd000000000000000000000000000000000000000000000000000000007bffffffffffffffffffffffffffffffffffffffffffffffffffffffff1916827bffffffffffffffffffffffffffffffffffffffffffffffffffffffff191614806106b857507f5b5e139f000000000000000000000000000000000000000000000000000000007bffffffffffffffffffffffffffffffffffffffffffffffffffffffff1916827bffffffffffffffffffffffffffffffffffffffffffffffffffffffff1916145b806106c857506106c782611d42565b5b9050919050565b6060600080546106de90614b87565b80601f016020809104026020016040519081016040528092919081815260200182805461070a90614b87565b80156107575780601f1061072c57610100808354040283529160200191610757565b820191906000526020600020905b81548152906001019060200180831161073a57829003601f168201915b5050505050905090565b600061076c82611dac565b6107ab576040517f08c379a00000000000000000000000000000000000000000000000000000000081526004016107a290614693565b60405180910390fd5b6004600083815260200190815260200160002060009054906101000a900473ffffffffffffffffffffffffffffffffffffffff169050919050565b60006107f182611731565b90508073ffffffffffffffffffffffffffffffffffffffff168373ffffffffffffffffffffffffffffffffffffffff161415610862576040517f08c379a000000000000000000000000000000000000000000000000000000000815260040161085990614713565b60405180910390fd5b8073ffffffffffffffffffffffffffffffffffffffff16610881611e18565b73ffffffffffffffffffffffffffffffffffffffff1614806108b057506108af816108aa611e18565b611b78565b5b6108ef576040517f08c379a00000000000000000000000000000000000000000000000000000000081526004016108e690614613565b60405180910390fd5b6108f98383611e20565b505050565b6000600b6000838152602001908152602001600020549050600061092182611731565b90506000600c6000848152602001908152602001600020905060008160000160009054906101000a9004600b0b90506000600960009054906101000a900473ffffffffffffffffffffffffffffffffffffffff1673ffffffffffffffffffffffffffffffffffffffff1663e6a1e888600a60009054906101000a900473ffffffffffffffffffffffffffffffffffffffff1630876040518463ffffffff1660e01b81526004016109d39392919061430a565b60806040518083038186803b1580156109eb57600080fd5b505afa1580156109ff573d6000803e3d6000fd5b505050506040513d601f19601f82011682018060405250810190610a239190613c3a565b505091505060008282610a3691906149a2565b9050600081600b0b13610a7d577f08c379a0afcc32b1a39302f7cb8073359698411ab5fd6e3edb2c02c0b5fba8aa604051610a70906146f3565b60405180910390a1610abf565b60008460000160006101000a8154816bffffffffffffffffffffffff0219169083600b0b6bffffffffffffffffffffffff160217905550610abe8582611ed9565b5b600084600301548560040160009054906101000a900473ffffffffffffffffffffffffffffffffffffffff1673ffffffffffffffffffffffffffffffffffffffff166376d560d787600101546040518263ffffffff1660e01b8152600401610b2791906147d3565b60206040518083038186803b158015610b3f57600080fd5b505afa158015610b53573d6000803e3d6000fd5b505050506040513d601f19601f82011682018060405250810190610b779190613be8565b610b81919061490e565b90508460040160009054906101000a900473ffffffffffffffffffffffffffffffffffffffff1673ffffffffffffffffffffffffffffffffffffffff1663e43c520d86600101546040518263ffffffff1660e01b8152600401610be491906147d3565b600060405180830381600087803b158015610bfe57600080fd5b505af1158015610c12573d6000803e3d6000fd5b505050508573ffffffffffffffffffffffffffffffffffffffff166338647333828760020154610c4d60018c610c489190614887565b611731565b8960040160009054906101000a900473ffffffffffffffffffffffffffffffffffffffff166040518563ffffffff1660e01b8152600401610c9194939291906143d9565b600060405180830381600087803b158015610cab57600080fd5b505af1158015610cbf573d6000803e3d6000fd5b50505050610ccc87612590565b610ce1600188610cdc9190614887565b612590565b5050505050505050565b60606040517f08c379a0000000000000000000000000000000000000000000000000000000008152600401610d1f90614793565b60405180910390fd5b610d39610d33611e18565b826126ad565b610d78576040517f08c379a0000000000000000000000000000000000000000000000000000000008152600401610d6f90614773565b60405180910390fd5b610d8383838361278b565b505050565b60075481565b600c6020528060005260406000206000915090508060000160009054906101000a9004600b0b908060010154908060020154908060030154908060040160009054906101000a900473ffffffffffffffffffffffffffffffffffffffff16905085565b60606040517f08c379a0000000000000000000000000000000000000000000000000000000008152600401610e25906147b3565b60405180910390fd5b610e4983838360405180602001604052806000815250611a32565b505050565b6060600860009054906101000a900473ffffffffffffffffffffffffffffffffffffffff1673ffffffffffffffffffffffffffffffffffffffff163373ffffffffffffffffffffffffffffffffffffffff1614610ee0576040517f08c379a0000000000000000000000000000000000000000000000000000000008152600401610ed790614593565b60405180910390fd5b600a60009054906101000a900473ffffffffffffffffffffffffffffffffffffffff1673ffffffffffffffffffffffffffffffffffffffff168a73ffffffffffffffffffffffffffffffffffffffff16141580610f435750610f41896129f2565b155b15610f945782828080601f016020809104026020016040519081016040528093929190818152602001838380828437600081840152601f19601f8201169050808301925050505050505090506113ff565b6000600b60008a81526020019081526020016000205490506000610fb782611731565b90506000600c6000848152602001908152602001600020905060008160000160009054906101000a9004600b0b90506000600960009054906101000a900473ffffffffffffffffffffffffffffffffffffffff1673ffffffffffffffffffffffffffffffffffffffff1663e6a1e888600a60009054906101000a900473ffffffffffffffffffffffffffffffffffffffff1630876040518463ffffffff1660e01b81526004016110699392919061430a565b60806040518083038186803b15801561108157600080fd5b505afa158015611095573d6000803e3d6000fd5b505050506040513d601f19601f820116820180604052508101906110b99190613c3a565b5050915050600082826110cc91906149a2565b9050600081600b0b13611113577f08c379a0afcc32b1a39302f7cb8073359698411ab5fd6e3edb2c02c0b5fba8aa604051611106906146f3565b60405180910390a1611155565b60008460000160006101000a8154816bffffffffffffffffffffffff0219169083600b0b6bffffffffffffffffffffffff1602179055506111548582611ed9565b5b600084600301548560040160009054906101000a900473ffffffffffffffffffffffffffffffffffffffff1673ffffffffffffffffffffffffffffffffffffffff166376d560d787600101546040518263ffffffff1660e01b81526004016111bd91906147d3565b60206040518083038186803b1580156111d557600080fd5b505afa1580156111e9573d6000803e3d6000fd5b505050506040513d601f19601f8201168201806040525081019061120d9190613be8565b611217919061490e565b90508460040160009054906101000a900473ffffffffffffffffffffffffffffffffffffffff1673ffffffffffffffffffffffffffffffffffffffff1663e43c520d86600101546040518263ffffffff1660e01b815260040161127a91906147d3565b600060405180830381600087803b15801561129457600080fd5b505af11580156112a8573d6000803e3d6000fd5b505050508573ffffffffffffffffffffffffffffffffffffffff1663386473338287600201546112e360018c6112de9190614887565b611731565b8960040160009054906101000a900473ffffffffffffffffffffffffffffffffffffffff166040518563ffffffff1660e01b815260040161132794939291906143d9565b600060405180830381600087803b15801561134157600080fd5b505af1158015611355573d6000803e3d6000fd5b505050507f8f52679fd68a182e0893bbdda22576fa29342a49a9be10f9970ceefdb089b2c08f8560405161138a929190614261565b60405180910390a161139b87612590565b6113b06001886113ab9190614887565b612590565b89898080601f016020809104026020016040519081016040528093929190818152602001838380828437600081840152601f19601f820116905080830192505050505050509750505050505050505b9998505050505050505050565b6000600960009054906101000a900473ffffffffffffffffffffffffffffffffffffffff1673ffffffffffffffffffffffffffffffffffffffff1663e6a1e888600a60009054906101000a900473ffffffffffffffffffffffffffffffffffffffff1686306040518463ffffffff1660e01b815260040161148f9392919061430a565b60806040518083038186803b1580156114a757600080fd5b505afa1580156114bb573d6000803e3d6000fd5b505050506040513d601f19601f820116820180604052508101906114df9190613c3a565b50509150508473ffffffffffffffffffffffffffffffffffffffff16636a915d6a33846040518363ffffffff1660e01b815260040161151f92919061421d565b60206040518083038186803b15801561153757600080fd5b505afa15801561154b573d6000803e3d6000fd5b505050506040513d601f19601f8201168201806040525081019061156f919061394b565b6115ae576040517f08c379a00000000000000000000000000000000000000000000000000000000081526004016115a590614493565b60405180910390fd5b82600b0b81600b0b12156115f7576040517f08c379a00000000000000000000000000000000000000000000000000000000081526004016115ee906144d3565b60405180910390fd5b60006116038530612a9b565b9050600754600b6000838152602001908152602001600020819055508573ffffffffffffffffffffffffffffffffffffffff166347a7d1078661164586612ace565b6040518363ffffffff1660e01b815260040161166292919061421d565b600060405180830381600087803b15801561167c57600080fd5b505af1158015611690573d6000803e3d6000fd5b5050505061169e8683611ed9565b6116aa86848433612ae4565b6116b385612bf5565b7f35ad89ea58e0d5148b199cf4cddc916254af71553e905b69392ab09fcfa0844386866040516116e49291906141a8565b60405180910390a1505050505050565b60606040517f08c379a000000000000000000000000000000000000000000000000000000000815260040161172890614573565b60405180910390fd5b6000806002600084815260200190815260200160002060009054906101000a900473ffffffffffffffffffffffffffffffffffffffff169050600073ffffffffffffffffffffffffffffffffffffffff168173ffffffffffffffffffffffffffffffffffffffff1614156117da576040517f08c379a00000000000000000000000000000000000000000000000000000000081526004016117d190614653565b60405180910390fd5b80915050919050565b60008073ffffffffffffffffffffffffffffffffffffffff168273ffffffffffffffffffffffffffffffffffffffff161415611854576040517f08c379a000000000000000000000000000000000000000000000000000000000815260040161184b90614633565b60405180910390fd5b600360008373ffffffffffffffffffffffffffffffffffffffff1673ffffffffffffffffffffffffffffffffffffffff168152602001908152602001600020549050919050565b6118a3611e18565b73ffffffffffffffffffffffffffffffffffffffff166118c1611960565b73ffffffffffffffffffffffffffffffffffffffff1614611917576040517f08c379a000000000000000000000000000000000000000000000000000000000815260040161190e906146b3565b60405180910390fd5b6119216000612c1c565b565b60606040517f08c379a000000000000000000000000000000000000000000000000000000000815260040161195790614733565b60405180910390fd5b6000600660009054906101000a900473ffffffffffffffffffffffffffffffffffffffff16905090565b60606001805461199990614b87565b80601f01602080910402602001604051908101604052809291908181526020018280546119c590614b87565b8015611a125780601f106119e757610100808354040283529160200191611a12565b820191906000526020600020905b8154815290600101906020018083116119f557829003601f168201915b5050505050905090565b611a2e611a27611e18565b8383612ce2565b5050565b611a43611a3d611e18565b836126ad565b611a82576040517f08c379a0000000000000000000000000000000000000000000000000000000008152600401611a7990614773565b60405180910390fd5b611a8e84848484612e4f565b50505050565b6060611a9f82611dac565b611ade576040517f08c379a0000000000000000000000000000000000000000000000000000000008152600401611ad5906146d3565b60405180910390fd5b6000611ae8612eab565b90506000815111611b085760405180602001604052806000815250611b33565b80611b1284612ec2565b604051602001611b23929190614169565b6040516020818303038152906040525b915050919050565b60606040517f08c379a0000000000000000000000000000000000000000000000000000000008152600401611b6f90614753565b60405180910390fd5b6000600560008473ffffffffffffffffffffffffffffffffffffffff1673ffffffffffffffffffffffffffffffffffffffff16815260200190815260200160002060008373ffffffffffffffffffffffffffffffffffffffff1673ffffffffffffffffffffffffffffffffffffffff16815260200190815260200160002060009054906101000a900460ff16905092915050565b611c14611e18565b73ffffffffffffffffffffffffffffffffffffffff16611c32611960565b73ffffffffffffffffffffffffffffffffffffffff1614611c88576040517f08c379a0000000000000000000000000000000000000000000000000000000008152600401611c7f906146b3565b60405180910390fd5b600073ffffffffffffffffffffffffffffffffffffffff168173ffffffffffffffffffffffffffffffffffffffff161415611cf8576040517f08c379a0000000000000000000000000000000000000000000000000000000008152600401611cef90614513565b60405180910390fd5b611d0181612c1c565b50565b600b6020528060005260406000206000915090505481565b600a60009054906101000a900473ffffffffffffffffffffffffffffffffffffffff1681565b60007f01ffc9a7000000000000000000000000000000000000000000000000000000007bffffffffffffffffffffffffffffffffffffffffffffffffffffffff1916827bffffffffffffffffffffffffffffffffffffffffffffffffffffffff1916149050919050565b60008073ffffffffffffffffffffffffffffffffffffffff166002600084815260200190815260200160002060009054906101000a900473ffffffffffffffffffffffffffffffffffffffff1673ffffffffffffffffffffffffffffffffffffffff1614159050919050565b600033905090565b816004600083815260200190815260200160002060006101000a81548173ffffffffffffffffffffffffffffffffffffffff021916908373ffffffffffffffffffffffffffffffffffffffff160217905550808273ffffffffffffffffffffffffffffffffffffffff16611e9383611731565b73ffffffffffffffffffffffffffffffffffffffff167f8c5be1e5ebec7d5bd14f71427d1e84f3dd0314c0f7b2291e5b200ac8c7c3b92560405160405180910390a45050565b6000600960009054906101000a900473ffffffffffffffffffffffffffffffffffffffff1673ffffffffffffffffffffffffffffffffffffffff1663e6a1e888600a60009054906101000a900473ffffffffffffffffffffffffffffffffffffffff1630866040518463ffffffff1660e01b8152600401611f5c9392919061430a565b60806040518083038186803b158015611f7457600080fd5b505afa158015611f88573d6000803e3d6000fd5b505050506040513d601f19601f82011682018060405250810190611fac9190613c3a565b5050915050600082600b0b14156121aa57600860009054906101000a900473ffffffffffffffffffffffffffffffffffffffff1673ffffffffffffffffffffffffffffffffffffffff166339255d5b600960009054906101000a900473ffffffffffffffffffffffffffffffffffffffff1663b4b333c660e01b600a60009054906101000a900473ffffffffffffffffffffffffffffffffffffffff163088600067ffffffffffffffff81111561208c577f4e487b7100000000000000000000000000000000000000000000000000000000600052604160045260246000fd5b6040519080825280601f01601f1916602001820160405280156120be5781602001600182028036833780820191505090505b506040516024016120d29493929190614341565b604051602081830303815290604052907bffffffffffffffffffffffffffffffffffffffffffffffffffffffff19166020820180517bffffffffffffffffffffffffffffffffffffffffffffffffffffffff83818316178352505050506040518363ffffffff1660e01b815260040161214c9291906142ac565b600060405180830381600087803b15801561216657600080fd5b505af115801561217a573d6000803e3d6000fd5b505050506040513d6000823e3d601f19601f820116820180604052508101906121a39190613a18565b505061258c565b600081600b0b14156123a257600860009054906101000a900473ffffffffffffffffffffffffffffffffffffffff1673ffffffffffffffffffffffffffffffffffffffff166339255d5b600960009054906101000a900473ffffffffffffffffffffffffffffffffffffffff166362fc305e60e01b600a60009054906101000a900473ffffffffffffffffffffffffffffffffffffffff168787600067ffffffffffffffff811115612285577f4e487b7100000000000000000000000000000000000000000000000000000000600052604160045260246000fd5b6040519080825280601f01601f1916602001820160405280156122b75781602001600182028036833780820191505090505b506040516024016122cb949392919061438d565b604051602081830303815290604052907bffffffffffffffffffffffffffffffffffffffffffffffffffffffff19166020820180517bffffffffffffffffffffffffffffffffffffffffffffffffffffffff83818316178352505050506040518363ffffffff1660e01b81526004016123459291906142ac565b600060405180830381600087803b15801561235f57600080fd5b505af1158015612373573d6000803e3d6000fd5b505050506040513d6000823e3d601f19601f8201168201806040525081019061239c9190613a18565b5061258a565b600860009054906101000a900473ffffffffffffffffffffffffffffffffffffffff1673ffffffffffffffffffffffffffffffffffffffff166339255d5b600960009054906101000a900473ffffffffffffffffffffffffffffffffffffffff166350209a6260e01b600a60009054906101000a900473ffffffffffffffffffffffffffffffffffffffff168787600067ffffffffffffffff811115612471577f4e487b7100000000000000000000000000000000000000000000000000000000600052604160045260246000fd5b6040519080825280601f01601f1916602001820160405280156124a35781602001600182028036833780820191505090505b506040516024016124b7949392919061438d565b604051602081830303815290604052907bffffffffffffffffffffffffffffffffffffffffffffffffffffffff19166020820180517bffffffffffffffffffffffffffffffffffffffffffffffffffffffff83818316178352505050506040518363ffffffff1660e01b81526004016125319291906142ac565b600060405180830381600087803b15801561254b57600080fd5b505af115801561255f573d6000803e3d6000fd5b505050506040513d6000823e3d601f19601f820116820180604052508101906125889190613a18565b505b505b5050565b600061259b82611731565b90506125a98160008461306f565b6125b4600083611e20565b6001600360008373ffffffffffffffffffffffffffffffffffffffff1673ffffffffffffffffffffffffffffffffffffffff16815260200190815260200160002060008282546126049190614a22565b925050819055506002600083815260200190815260200160002060006101000a81549073ffffffffffffffffffffffffffffffffffffffff021916905581600073ffffffffffffffffffffffffffffffffffffffff168273ffffffffffffffffffffffffffffffffffffffff167fddf252ad1be2c89b69c2b068fc378daa952ba7f163c4a11628f55a4df523b3ef60405160405180910390a46126a981600084613074565b5050565b60006126b882611dac565b6126f7576040517f08c379a00000000000000000000000000000000000000000000000000000000081526004016126ee906145f3565b60405180910390fd5b600061270283611731565b90508073ffffffffffffffffffffffffffffffffffffffff168473ffffffffffffffffffffffffffffffffffffffff16148061277157508373ffffffffffffffffffffffffffffffffffffffff1661275984610761565b73ffffffffffffffffffffffffffffffffffffffff16145b8061278257506127818185611b78565b5b91505092915050565b8273ffffffffffffffffffffffffffffffffffffffff166127ab82611731565b73ffffffffffffffffffffffffffffffffffffffff1614612801576040517f08c379a00000000000000000000000000000000000000000000000000000000081526004016127f890614533565b60405180910390fd5b600073ffffffffffffffffffffffffffffffffffffffff168273ffffffffffffffffffffffffffffffffffffffff161415612871576040517f08c379a0000000000000000000000000000000000000000000000000000000008152600401612868906145b3565b60405180910390fd5b61287c83838361306f565b612887600082611e20565b6001600360008573ffffffffffffffffffffffffffffffffffffffff1673ffffffffffffffffffffffffffffffffffffffff16815260200190815260200160002060008282546128d79190614a22565b925050819055506001600360008473ffffffffffffffffffffffffffffffffffffffff1673ffffffffffffffffffffffffffffffffffffffff168152602001908152602001600020600082825461292e9190614887565b92505081905550816002600083815260200190815260200160002060006101000a81548173ffffffffffffffffffffffffffffffffffffffff021916908373ffffffffffffffffffffffffffffffffffffffff160217905550808273ffffffffffffffffffffffffffffffffffffffff168473ffffffffffffffffffffffffffffffffffffffff167fddf252ad1be2c89b69c2b068fc378daa952ba7f163c4a11628f55a4df523b3ef60405160405180910390a46129ed838383613074565b505050565b60007fa9214cc96615e0085d3bb077758db69497dc2dce3b2b1e97bc93c3d18d83efd38273ffffffffffffffffffffffffffffffffffffffff16637730599e6040518163ffffffff1660e01b815260040160206040518083038186803b158015612a5b57600080fd5b505afa158015612a6f573d6000803e3d6000fd5b505050506040513d601f19601f82011682018060405250810190612a93919061399d565b149050919050565b60008282604051602001612ab09291906141a8565b60405160208183030381529060405280519060200120905092915050565b6000600a82612add91906148dd565b9050919050565b612af084600754613079565b60008173ffffffffffffffffffffffffffffffffffffffff166376d560d7856040518263ffffffff1660e01b8152600401612b2b91906147d3565b60206040518083038186803b158015612b4357600080fd5b505afa158015612b57573d6000803e3d6000fd5b505050506040513d601f19601f82011682018060405250810190612b7b9190613be8565b905060006040518060a0016040528085600b0b8152602001868152602001612ba287612ace565b81526020018381526020018473ffffffffffffffffffffffffffffffffffffffff168152509050612bd560075482613253565b60076000815480929190612be890614bea565b9190505550505050505050565b612c0181600754613079565b60076000815480929190612c1490614bea565b919050555050565b6000600660009054906101000a900473ffffffffffffffffffffffffffffffffffffffff16905081600660006101000a81548173ffffffffffffffffffffffffffffffffffffffff021916908373ffffffffffffffffffffffffffffffffffffffff1602179055508173ffffffffffffffffffffffffffffffffffffffff168173ffffffffffffffffffffffffffffffffffffffff167f8be0079c531659141344cd1fd0a4f28419497f9722a3daafe3b4186f6b6457e060405160405180910390a35050565b8173ffffffffffffffffffffffffffffffffffffffff168373ffffffffffffffffffffffffffffffffffffffff161415612d51576040517f08c379a0000000000000000000000000000000000000000000000000000000008152600401612d48906145d3565b60405180910390fd5b80600560008573ffffffffffffffffffffffffffffffffffffffff1673ffffffffffffffffffffffffffffffffffffffff16815260200190815260200160002060008473ffffffffffffffffffffffffffffffffffffffff1673ffffffffffffffffffffffffffffffffffffffff16815260200190815260200160002060006101000a81548160ff0219169083151502179055508173ffffffffffffffffffffffffffffffffffffffff168373ffffffffffffffffffffffffffffffffffffffff167f17307eab39ab6107e8899845ad3d59bd9653f200f220920489ca2b5937696c3183604051612e429190614246565b60405180910390a3505050565b612e5a84848461278b565b612e668484848461335c565b612ea5576040517f08c379a0000000000000000000000000000000000000000000000000000000008152600401612e9c906144f3565b60405180910390fd5b50505050565b606060405180602001604052806000815250905090565b60606000821415612f0a576040518060400160405280600181526020017f3000000000000000000000000000000000000000000000000000000000000000815250905061306a565b600082905060005b60008214612f3c578080612f2590614bea565b915050600a82612f3591906148dd565b9150612f12565b60008167ffffffffffffffff811115612f7e577f4e487b7100000000000000000000000000000000000000000000000000000000600052604160045260246000fd5b6040519080825280601f01601f191660200182016040528015612fb05781602001600182028036833780820191505090505b5090505b6000851461306357600182612fc99190614a22565b9150600a85612fd89190614c33565b6030612fe49190614887565b60f81b818381518110613020577f4e487b7100000000000000000000000000000000000000000000000000000000600052603260045260246000fd5b60200101907effffffffffffffffffffffffffffffffffffffffffffffffffffffffffffff1916908160001a905350600a8561305c91906148dd565b9450612fb4565b8093505050505b919050565b505050565b505050565b600073ffffffffffffffffffffffffffffffffffffffff168273ffffffffffffffffffffffffffffffffffffffff1614156130e9576040517f08c379a00000000000000000000000000000000000000000000000000000000081526004016130e090614673565b60405180910390fd5b6130f281611dac565b15613132576040517f08c379a000000000000000000000000000000000000000000000000000000000815260040161312990614553565b60405180910390fd5b61313e6000838361306f565b6001600360008473ffffffffffffffffffffffffffffffffffffffff1673ffffffffffffffffffffffffffffffffffffffff168152602001908152602001600020600082825461318e9190614887565b92505081905550816002600083815260200190815260200160002060006101000a81548173ffffffffffffffffffffffffffffffffffffffff021916908373ffffffffffffffffffffffffffffffffffffffff160217905550808273ffffffffffffffffffffffffffffffffffffffff16600073ffffffffffffffffffffffffffffffffffffffff167fddf252ad1be2c89b69c2b068fc378daa952ba7f163c4a11628f55a4df523b3ef60405160405180910390a461324f60008383613074565b5050565b60006002836132629190614c33565b146132a2576040517f08c379a0000000000000000000000000000000000000000000000000000000008152600401613299906144b3565b60405180910390fd5b80600c600084815260200190815260200160002060008201518160000160006101000a8154816bffffffffffffffffffffffff0219169083600b0b6bffffffffffffffffffffffff16021790555060208201518160010155604082015181600201556060820151816003015560808201518160040160006101000a81548173ffffffffffffffffffffffffffffffffffffffff021916908373ffffffffffffffffffffffffffffffffffffffff1602179055509050505050565b600061337d8473ffffffffffffffffffffffffffffffffffffffff166134f3565b156134e6578373ffffffffffffffffffffffffffffffffffffffff1663150b7a026133a6611e18565b8786866040518563ffffffff1660e01b81526004016133c894939291906141d1565b602060405180830381600087803b1580156133e257600080fd5b505af192505050801561341357506040513d601f19601f8201168201806040525081019061341091906139ef565b60015b613496573d8060008114613443576040519150601f19603f3d011682016040523d82523d6000602084013e613448565b606091505b5060008151141561348e576040517f08c379a0000000000000000000000000000000000000000000000000000000008152600401613485906144f3565b60405180910390fd5b805181602001fd5b63150b7a0260e01b7bffffffffffffffffffffffffffffffffffffffffffffffffffffffff1916817bffffffffffffffffffffffffffffffffffffffffffffffffffffffff1916149150506134eb565b600190505b949350505050565b6000808273ffffffffffffffffffffffffffffffffffffffff163b119050919050565b600061352961352484614813565b6147ee565b90508281526020810184848401111561354157600080fd5b61354c848285614b45565b509392505050565b600061356761356284614813565b6147ee565b90508281526020810184848401111561357f57600080fd5b61358a848285614b54565b509392505050565b6000813590506135a1816154c8565b92915050565b6000813590506135b6816154df565b92915050565b6000815190506135cb816154df565b92915050565b6000813590506135e0816154f6565b92915050565b6000815190506135f5816154f6565b92915050565b60008135905061360a8161550d565b92915050565b60008151905061361f8161550d565b92915050565b60008083601f84011261363757600080fd5b8235905067ffffffffffffffff81111561365057600080fd5b60208301915083600182028301111561366857600080fd5b9250929050565b600082601f83011261368057600080fd5b8135613690848260208601613516565b91505092915050565b600082601f8301126136aa57600080fd5b81516136ba848260208601613554565b91505092915050565b6000813590506136d281615524565b92915050565b6000815190506136e78161553b565b92915050565b6000813590506136fc81615552565b92915050565b60008151905061371181615552565b92915050565b60008135905061372681615569565b92915050565b60008151905061373b81615569565b92915050565b60006020828403121561375357600080fd5b600061376184828501613592565b91505092915050565b6000806040838503121561377d57600080fd5b600061378b85828601613592565b925050602061379c85828601613592565b9150509250929050565b600080600080608085870312156137bc57600080fd5b60006137ca87828801613592565b94505060206137db87828801613592565b93505060406137ec878288016136ed565b92505060606137fd87828801613717565b91505092959194509250565b60008060006060848603121561381e57600080fd5b600061382c86828701613592565b935050602061383d86828701613592565b925050604061384e86828701613717565b9150509250925092565b6000806000806080858703121561386e57600080fd5b600061387c87828801613592565b945050602061388d87828801613592565b935050604061389e87828801613717565b925050606085013567ffffffffffffffff8111156138bb57600080fd5b6138c78782880161366f565b91505092959194509250565b600080604083850312156138e657600080fd5b60006138f485828601613592565b9250506020613905858286016135a7565b9150509250929050565b6000806040838503121561392257600080fd5b600061393085828601613592565b925050602061394185828601613717565b9150509250929050565b60006020828403121561395d57600080fd5b600061396b848285016135bc565b91505092915050565b60006020828403121561398657600080fd5b6000613994848285016135d1565b91505092915050565b6000602082840312156139af57600080fd5b60006139bd848285016135e6565b91505092915050565b6000602082840312156139d857600080fd5b60006139e6848285016135fb565b91505092915050565b600060208284031215613a0157600080fd5b6000613a0f84828501613610565b91505092915050565b600060208284031215613a2a57600080fd5b600082015167ffffffffffffffff811115613a4457600080fd5b613a5084828501613699565b91505092915050565b600080600080600080600060a0888a031215613a7457600080fd5b6000613a828a828b016136c3565b9750506020613a938a828b01613592565b9650506040613aa48a828b016135d1565b955050606088013567ffffffffffffffff811115613ac157600080fd5b613acd8a828b01613625565b9450945050608088013567ffffffffffffffff811115613aec57600080fd5b613af88a828b01613625565b925092505092959891949750929550565b600080600080600080600080600060c08a8c031215613b2757600080fd5b6000613b358c828d016136c3565b9950506020613b468c828d01613592565b9850506040613b578c828d016135d1565b97505060608a013567ffffffffffffffff811115613b7457600080fd5b613b808c828d01613625565b965096505060808a013567ffffffffffffffff811115613b9f57600080fd5b613bab8c828d01613625565b945094505060a08a013567ffffffffffffffff811115613bca57600080fd5b613bd68c828d01613625565b92509250509295985092959850929598565b600060208284031215613bfa57600080fd5b6000613c08848285016136d8565b91505092915050565b600060208284031215613c2357600080fd5b6000613c3184828501613717565b91505092915050565b60008060008060808587031215613c5057600080fd5b6000613c5e8782880161372c565b9450506020613c6f87828801613702565b9350506040613c808782880161372c565b9250506060613c918782880161372c565b91505092959194509250565b613ca681614a56565b82525050565b613cb581614a68565b82525050565b613cc481614a74565b82525050565b6000613cd582614844565b613cdf818561485a565b9350613cef818560208601614b54565b613cf881614d20565b840191505092915050565b613d0c81614afd565b82525050565b613d1b81614b21565b82525050565b613d2a81614abc565b82525050565b613d3981614ac6565b82525050565b6000613d4a8261484f565b613d54818561486b565b9350613d64818560208601614b54565b613d6d81614d20565b840191505092915050565b6000613d838261484f565b613d8d818561487c565b9350613d9d818560208601614b54565b80840191505092915050565b6000613db660338361486b565b9150613dc182614d31565b604082019050919050565b6000613dd9602a8361486b565b9150613de482614d80565b604082019050919050565b6000613dfc60298361486b565b9150613e0782614dcf565b604082019050919050565b6000613e1f60328361486b565b9150613e2a82614e1e565b604082019050919050565b6000613e4260268361486b565b9150613e4d82614e6d565b604082019050919050565b6000613e6560258361486b565b9150613e7082614ebc565b604082019050919050565b6000613e88601c8361486b565b9150613e9382614f0b565b602082019050919050565b6000613eab60338361486b565b9150613eb682614f34565b604082019050919050565b6000613ece60228361486b565b9150613ed982614f83565b604082019050919050565b6000613ef160028361485a565b9150613efc82614fd2565b602082019050919050565b6000613f1460248361486b565b9150613f1f82614ffb565b604082019050919050565b6000613f3760198361486b565b9150613f428261504a565b602082019050919050565b6000613f5a602c8361486b565b9150613f6582615073565b604082019050919050565b6000613f7d60388361486b565b9150613f88826150c2565b604082019050919050565b6000613fa0602a8361486b565b9150613fab82615111565b604082019050919050565b6000613fc360298361486b565b9150613fce82615160565b604082019050919050565b6000613fe660208361486b565b9150613ff1826151af565b602082019050919050565b6000614009602c8361486b565b9150614014826151d8565b604082019050919050565b600061402c60208361486b565b915061403782615227565b602082019050919050565b600061404f602f8361486b565b915061405a82615250565b604082019050919050565b600061407260398361486b565b915061407d8261529f565b604082019050919050565b600061409560218361486b565b91506140a0826152ee565b604082019050919050565b60006140b8602f8361486b565b91506140c38261533d565b604082019050919050565b60006140db602e8361486b565b91506140e68261538c565b604082019050919050565b60006140fe60318361486b565b9150614109826153db565b604082019050919050565b6000614121602e8361486b565b915061412c8261542a565b604082019050919050565b6000614144602f8361486b565b915061414f82615479565b604082019050919050565b61416381614af3565b82525050565b60006141758285613d78565b91506141818284613d78565b91508190509392505050565b60006020820190506141a26000830184613c9d565b92915050565b60006040820190506141bd6000830185613c9d565b6141ca6020830184613c9d565b9392505050565b60006080820190506141e66000830187613c9d565b6141f36020830186613c9d565b614200604083018561415a565b81810360608301526142128184613cca565b905095945050505050565b60006040820190506142326000830185613c9d565b61423f602083018461415a565b9392505050565b600060208201905061425b6000830184613cac565b92915050565b60006040820190506142766000830185613cbb565b6142836020830184613d30565b9392505050565b600060208201905081810360008301526142a48184613cca565b905092915050565b60006060820190506142c16000830185613d03565b81810360208301526142d38184613cca565b905081810360408301526142e681613ee4565b90509392505050565b60006020820190506143046000830184613d12565b92915050565b600060608201905061431f6000830186613d12565b61432c6020830185613c9d565b6143396040830184613c9d565b949350505050565b60006080820190506143566000830187613d12565b6143636020830186613c9d565b6143706040830185613c9d565b81810360608301526143828184613cca565b905095945050505050565b60006080820190506143a26000830187613d12565b6143af6020830186613c9d565b6143bc6040830185613d30565b81810360608301526143ce8184613cca565b905095945050505050565b60006080820190506143ee6000830187613d21565b6143fb602083018661415a565b6144086040830185613c9d565b6144156060830184613c9d565b95945050505050565b600060a0820190506144336000830188613d30565b614440602083018761415a565b61444d604083018661415a565b61445a6060830185613d21565b6144676080830184613c9d565b9695505050505050565b6000602082019050818103600083015261448b8184613d3f565b905092915050565b600060208201905081810360008301526144ac81613da9565b9050919050565b600060208201905081810360008301526144cc81613dcc565b9050919050565b600060208201905081810360008301526144ec81613def565b9050919050565b6000602082019050818103600083015261450c81613e12565b9050919050565b6000602082019050818103600083015261452c81613e35565b9050919050565b6000602082019050818103600083015261454c81613e58565b9050919050565b6000602082019050818103600083015261456c81613e7b565b9050919050565b6000602082019050818103600083015261458c81613e9e565b9050919050565b600060208201905081810360008301526145ac81613ec1565b9050919050565b600060208201905081810360008301526145cc81613f07565b9050919050565b600060208201905081810360008301526145ec81613f2a565b9050919050565b6000602082019050818103600083015261460c81613f4d565b9050919050565b6000602082019050818103600083015261462c81613f70565b9050919050565b6000602082019050818103600083015261464c81613f93565b9050919050565b6000602082019050818103600083015261466c81613fb6565b9050919050565b6000602082019050818103600083015261468c81613fd9565b9050919050565b600060208201905081810360008301526146ac81613ffc565b9050919050565b600060208201905081810360008301526146cc8161401f565b9050919050565b600060208201905081810360008301526146ec81614042565b9050919050565b6000602082019050818103600083015261470c81614065565b9050919050565b6000602082019050818103600083015261472c81614088565b9050919050565b6000602082019050818103600083015261474c816140ab565b9050919050565b6000602082019050818103600083015261476c816140ce565b9050919050565b6000602082019050818103600083015261478c816140f1565b9050919050565b600060208201905081810360008301526147ac81614114565b9050919050565b600060208201905081810360008301526147cc81614137565b9050919050565b60006020820190506147e8600083018461415a565b92915050565b60006147f8614809565b90506148048282614bb9565b919050565b6000604051905090565b600067ffffffffffffffff82111561482e5761482d614cf1565b5b61483782614d20565b9050602081019050919050565b600081519050919050565b600081519050919050565b600082825260208201905092915050565b600082825260208201905092915050565b600081905092915050565b600061489282614af3565b915061489d83614af3565b9250827fffffffffffffffffffffffffffffffffffffffffffffffffffffffffffffffff038211156148d2576148d1614c64565b5b828201905092915050565b60006148e882614af3565b91506148f383614af3565b92508261490357614902614c93565b5b828204905092915050565b600061491982614abc565b915061492483614abc565b9250827f80000000000000000000000000000000000000000000000000000000000000000182126000841215161561495f5761495e614c64565b5b827f7fffffffffffffffffffffffffffffffffffffffffffffffffffffffffffffff01821360008412161561499757614996614c64565b5b828203905092915050565b60006149ad82614ac6565b91506149b883614ac6565b9250827fffffffffffffffffffffffffffffffffffffffff800000000000000000000000018212600084121516156149f3576149f2614c64565b5b826b7fffffffffffffffffffffff018213600084121615614a1757614a16614c64565b5b828203905092915050565b6000614a2d82614af3565b9150614a3883614af3565b925082821015614a4b57614a4a614c64565b5b828203905092915050565b6000614a6182614ad3565b9050919050565b60008115159050919050565b6000819050919050565b60007fffffffff0000000000000000000000000000000000000000000000000000000082169050919050565b6000614ab582614a56565b9050919050565b6000819050919050565b600081600b0b9050919050565b600073ffffffffffffffffffffffffffffffffffffffff82169050919050565b6000819050919050565b6000614b0882614b0f565b9050919050565b6000614b1a82614ad3565b9050919050565b6000614b2c82614b33565b9050919050565b6000614b3e82614ad3565b9050919050565b82818337600083830152505050565b60005b83811015614b72578082015181840152602081019050614b57565b83811115614b81576000848401525b50505050565b60006002820490506001821680614b9f57607f821691505b60208210811415614bb357614bb2614cc2565b5b50919050565b614bc282614d20565b810181811067ffffffffffffffff82111715614be157614be0614cf1565b5b80604052505050565b6000614bf582614af3565b91507fffffffffffffffffffffffffffffffffffffffffffffffffffffffffffffffff821415614c2857614c27614c64565b5b600182019050919050565b6000614c3e82614af3565b9150614c4983614af3565b925082614c5957614c58614c93565b5b828206905092915050565b7f4e487b7100000000000000000000000000000000000000000000000000000000600052601160045260246000fd5b7f4e487b7100000000000000000000000000000000000000000000000000000000600052601260045260246000fd5b7f4e487b7100000000000000000000000000000000000000000000000000000000600052602260045260246000fd5b7f4e487b7100000000000000000000000000000000000000000000000000000000600052604160045260246000fd5b6000601f19601f8301169050919050565b7f5468697320726563656976657220646964206e6f74207065726d697420796f7560008201527f20746f2069737375652074686973207377617000000000000000000000000000602082015250565b7f43616e206f6e6c79207570646174656420617373657473206f77656420666f7260008201527f2072656365697665727300000000000000000000000000000000000000000000602082015250565b7f4e6f7420706179696e6720656e6f75676820746f20696e697469616c697a652060008201527f7468697320737761700000000000000000000000000000000000000000000000602082015250565b7f4552433732313a207472616e7366657220746f206e6f6e20455243373231526560008201527f63656976657220696d706c656d656e7465720000000000000000000000000000602082015250565b7f4f776e61626c653a206e6577206f776e657220697320746865207a65726f206160008201527f6464726573730000000000000000000000000000000000000000000000000000602082015250565b7f4552433732313a207472616e736665722066726f6d20696e636f72726563742060008201527f6f776e6572000000000000000000000000000000000000000000000000000000602082015250565b7f4552433732313a20746f6b656e20616c7265616479206d696e74656400000000600082015250565b7f556e737570706f727465642063616c6c6261636b202d20204265666f7265204160008201527f677265656d656e74205465726d696e6174656400000000000000000000000000602082015250565b7f5265646972656374416c6c3a20737570706f7274206f6e6c79206f6e6520686f60008201527f7374000000000000000000000000000000000000000000000000000000000000602082015250565b7f3078000000000000000000000000000000000000000000000000000000000000600082015250565b7f4552433732313a207472616e7366657220746f20746865207a65726f2061646460008201527f7265737300000000000000000000000000000000000000000000000000000000602082015250565b7f4552433732313a20617070726f766520746f2063616c6c657200000000000000600082015250565b7f4552433732313a206f70657261746f7220717565727920666f72206e6f6e657860008201527f697374656e7420746f6b656e0000000000000000000000000000000000000000602082015250565b7f4552433732313a20617070726f76652063616c6c6572206973206e6f74206f7760008201527f6e6572206e6f7220617070726f76656420666f7220616c6c0000000000000000602082015250565b7f4552433732313a2062616c616e636520717565727920666f7220746865207a6560008201527f726f206164647265737300000000000000000000000000000000000000000000602082015250565b7f4552433732313a206f776e657220717565727920666f72206e6f6e657869737460008201527f656e7420746f6b656e0000000000000000000000000000000000000000000000602082015250565b7f4552433732313a206d696e7420746f20746865207a65726f2061646472657373600082015250565b7f4552433732313a20617070726f76656420717565727920666f72206e6f6e657860008201527f697374656e7420746f6b656e0000000000000000000000000000000000000000602082015250565b7f4f776e61626c653a2063616c6c6572206973206e6f7420746865206f776e6572600082015250565b7f4552433732314d657461646174613a2055524920717565727920666f72206e6f60008201527f6e6578697374656e7420746f6b656e0000000000000000000000000000000000602082015250565b7f41667465722061677265656d656e74207465726d696e617465642e204e65772060008201527f666c6f77206973206c657373207468616e20206f72203d203000000000000000602082015250565b7f4552433732313a20617070726f76616c20746f2063757272656e74206f776e6560008201527f7200000000000000000000000000000000000000000000000000000000000000602082015250565b7f556e737570706f727465642063616c6c6261636b202d204265666f726520416760008201527f7265656d656e7420757064617465640000000000000000000000000000000000602082015250565b7f556e737570706f727465642063616c6c6261636b202d2041667465722041677260008201527f65656d656e742043726561746564000000000000000000000000000000000000602082015250565b7f4552433732313a207472616e736665722063616c6c6572206973206e6f74206f60008201527f776e6572206e6f7220617070726f766564000000000000000000000000000000602082015250565b7f556e737570706f727465642063616c6c6261636b202d2041667465722041677260008201527f65656d656e742055706461746564000000000000000000000000000000000000602082015250565b7f556e737570706f727465642063616c6c6261636b202d204265666f726520416760008201527f7265656d656e7420437265617465640000000000000000000000000000000000602082015250565b6154d181614a56565b81146154dc57600080fd5b50565b6154e881614a68565b81146154f357600080fd5b50565b6154ff81614a74565b811461550a57600080fd5b50565b61551681614a7e565b811461552157600080fd5b50565b61552d81614aaa565b811461553857600080fd5b50565b61554481614abc565b811461554f57600080fd5b50565b61555b81614ac6565b811461556657600080fd5b50565b61557281614af3565b811461557d57600080fd5b5056fea26469706673582212203f3f70b8b555ed05b8ab58b1d666412f53319dfb93687c4b15f1a4230807017164736f6c63430008040033",
  "devdoc": {
    "kind": "dev",
    "methods": {
      "approve(address,uint256)": {
        "details": "See {IERC721-approve}."
      },
      "balanceOf(address)": {
        "details": "See {IERC721-balanceOf}."
      },
      "getApproved(uint256)": {
        "details": "See {IERC721-getApproved}."
      },
      "isApprovedForAll(address,address)": {
        "details": "See {IERC721-isApprovedForAll}."
      },
      "name()": {
        "details": "See {IERC721Metadata-name}."
      },
      "newSwap(address,address,int96,uint256)": {
        "details": "to be called by strategies. Anyone can make swaps. But it's the strategies that have the assets"
      },
      "owner()": {
        "details": "Returns the address of the current owner."
      },
      "ownerOf(uint256)": {
        "details": "See {IERC721-ownerOf}."
      },
      "renounceOwnership()": {
        "details": "Leaves the contract without owner. It will not be possible to call `onlyOwner` functions anymore. Can only be called by the current owner. NOTE: Renouncing ownership will leave the contract without an owner, thereby removing any functionality that is only available to the owner."
      },
      "safeTransferFrom(address,address,uint256)": {
        "details": "See {IERC721-safeTransferFrom}."
      },
      "safeTransferFrom(address,address,uint256,bytes)": {
        "details": "See {IERC721-safeTransferFrom}."
      },
      "setApprovalForAll(address,bool)": {
        "details": "See {IERC721-setApprovalForAll}."
      },
      "supportsInterface(bytes4)": {
        "details": "See {IERC165-supportsInterface}."
      },
      "symbol()": {
        "details": "See {IERC721Metadata-symbol}."
      },
      "tokenURI(uint256)": {
        "details": "See {IERC721Metadata-tokenURI}."
      },
      "transferFrom(address,address,uint256)": {
        "details": "See {IERC721-transferFrom}."
      },
      "transferOwnership(address)": {
        "details": "Transfers ownership of the contract to a new account (`newOwner`). Can only be called by the current owner."
      }
    },
    "version": 1
  },
  "userdoc": {
    "kind": "user",
    "methods": {},
    "version": 1
  },
  "storageLayout": {
    "storage": [
      {
        "astId": 5115,
        "contract": "contracts/swaps/Swaps.sol:Swaps",
        "label": "_name",
        "offset": 0,
        "slot": "0",
        "type": "t_string_storage"
      },
      {
        "astId": 5117,
        "contract": "contracts/swaps/Swaps.sol:Swaps",
        "label": "_symbol",
        "offset": 0,
        "slot": "1",
        "type": "t_string_storage"
      },
      {
        "astId": 5121,
        "contract": "contracts/swaps/Swaps.sol:Swaps",
        "label": "_owners",
        "offset": 0,
        "slot": "2",
        "type": "t_mapping(t_uint256,t_address)"
      },
      {
        "astId": 5125,
        "contract": "contracts/swaps/Swaps.sol:Swaps",
        "label": "_balances",
        "offset": 0,
        "slot": "3",
        "type": "t_mapping(t_address,t_uint256)"
      },
      {
        "astId": 5129,
        "contract": "contracts/swaps/Swaps.sol:Swaps",
        "label": "_tokenApprovals",
        "offset": 0,
        "slot": "4",
        "type": "t_mapping(t_uint256,t_address)"
      },
      {
        "astId": 5135,
        "contract": "contracts/swaps/Swaps.sol:Swaps",
        "label": "_operatorApprovals",
        "offset": 0,
        "slot": "5",
        "type": "t_mapping(t_address,t_mapping(t_address,t_bool))"
      },
      {
        "astId": 389,
        "contract": "contracts/swaps/Swaps.sol:Swaps",
        "label": "_owner",
        "offset": 0,
        "slot": "6",
        "type": "t_address"
      },
      {
        "astId": 12430,
        "contract": "contracts/swaps/Swaps.sol:Swaps",
        "label": "index",
        "offset": 0,
        "slot": "7",
        "type": "t_uint256"
      },
      {
        "astId": 12433,
        "contract": "contracts/swaps/Swaps.sol:Swaps",
        "label": "_host",
        "offset": 0,
        "slot": "8",
        "type": "t_contract(ISuperfluid)9840"
      },
      {
        "astId": 12436,
        "contract": "contracts/swaps/Swaps.sol:Swaps",
        "label": "_cfa",
        "offset": 0,
        "slot": "9",
        "type": "t_contract(IConstantFlowAgreementV1)8480"
      },
      {
        "astId": 12439,
        "contract": "contracts/swaps/Swaps.sol:Swaps",
        "label": "token",
        "offset": 0,
        "slot": "10",
        "type": "t_contract(ISuperToken)9297"
      },
      {
        "astId": 12443,
        "contract": "contracts/swaps/Swaps.sol:Swaps",
        "label": "flowIDToReceiverNFT",
        "offset": 0,
        "slot": "11",
        "type": "t_mapping(t_bytes32,t_uint256)"
      },
      {
        "astId": 12459,
        "contract": "contracts/swaps/Swaps.sol:Swaps",
        "label": "receiverAssetsOwed",
        "offset": 0,
        "slot": "12",
        "type": "t_mapping(t_uint256,t_struct(asset)12454_storage)"
      }
    ],
    "types": {
      "t_address": {
        "encoding": "inplace",
        "label": "address",
        "numberOfBytes": "20"
      },
      "t_bool": {
        "encoding": "inplace",
        "label": "bool",
        "numberOfBytes": "1"
      },
      "t_bytes32": {
        "encoding": "inplace",
        "label": "bytes32",
        "numberOfBytes": "32"
      },
      "t_contract(IConstantFlowAgreementV1)8480": {
        "encoding": "inplace",
        "label": "contract IConstantFlowAgreementV1",
        "numberOfBytes": "20"
      },
      "t_contract(ISuperToken)9297": {
        "encoding": "inplace",
        "label": "contract ISuperToken",
        "numberOfBytes": "20"
      },
      "t_contract(ISuperfluid)9840": {
        "encoding": "inplace",
        "label": "contract ISuperfluid",
        "numberOfBytes": "20"
      },
      "t_int256": {
        "encoding": "inplace",
        "label": "int256",
        "numberOfBytes": "32"
      },
      "t_int96": {
        "encoding": "inplace",
        "label": "int96",
        "numberOfBytes": "12"
      },
      "t_mapping(t_address,t_bool)": {
        "encoding": "mapping",
        "key": "t_address",
        "label": "mapping(address => bool)",
        "numberOfBytes": "32",
        "value": "t_bool"
      },
      "t_mapping(t_address,t_mapping(t_address,t_bool))": {
        "encoding": "mapping",
        "key": "t_address",
        "label": "mapping(address => mapping(address => bool))",
        "numberOfBytes": "32",
        "value": "t_mapping(t_address,t_bool)"
      },
      "t_mapping(t_address,t_uint256)": {
        "encoding": "mapping",
        "key": "t_address",
        "label": "mapping(address => uint256)",
        "numberOfBytes": "32",
        "value": "t_uint256"
      },
      "t_mapping(t_bytes32,t_uint256)": {
        "encoding": "mapping",
        "key": "t_bytes32",
        "label": "mapping(bytes32 => uint256)",
        "numberOfBytes": "32",
        "value": "t_uint256"
      },
      "t_mapping(t_uint256,t_address)": {
        "encoding": "mapping",
        "key": "t_uint256",
        "label": "mapping(uint256 => address)",
        "numberOfBytes": "32",
        "value": "t_address"
      },
      "t_mapping(t_uint256,t_struct(asset)12454_storage)": {
        "encoding": "mapping",
        "key": "t_uint256",
        "label": "mapping(uint256 => struct Swaps.asset)",
        "numberOfBytes": "32",
        "value": "t_struct(asset)12454_storage"
      },
      "t_string_storage": {
        "encoding": "bytes",
        "label": "string",
        "numberOfBytes": "32"
      },
      "t_struct(asset)12454_storage": {
        "encoding": "inplace",
        "label": "struct Swaps.asset",
        "members": [
          {
            "astId": 12445,
            "contract": "contracts/swaps/Swaps.sol:Swaps",
            "label": "flowRateForAssets",
            "offset": 0,
            "slot": "0",
            "type": "t_int96"
          },
          {
            "astId": 12447,
            "contract": "contracts/swaps/Swaps.sol:Swaps",
            "label": "amountUnderlyingExposed",
            "offset": 0,
            "slot": "1",
            "type": "t_uint256"
          },
          {
            "astId": 12449,
            "contract": "contracts/swaps/Swaps.sol:Swaps",
            "label": "lockedCollateral",
            "offset": 0,
            "slot": "2",
            "type": "t_uint256"
          },
          {
            "astId": 12451,
            "contract": "contracts/swaps/Swaps.sol:Swaps",
            "label": "priceUSD",
            "offset": 0,
            "slot": "3",
            "type": "t_int256"
          },
          {
            "astId": 12453,
            "contract": "contracts/swaps/Swaps.sol:Swaps",
            "label": "strategy",
            "offset": 0,
            "slot": "4",
            "type": "t_address"
          }
        ],
        "numberOfBytes": "160"
      },
      "t_uint256": {
        "encoding": "inplace",
        "label": "uint256",
        "numberOfBytes": "32"
      }
    }
  }
}