{
  "address": "0x80cf0e0d515f78cD6EDE4D0F07F0C574BeC09664",
  "abi": [
    {
      "inputs": [
        {
          "internalType": "address",
          "name": "_token",
          "type": "address"
        }
      ],
      "name": "priceOf",
      "outputs": [
        {
          "internalType": "int256",
          "name": "price",
          "type": "int256"
        },
        {
          "internalType": "uint8",
          "name": "decimals",
          "type": "uint8"
        }
      ],
      "stateMutability": "view",
      "type": "function"
    },
    {
      "inputs": [
        {
          "internalType": "address",
          "name": "_token",
          "type": "address"
        },
        {
          "internalType": "int256",
          "name": "_price",
          "type": "int256"
        }
      ],
      "name": "setPriceOf",
      "outputs": [],
      "stateMutability": "nonpayable",
      "type": "function"
    }
  ],
  "transactionHash": "0x0beb326811f593bd296258300e71019dbd82cef5a325a8c76e4dde2e539ffde1",
  "args": [],
  "numDeployments": 1,
  "solcInputHash": "7cb62472b26103e9c67679bc2886b7c4",
  "bytecode": "0x608060405234801561001057600080fd5b5061029f806100206000396000f3fe608060405234801561001057600080fd5b50600436106100365760003560e01c8063b95ed06f1461003b578063eac21efa1461006c575b600080fd5b61005560048036038101906100509190610146565b610088565b6040516100639291906101c9565b60405180910390f35b6100866004803603810190610081919061016f565b6100d5565b005b6000806000808473ffffffffffffffffffffffffffffffffffffffff1673ffffffffffffffffffffffffffffffffffffffff16815260200190815260200160002054915060129050915091565b806000808473ffffffffffffffffffffffffffffffffffffffff1673ffffffffffffffffffffffffffffffffffffffff168152602001908152602001600020819055505050565b60008135905061012b8161023b565b92915050565b60008135905061014081610252565b92915050565b60006020828403121561015857600080fd5b60006101668482850161011c565b91505092915050565b6000806040838503121561018257600080fd5b60006101908582860161011c565b92505060206101a185828601610131565b9150509250929050565b6101b481610204565b82525050565b6101c38161022e565b82525050565b60006040820190506101de60008301856101ab565b6101eb60208301846101ba565b9392505050565b60006101fd8261020e565b9050919050565b6000819050919050565b600073ffffffffffffffffffffffffffffffffffffffff82169050919050565b600060ff82169050919050565b610244816101f2565b811461024f57600080fd5b50565b61025b81610204565b811461026657600080fd5b5056fea2646970667358221220fcbb4a365413d614667177b083ea9683d4afed4a4281348623b37ddb23e04bac64736f6c63430008040033",
  "devdoc": {
    "kind": "dev",
    "methods": {},
    "version": 1
  },
  "userdoc": {
    "kind": "user",
    "methods": {},
    "version": 1
  },
  "storageLayout": {
    "storage": [
      {
        "astId": 12369,
        "contract": "contracts/strategies/TestOracle.sol:TestOracle",
        "label": "_priceOf",
        "offset": 0,
        "slot": "0",
        "type": "t_mapping(t_address,t_int256)"
      }
    ],
    "types": {
      "t_address": {
        "encoding": "inplace",
        "label": "address",
        "numberOfBytes": "20"
      },
      "t_int256": {
        "encoding": "inplace",
        "label": "int256",
        "numberOfBytes": "32"
      },
      "t_mapping(t_address,t_int256)": {
        "encoding": "mapping",
        "key": "t_address",
        "label": "mapping(address => int256)",
        "numberOfBytes": "32",
        "value": "t_int256"
      }
    }
  }
}