{
  "address": "0x6D992c2a6B112F856d2D7da364b5453c6c94f60e",
  "abi": [
    {
      "inputs": [
        {
          "internalType": "address",
          "name": "_stableCoin",
          "type": "address"
        },
        {
          "internalType": "address",
          "name": "_nativeToken",
          "type": "address"
        },
        {
          "internalType": "address",
          "name": "_swaps",
          "type": "address"
        }
      ],
      "stateMutability": "nonpayable",
      "type": "constructor"
    },
    {
      "anonymous": false,
      "inputs": [
        {
          "indexed": false,
          "internalType": "int256",
          "name": "amount",
          "type": "int256"
        }
      ],
      "name": "NewSettlement",
      "type": "event"
    },
    {
      "anonymous": false,
      "inputs": [
        {
          "indexed": true,
          "internalType": "address",
          "name": "previousOwner",
          "type": "address"
        },
        {
          "indexed": true,
          "internalType": "address",
          "name": "newOwner",
          "type": "address"
        }
      ],
      "name": "OwnershipTransferred",
      "type": "event"
    },
    {
      "inputs": [],
      "name": "Test",
      "outputs": [
        {
          "internalType": "uint256",
          "name": "",
          "type": "uint256"
        }
      ],
      "stateMutability": "view",
      "type": "function"
    },
    {
      "inputs": [
        {
          "internalType": "uint256",
          "name": "_amount",
          "type": "uint256"
        }
      ],
      "name": "addCollateral",
      "outputs": [],
      "stateMutability": "nonpayable",
      "type": "function"
    },
    {
      "inputs": [
        {
          "internalType": "address",
          "name": "",
          "type": "address"
        }
      ],
      "name": "availableCollateral",
      "outputs": [
        {
          "internalType": "uint256",
          "name": "",
          "type": "uint256"
        }
      ],
      "stateMutability": "view",
      "type": "function"
    },
    {
      "inputs": [],
      "name": "dex",
      "outputs": [
        {
          "internalType": "contract IUniswapV2Router02",
          "name": "",
          "type": "address"
        }
      ],
      "stateMutability": "view",
      "type": "function"
    },
    {
      "inputs": [
        {
          "internalType": "address",
          "name": "_of",
          "type": "address"
        }
      ],
      "name": "getAvailableCollateral",
      "outputs": [
        {
          "internalType": "uint256",
          "name": "",
          "type": "uint256"
        }
      ],
      "stateMutability": "view",
      "type": "function"
    },
    {
      "inputs": [],
      "name": "getBalance",
      "outputs": [
        {
          "internalType": "uint256",
          "name": "balance",
          "type": "uint256"
        }
      ],
      "stateMutability": "view",
      "type": "function"
    },
    {
      "inputs": [
        {
          "internalType": "uint256",
          "name": "_amount",
          "type": "uint256"
        }
      ],
      "name": "issueShares",
      "outputs": [],
      "stateMutability": "nonpayable",
      "type": "function"
    },
    {
      "inputs": [
        {
          "internalType": "address",
          "name": "_of",
          "type": "address"
        },
        {
          "internalType": "uint256",
          "name": "_amount",
          "type": "uint256"
        }
      ],
      "name": "lockCollateral",
      "outputs": [],
      "stateMutability": "nonpayable",
      "type": "function"
    },
    {
      "inputs": [],
      "name": "nativeToken",
      "outputs": [
        {
          "internalType": "contract IGovToken",
          "name": "",
          "type": "address"
        }
      ],
      "stateMutability": "view",
      "type": "function"
    },
    {
      "inputs": [],
      "name": "owner",
      "outputs": [
        {
          "internalType": "address",
          "name": "",
          "type": "address"
        }
      ],
      "stateMutability": "view",
      "type": "function"
    },
    {
      "inputs": [],
      "name": "renounceOwnership",
      "outputs": [],
      "stateMutability": "nonpayable",
      "type": "function"
    },
    {
      "inputs": [
        {
          "internalType": "int256",
          "name": "_usdSettlement",
          "type": "int256"
        },
        {
          "internalType": "uint256",
          "name": "_collateralToFree",
          "type": "uint256"
        },
        {
          "internalType": "address",
          "name": "_recipient",
          "type": "address"
        },
        {
          "internalType": "address",
          "name": "_strategy",
          "type": "address"
        }
      ],
      "name": "settle",
      "outputs": [],
      "stateMutability": "nonpayable",
      "type": "function"
    },
    {
      "inputs": [],
      "name": "stablecoin",
      "outputs": [
        {
          "internalType": "contract IERC20",
          "name": "",
          "type": "address"
        }
      ],
      "stateMutability": "view",
      "type": "function"
    },
    {
      "inputs": [
        {
          "internalType": "address",
          "name": "",
          "type": "address"
        }
      ],
      "name": "strategiesApprovedBalances",
      "outputs": [
        {
          "internalType": "uint256",
          "name": "",
          "type": "uint256"
        }
      ],
      "stateMutability": "view",
      "type": "function"
    },
    {
      "inputs": [],
      "name": "swaps",
      "outputs": [
        {
          "internalType": "address",
          "name": "",
          "type": "address"
        }
      ],
      "stateMutability": "view",
      "type": "function"
    },
    {
      "inputs": [],
      "name": "totalOwedCollateral",
      "outputs": [
        {
          "internalType": "uint256",
          "name": "",
          "type": "uint256"
        }
      ],
      "stateMutability": "view",
      "type": "function"
    },
    {
      "inputs": [
        {
          "internalType": "address",
          "name": "_strategy",
          "type": "address"
        },
        {
          "internalType": "uint256",
          "name": "_amount",
          "type": "uint256"
        }
      ],
      "name": "transferFundsToStrategy",
      "outputs": [],
      "stateMutability": "nonpayable",
      "type": "function"
    },
    {
      "inputs": [
        {
          "internalType": "address",
          "name": "newOwner",
          "type": "address"
        }
      ],
      "name": "transferOwnership",
      "outputs": [],
      "stateMutability": "nonpayable",
      "type": "function"
    },
    {
      "inputs": [
        {
          "internalType": "address",
          "name": "_swapCreator",
          "type": "address"
        },
        {
          "internalType": "uint256",
          "name": "_amountUnderlying",
          "type": "uint256"
        }
      ],
      "name": "verifyNewSwap",
      "outputs": [
        {
          "internalType": "bool",
          "name": "",
          "type": "bool"
        }
      ],
      "stateMutability": "view",
      "type": "function"
    }
  ],
  "transactionHash": "0x33b1652559f3dfc32591c2211217f9a46b8689eabf07ed81d2164bcf77e830fb",
  "args": [
    "0xC975Ab048002DB8C3914094116AF50ef6cF6136c",
    "0x9770CAdd2EC906589F01B4f59071F12962029082",
    "0xa3b171dE7DD7D732140c3628AcF2760Ee196C4c6"
  ],
  "numDeployments": 1,
  "solcInputHash": "7cb62472b26103e9c67679bc2886b7c4",
  "bytecode": "0x60806040523480156200001157600080fd5b50604051620025c6380380620025c6833981810160405281019062000037919062000462565b620000576200004b6200036860201b60201c565b6200037060201b60201c565b82600160006101000a81548173ffffffffffffffffffffffffffffffffffffffff021916908373ffffffffffffffffffffffffffffffffffffffff16021790555081600260006101000a81548173ffffffffffffffffffffffffffffffffffffffff021916908373ffffffffffffffffffffffffffffffffffffffff160217905550737a250d5630b4cf539739df2c5dacb4c659f2488d600360006101000a81548173ffffffffffffffffffffffffffffffffffffffff021916908373ffffffffffffffffffffffffffffffffffffffff160217905550600160009054906101000a900473ffffffffffffffffffffffffffffffffffffffff1673ffffffffffffffffffffffffffffffffffffffff1663095ea7b3600360009054906101000a900473ffffffffffffffffffffffffffffffffffffffff167fffffffffffffffffffffffffffffffffffffffffffffffffffffffffffffffff6040518363ffffffff1660e01b8152600401620001cf92919062000506565b602060405180830381600087803b158015620001ea57600080fd5b505af1158015620001ff573d6000803e3d6000fd5b505050506040513d601f19601f82011682018060405250810190620002259190620004b8565b50600260009054906101000a900473ffffffffffffffffffffffffffffffffffffffff1673ffffffffffffffffffffffffffffffffffffffff1663095ea7b3600360009054906101000a900473ffffffffffffffffffffffffffffffffffffffff167fffffffffffffffffffffffffffffffffffffffffffffffffffffffffffffffff6040518363ffffffff1660e01b8152600401620002c792919062000506565b602060405180830381600087803b158015620002e257600080fd5b505af1158015620002f7573d6000803e3d6000fd5b505050506040513d601f19601f820116820180604052508101906200031d9190620004b8565b5080600460006101000a81548173ffffffffffffffffffffffffffffffffffffffff021916908373ffffffffffffffffffffffffffffffffffffffff160217905550505050620005c5565b600033905090565b60008060009054906101000a900473ffffffffffffffffffffffffffffffffffffffff169050816000806101000a81548173ffffffffffffffffffffffffffffffffffffffff021916908373ffffffffffffffffffffffffffffffffffffffff1602179055508173ffffffffffffffffffffffffffffffffffffffff168173ffffffffffffffffffffffffffffffffffffffff167f8be0079c531659141344cd1fd0a4f28419497f9722a3daafe3b4186f6b6457e060405160405180910390a35050565b600081519050620004458162000591565b92915050565b6000815190506200045c81620005ab565b92915050565b6000806000606084860312156200047857600080fd5b6000620004888682870162000434565b93505060206200049b8682870162000434565b9250506040620004ae8682870162000434565b9150509250925092565b600060208284031215620004cb57600080fd5b6000620004db848285016200044b565b91505092915050565b620004ef8162000533565b82525050565b62000500816200057d565b82525050565b60006040820190506200051d6000830185620004e4565b6200052c6020830184620004f5565b9392505050565b6000620005408262000553565b9050919050565b60008115159050919050565b600073ffffffffffffffffffffffffffffffffffffffff82169050919050565b6000819050919050565b60006200058a8262000573565b9050919050565b6200059c8162000533565b8114620005a857600080fd5b50565b620005b68162000547565b8114620005c257600080fd5b50565b611ff180620005d56000396000f3fe608060405234801561001057600080fd5b50600436106101215760003560e01c806389c6dffa116100ad578063bcc46e8311610071578063bcc46e83146102e4578063d529acd614610300578063e1758bd814610330578063e9cbd8221461034e578063f2fde38b1461036c57610121565b806389c6dffa1461023e5780638bebf0691461025c5780638da5cb5b14610278578063a163a62414610296578063bb69bc71146102b457610121565b806347a7d107116100f457806347a7d107146101ac5780634c984185146101c8578063692058c2146101e65780636a915d6a14610204578063715018a61461023457610121565b806312065fe01461012657806323409d481461014457806338647333146101605780633a66ee181461017c575b600080fd5b61012e610388565b60405161013b91906119b0565b60405180910390f35b61015e60048036038101906101599190611610565b610447565b005b61017a600480360381019061017591906115ad565b6107c0565b005b610196600480360381019061019191906114b5565b610ab0565b6040516101a391906119b0565b60405180910390f35b6101c660048036038101906101c191906114de565b610ac8565b005b6101d0610b58565b6040516101dd919061180e565b60405180910390f35b6101ee610b7e565b6040516101fb91906118da565b60405180910390f35b61021e600480360381019061021991906114de565b610ba4565b60405161022b9190611889565b60405180910390f35b61023c610bf1565b005b610246610c79565b60405161025391906119b0565b60405180910390f35b610276600480360381019061027191906114de565b610c7f565b005b610280610ec8565b60405161028d919061180e565b60405180910390f35b61029e610ef1565b6040516102ab91906119b0565b60405180910390f35b6102ce60048036038101906102c991906114b5565b610ef7565b6040516102db91906119b0565b60405180910390f35b6102fe60048036038101906102f99190611610565b610f40565b005b61031a600480360381019061031591906114b5565b610fff565b60405161032791906119b0565b60405180910390f35b610338611017565b60405161034591906118bf565b60405180910390f35b61035661103d565b60405161036391906118a4565b60405180910390f35b610386600480360381019061038191906114b5565b611063565b005b6000600554600160009054906101000a900473ffffffffffffffffffffffffffffffffffffffff1673ffffffffffffffffffffffffffffffffffffffff166370a08231306040518263ffffffff1660e01b81526004016103e8919061180e565b60206040518083038186803b15801561040057600080fd5b505afa158015610414573d6000803e3d6000fd5b505050506040513d601f19601f820116820180604052508101906104389190611639565b6104429190611c56565b905090565b61044f61115b565b73ffffffffffffffffffffffffffffffffffffffff1661046d610ec8565b73ffffffffffffffffffffffffffffffffffffffff16146104c3576040517f08c379a00000000000000000000000000000000000000000000000000000000081526004016104ba90611970565b60405180910390fd5b600260009054906101000a900473ffffffffffffffffffffffffffffffffffffffff1673ffffffffffffffffffffffffffffffffffffffff166340c10f1930836040518363ffffffff1660e01b8152600401610520929190611860565b600060405180830381600087803b15801561053a57600080fd5b505af115801561054e573d6000803e3d6000fd5b505050506000600267ffffffffffffffff811115610595577f4e487b7100000000000000000000000000000000000000000000000000000000600052604160045260246000fd5b6040519080825280602002602001820160405280156105c35781602001602082028036833780820191505090505b509050600260009054906101000a900473ffffffffffffffffffffffffffffffffffffffff1681600081518110610623577f4e487b7100000000000000000000000000000000000000000000000000000000600052603260045260246000fd5b602002602001019073ffffffffffffffffffffffffffffffffffffffff16908173ffffffffffffffffffffffffffffffffffffffff1681525050600160009054906101000a900473ffffffffffffffffffffffffffffffffffffffff16816001815181106106ba577f4e487b7100000000000000000000000000000000000000000000000000000000600052603260045260246000fd5b602002602001019073ffffffffffffffffffffffffffffffffffffffff16908173ffffffffffffffffffffffffffffffffffffffff1681525050600360009054906101000a900473ffffffffffffffffffffffffffffffffffffffff1673ffffffffffffffffffffffffffffffffffffffff166338ed17398360008430601e426107449190611ae9565b6040518663ffffffff1660e01b81526004016107649594939291906119f4565b600060405180830381600087803b15801561077e57600080fd5b505af1158015610792573d6000803e3d6000fd5b505050506040513d6000823e3d601f19601f820116820180604052508101906107bb919061151a565b505050565b600460009054906101000a900473ffffffffffffffffffffffffffffffffffffffff1673ffffffffffffffffffffffffffffffffffffffff163373ffffffffffffffffffffffffffffffffffffffff1614610850576040517f08c379a000000000000000000000000000000000000000000000000000000000815260040161084790611930565b60405180910390fd5b61085a8284611163565b600084141561086857610aaa565b6000841315610a3c578361087a610388565b1261093457600160009054906101000a900473ffffffffffffffffffffffffffffffffffffffff1673ffffffffffffffffffffffffffffffffffffffff1663a9059cbb83866040518363ffffffff1660e01b81526004016108dc929190611860565b602060405180830381600087803b1580156108f657600080fd5b505af115801561090a573d6000803e3d6000fd5b505050506040513d601f19601f8201168201806040525081019061092e919061155b565b50610a37565b60008173ffffffffffffffffffffffffffffffffffffffff16639fa538be866040518263ffffffff1660e01b815260040161096f91906118f5565b60206040518083038186803b15801561098757600080fd5b505afa15801561099b573d6000803e3d6000fd5b505050506040513d601f19601f820116820180604052508101906109bf9190611584565b9050806008819055508173ffffffffffffffffffffffffffffffffffffffff16633e4d991282856040518363ffffffff1660e01b8152600401610a039291906119cb565b600060405180830381600087803b158015610a1d57600080fd5b505af1158015610a31573d6000803e3d6000fd5b50505050505b610a72565b610a71827fffffffffffffffffffffffffffffffffffffffffffffffffffffffffffffffff86610a6c9190611b3f565b6111d6565b5b7f334d0d13f32ba03376821d4fd2a67ccbad369bb626c7d7b168592a82cc54470a84604051610aa191906118f5565b60405180910390a15b50505050565b60076020528060005260406000206000915090505481565b600660008373ffffffffffffffffffffffffffffffffffffffff1673ffffffffffffffffffffffffffffffffffffffff16815260200190815260200160002054811115610b4a576040517f08c379a0000000000000000000000000000000000000000000000000000000008152600401610b4190611950565b60405180910390fd5b610b5482826111d6565b5050565b600460009054906101000a900473ffffffffffffffffffffffffffffffffffffffff1681565b600360009054906101000a900473ffffffffffffffffffffffffffffffffffffffff1681565b600081600760008573ffffffffffffffffffffffffffffffffffffffff1673ffffffffffffffffffffffffffffffffffffffff168152602001908152602001600020541015905092915050565b610bf961115b565b73ffffffffffffffffffffffffffffffffffffffff16610c17610ec8565b73ffffffffffffffffffffffffffffffffffffffff1614610c6d576040517f08c379a0000000000000000000000000000000000000000000000000000000008152600401610c6490611970565b60405180910390fd5b610c7760006112dd565b565b60055481565b610c8761115b565b73ffffffffffffffffffffffffffffffffffffffff16610ca5610ec8565b73ffffffffffffffffffffffffffffffffffffffff1614610cfb576040517f08c379a0000000000000000000000000000000000000000000000000000000008152600401610cf290611970565b60405180910390fd5b610d03610388565b811115610d45576040517f08c379a0000000000000000000000000000000000000000000000000000000008152600401610d3c90611990565b60405180910390fd5b600160009054906101000a900473ffffffffffffffffffffffffffffffffffffffff1673ffffffffffffffffffffffffffffffffffffffff1663095ea7b383836040518363ffffffff1660e01b8152600401610da2929190611860565b602060405180830381600087803b158015610dbc57600080fd5b505af1158015610dd0573d6000803e3d6000fd5b505050506040513d601f19601f82011682018060405250810190610df4919061155b565b508173ffffffffffffffffffffffffffffffffffffffff1663ca1d209d826040518263ffffffff1660e01b8152600401610e2e91906119b0565b600060405180830381600087803b158015610e4857600080fd5b505af1158015610e5c573d6000803e3d6000fd5b505050507fffffffffffffffffffffffffffffffffffffffffffffffffffffffffffffffff600760008473ffffffffffffffffffffffffffffffffffffffff1673ffffffffffffffffffffffffffffffffffffffff168152602001908152602001600020819055505050565b60008060009054906101000a900473ffffffffffffffffffffffffffffffffffffffff16905090565b60085481565b6000600660008373ffffffffffffffffffffffffffffffffffffffff1673ffffffffffffffffffffffffffffffffffffffff168152602001908152602001600020549050919050565b600160009054906101000a900473ffffffffffffffffffffffffffffffffffffffff1673ffffffffffffffffffffffffffffffffffffffff166323b872dd3330846040518463ffffffff1660e01b8152600401610f9f93929190611829565b602060405180830381600087803b158015610fb957600080fd5b505af1158015610fcd573d6000803e3d6000fd5b505050506040513d601f19601f82011682018060405250810190610ff1919061155b565b50610ffc3382611163565b50565b60066020528060005260406000206000915090505481565b600260009054906101000a900473ffffffffffffffffffffffffffffffffffffffff1681565b600160009054906101000a900473ffffffffffffffffffffffffffffffffffffffff1681565b61106b61115b565b73ffffffffffffffffffffffffffffffffffffffff16611089610ec8565b73ffffffffffffffffffffffffffffffffffffffff16146110df576040517f08c379a00000000000000000000000000000000000000000000000000000000081526004016110d690611970565b60405180910390fd5b600073ffffffffffffffffffffffffffffffffffffffff168173ffffffffffffffffffffffffffffffffffffffff16141561114f576040517f08c379a000000000000000000000000000000000000000000000000000000000815260040161114690611910565b60405180910390fd5b611158816112dd565b50565b600033905090565b80600560008282546111759190611ae9565b9250508190555080600660008473ffffffffffffffffffffffffffffffffffffffff1673ffffffffffffffffffffffffffffffffffffffff16815260200190815260200160002060008282546111cb9190611ae9565b925050819055505050565b6005548110156111f357806005546111ee9190611c56565b6111f6565b60005b600581905550600660008373ffffffffffffffffffffffffffffffffffffffff1673ffffffffffffffffffffffffffffffffffffffff168152602001908152602001600020548110156112935780600660008473ffffffffffffffffffffffffffffffffffffffff1673ffffffffffffffffffffffffffffffffffffffff1681526020019081526020016000205461128e9190611c56565b611296565b60005b600660008473ffffffffffffffffffffffffffffffffffffffff1673ffffffffffffffffffffffffffffffffffffffff168152602001908152602001600020819055505050565b60008060009054906101000a900473ffffffffffffffffffffffffffffffffffffffff169050816000806101000a81548173ffffffffffffffffffffffffffffffffffffffff021916908373ffffffffffffffffffffffffffffffffffffffff1602179055508173ffffffffffffffffffffffffffffffffffffffff168173ffffffffffffffffffffffffffffffffffffffff167f8be0079c531659141344cd1fd0a4f28419497f9722a3daafe3b4186f6b6457e060405160405180910390a35050565b60006113b46113af84611a73565b611a4e565b905080838252602082019050828560208602820111156113d357600080fd5b60005b8581101561140357816113e988826114a0565b8452602084019350602083019250506001810190506113d6565b5050509392505050565b60008135905061141c81611f5f565b92915050565b600082601f83011261143357600080fd5b81516114438482602086016113a1565b91505092915050565b60008151905061145b81611f76565b92915050565b60008135905061147081611f8d565b92915050565b60008151905061148581611f8d565b92915050565b60008135905061149a81611fa4565b92915050565b6000815190506114af81611fa4565b92915050565b6000602082840312156114c757600080fd5b60006114d58482850161140d565b91505092915050565b600080604083850312156114f157600080fd5b60006114ff8582860161140d565b92505060206115108582860161148b565b9150509250929050565b60006020828403121561152c57600080fd5b600082015167ffffffffffffffff81111561154657600080fd5b61155284828501611422565b91505092915050565b60006020828403121561156d57600080fd5b600061157b8482850161144c565b91505092915050565b60006020828403121561159657600080fd5b60006115a484828501611476565b91505092915050565b600080600080608085870312156115c357600080fd5b60006115d187828801611461565b94505060206115e28782880161148b565b93505060406115f38782880161140d565b92505060606116048782880161140d565b91505092959194509250565b60006020828403121561162257600080fd5b60006116308482850161148b565b91505092915050565b60006020828403121561164b57600080fd5b6000611659848285016114a0565b91505092915050565b600061166e838361167a565b60208301905092915050565b61168381611c8a565b82525050565b61169281611c8a565b82525050565b60006116a382611aaf565b6116ad8185611ac7565b93506116b883611a9f565b8060005b838110156116e95781516116d08882611662565b97506116db83611aba565b9250506001810190506116bc565b5085935050505092915050565b6116ff81611c9c565b82525050565b61170e81611cdc565b82525050565b61171d81611d00565b82525050565b61172c81611d24565b82525050565b61173b81611ca8565b82525050565b61174a81611d48565b82525050565b600061175d602683611ad8565b915061176882611dfa565b604082019050919050565b6000611780602583611ad8565b915061178b82611e49565b604082019050919050565b60006117a3602c83611ad8565b91506117ae82611e98565b604082019050919050565b60006117c6602083611ad8565b91506117d182611ee7565b602082019050919050565b60006117e9603f83611ad8565b91506117f482611f10565b604082019050919050565b61180881611cd2565b82525050565b60006020820190506118236000830184611689565b92915050565b600060608201905061183e6000830186611689565b61184b6020830185611689565b61185860408301846117ff565b949350505050565b60006040820190506118756000830185611689565b61188260208301846117ff565b9392505050565b600060208201905061189e60008301846116f6565b92915050565b60006020820190506118b96000830184611705565b92915050565b60006020820190506118d46000830184611714565b92915050565b60006020820190506118ef6000830184611723565b92915050565b600060208201905061190a6000830184611732565b92915050565b6000602082019050818103600083015261192981611750565b9050919050565b6000602082019050818103600083015261194981611773565b9050919050565b6000602082019050818103600083015261196981611796565b9050919050565b60006020820190508181036000830152611989816117b9565b9050919050565b600060208201905081810360008301526119a9816117dc565b9050919050565b60006020820190506119c560008301846117ff565b92915050565b60006040820190506119e060008301856117ff565b6119ed6020830184611689565b9392505050565b600060a082019050611a0960008301886117ff565b611a166020830187611741565b8181036040830152611a288186611698565b9050611a376060830185611689565b611a4460808301846117ff565b9695505050505050565b6000611a58611a69565b9050611a648282611d5a565b919050565b6000604051905090565b600067ffffffffffffffff821115611a8e57611a8d611dba565b5b602082029050602081019050919050565b6000819050602082019050919050565b600081519050919050565b6000602082019050919050565b600082825260208201905092915050565b600082825260208201905092915050565b6000611af482611cd2565b9150611aff83611cd2565b9250827fffffffffffffffffffffffffffffffffffffffffffffffffffffffffffffffff03821115611b3457611b33611d8b565b5b828201905092915050565b6000611b4a82611ca8565b9150611b5583611ca8565b9250827f7fffffffffffffffffffffffffffffffffffffffffffffffffffffffffffffff0482116000841360008413161615611b9457611b93611d8b565b5b817f80000000000000000000000000000000000000000000000000000000000000000583126000841260008413161615611bd157611bd0611d8b565b5b827f80000000000000000000000000000000000000000000000000000000000000000582126000841360008412161615611c0e57611c0d611d8b565b5b827f7fffffffffffffffffffffffffffffffffffffffffffffffffffffffffffffff0582126000841260008412161615611c4b57611c4a611d8b565b5b828202905092915050565b6000611c6182611cd2565b9150611c6c83611cd2565b925082821015611c7f57611c7e611d8b565b5b828203905092915050565b6000611c9582611cb2565b9050919050565b60008115159050919050565b6000819050919050565b600073ffffffffffffffffffffffffffffffffffffffff82169050919050565b6000819050919050565b6000611ce782611cee565b9050919050565b6000611cf982611cb2565b9050919050565b6000611d0b82611d12565b9050919050565b6000611d1d82611cb2565b9050919050565b6000611d2f82611d36565b9050919050565b6000611d4182611cb2565b9050919050565b6000611d5382611cd2565b9050919050565b611d6382611de9565b810181811067ffffffffffffffff82111715611d8257611d81611dba565b5b80604052505050565b7f4e487b7100000000000000000000000000000000000000000000000000000000600052601160045260246000fd5b7f4e487b7100000000000000000000000000000000000000000000000000000000600052604160045260246000fd5b6000601f19601f8301169050919050565b7f4f776e61626c653a206e6577206f776e657220697320746865207a65726f206160008201527f6464726573730000000000000000000000000000000000000000000000000000602082015250565b7f4f6e6c792074686520737761707320636f6e74726163742063616e2063616c6c60008201527f2074686973000000000000000000000000000000000000000000000000000000602082015250565b7f5573657220646f6573206e6f74206861766520656e6f75676820636f6c6c617460008201527f6572616c20746f206c6f636b0000000000000000000000000000000000000000602082015250565b7f4f776e61626c653a2063616c6c6572206973206e6f7420746865206f776e6572600082015250565b7f43616e206e6f74206465706f736974206d6f7265207468616e2074686520617660008201527f61696c61626c652062616c616e6365206f662074686520747265617375727900602082015250565b611f6881611c8a565b8114611f7357600080fd5b50565b611f7f81611c9c565b8114611f8a57600080fd5b50565b611f9681611ca8565b8114611fa157600080fd5b50565b611fad81611cd2565b8114611fb857600080fd5b5056fea26469706673582212200b97cc0c664a319a8ff98320d2c3be7bb900c790085a85e614888f57df0463bf64736f6c63430008040033",
  "devdoc": {
    "author": "Caron Case (carsonpcase@gmail.com) Treasury is to be governed by the governance time lock and thus that is the owner",
    "kind": "dev",
    "methods": {
      "owner()": {
        "details": "Returns the address of the current owner."
      },
      "renounceOwnership()": {
        "details": "Leaves the contract without owner. It will not be possible to call `onlyOwner` functions anymore. Can only be called by the current owner. NOTE: Renouncing ownership will leave the contract without an owner, thereby removing any functionality that is only available to the owner."
      },
      "transferOwnership(address)": {
        "details": "Transfers ownership of the contract to a new account (`newOwner`). Can only be called by the current owner."
      }
    },
    "title": "Treasury",
    "version": 1
  },
  "userdoc": {
    "kind": "user",
    "methods": {},
    "version": 1
  },
  "storageLayout": {
    "storage": [
      {
        "astId": 389,
        "contract": "contracts/Treasury.sol:Treasury",
        "label": "_owner",
        "offset": 0,
        "slot": "0",
        "type": "t_address"
      },
      {
        "astId": 10487,
        "contract": "contracts/Treasury.sol:Treasury",
        "label": "stablecoin",
        "offset": 0,
        "slot": "1",
        "type": "t_contract(IERC20)3889"
      },
      {
        "astId": 10490,
        "contract": "contracts/Treasury.sol:Treasury",
        "label": "nativeToken",
        "offset": 0,
        "slot": "2",
        "type": "t_contract(IGovToken)10479"
      },
      {
        "astId": 10493,
        "contract": "contracts/Treasury.sol:Treasury",
        "label": "dex",
        "offset": 0,
        "slot": "3",
        "type": "t_contract(IUniswapV2Router02)11662"
      },
      {
        "astId": 10495,
        "contract": "contracts/Treasury.sol:Treasury",
        "label": "swaps",
        "offset": 0,
        "slot": "4",
        "type": "t_address"
      },
      {
        "astId": 10497,
        "contract": "contracts/Treasury.sol:Treasury",
        "label": "totalOwedCollateral",
        "offset": 0,
        "slot": "5",
        "type": "t_uint256"
      },
      {
        "astId": 10501,
        "contract": "contracts/Treasury.sol:Treasury",
        "label": "availableCollateral",
        "offset": 0,
        "slot": "6",
        "type": "t_mapping(t_address,t_uint256)"
      },
      {
        "astId": 10505,
        "contract": "contracts/Treasury.sol:Treasury",
        "label": "strategiesApprovedBalances",
        "offset": 0,
        "slot": "7",
        "type": "t_mapping(t_address,t_uint256)"
      },
      {
        "astId": 10720,
        "contract": "contracts/Treasury.sol:Treasury",
        "label": "Test",
        "offset": 0,
        "slot": "8",
        "type": "t_uint256"
      }
    ],
    "types": {
      "t_address": {
        "encoding": "inplace",
        "label": "address",
        "numberOfBytes": "20"
      },
      "t_contract(IERC20)3889": {
        "encoding": "inplace",
        "label": "contract IERC20",
        "numberOfBytes": "20"
      },
      "t_contract(IGovToken)10479": {
        "encoding": "inplace",
        "label": "contract IGovToken",
        "numberOfBytes": "20"
      },
      "t_contract(IUniswapV2Router02)11662": {
        "encoding": "inplace",
        "label": "contract IUniswapV2Router02",
        "numberOfBytes": "20"
      },
      "t_mapping(t_address,t_uint256)": {
        "encoding": "mapping",
        "key": "t_address",
        "label": "mapping(address => uint256)",
        "numberOfBytes": "32",
        "value": "t_uint256"
      },
      "t_uint256": {
        "encoding": "inplace",
        "label": "uint256",
        "numberOfBytes": "32"
      }
    }
  }
}